:020000040800F2
:10000000203E0120D50300087D2100087921000849
:100010007B210008E31D00081133000800000000E8
:1000200000000000000000000000000015030008B0
:10003000E51D00080000000071030008692D00089C
:10004000EF030008EF030008EF030008612B00082E
:10005000EF030008EF030008E91D0008EF030008A4
:10006000251E0008611E00089D1E0008EF03000801
:10007000EF030008EF030008EF030008EF03000898
:10008000EF030008EF030008EF030008EF03000888
:10009000EF030008EF030008EF030008D91E000873
:1000A000EF030008EF030008EF030008EF03000868
:1000B000F12D00086D2E0008EF030008EF03000883
:1000C000EF030008EF030008EF030008EF03000848
:1000D000EF030008ED2F000871300008BD30000864
:1000E000EF0300080D270008EF030008EF030008E6
:1000F000EF030008EF030008EF030008EF03000818
:10010000EF030008EF030008EF030008EF03000807
:10011000EF030008EF030008EF030008EF030008F7
:10012000EF030008EF030008EF030008EF030008E7
:10013000EF030008EF030008EF030008EF030008D7
:10014000EF030008EF030008EF030008EF030008C7
:10015000EF030008EF030008EF0300081D3100085B
:10016000EF030008EF030008EF030008EF030008A7
:10017000EF030008EF030008EF030008EF03000897
:10018000EF030008EF03000800F002F800F0B2F8F7
:100190000AA090E8000C82448344AAF10107DA45E2
:1001A00001D100F0A7F8AFF2090EBAE80F0013F082
:1001B000010F18BFFB1A43F00103184798BB00005A
:1001C000B8BB00000A444FF0000C10F8013B13F0DC
:1001D000070408BF10F8014B1D1108BF10F8015BA0
:1001E000641E05D010F8016B641E01F8016BF9D193
:1001F00013F0080F1EBF10F8014BAD1C0C1B09D1EA
:100200006D1E58BF01F801CBFAD505E014F8016B5B
:1002100001F8016B6D1EF9D59142D6D370470000ED
:100220000023002400250026103A28BF78C1FBD8FF
:10023000520728BF30C148BF0B6070476E2900F0DD
:100240002884702900F0DB81662909F0D7846529AC
:1002500009F0D484672909F0D1846129AFF30080C3
:1002600003681B0A28BF41F08001692900F04C8116
:10027000642900F04981752900F046816F2900F05A
:100280002D87782900F0A781E92900F0C786E429A5
:1002900000F0C486F52900F0C186EF2900F02A8716
:1002A000F82900F0A6810368DB0928BF41F080012E
:1002B000632900F03686732900F03B86E32901F0BC
:1002C0004F80F32901F05480002070471FB509F0DA
:1002D00090FC00F0B1FF04000020002109F0FCFBBD
:1002E000401C60600020002109F0E0FBE0601FBDC1
:1002F00010B510BD01F040F91146FFF7E7FF06F019
:100300008DFE01F06CF903B4FFF7F2FF03BC03F0BC
:1003100025F900002C4B19680868B0E8F04F80F30D
:100320000988BFF36F8F4FF0000080F3118870478A
:100330000000000008480068006880F308884FF05B
:10034000000080F3148862B661B6BFF34F8FBFF32D
:100350006F8F00DF00BF00BF08ED00E0DFF80C008A
:10036000016841F470010160704700BF88ED00E052
:10037000EFF30980BFF36F8F134B1A681EF0100F55
:1003800008BF20ED108A20E9F04F106009B44FF04B
:10039000500080F31188BFF34F8FBFF36F8F08F0C9
:1003A00069FC4FF0000080F3118809BC19680868E7
:1003B000B0E8F04F1EF0100F08BFB0EC108A80F3C9
:1003C0000988BFF36F8F704720010020EFF305808D
:1003D000704700000948804709480047FEE7FEE7EC
:1003E000FEE7FEE7FEE7FEE7FEE7FEE7FEE7FEE7E5
:1003F00004480549054A064B70470000952D000842
:100400008901000820380120203E0120203A0120E7
:10041000203A0120704700000A46014900F08EBDD5
:100420000C0100200FB4044910B503AA029800F093
:1004300085FD10BC5DF814FB0C0100200FB41CB549
:10044000084B06AA7B4469460090059800F047FDDA
:1004500004460020694600F055FD20461CBC5DF8AE
:1004600014FB0000BD0A000070B5044685690068F1
:10047000C10601D5302600E02026C00707D070BD98
:10048000D4E9012130469047206A401C20626D1E4D
:10049000F6D570BD70B5044685690078C00707D1F0
:1004A00070BDD4E9012120209047206A401C2062C1
:1004B0006D1EF6D570BD70B50C460546012A05D0F7
:1004C0002878800600D5EA69002302E0012305E0D0
:1004D0005B1C934202D2E05C0028F9D1A869E618BF
:1004E000C01AA861286A184428622846FFF7BCFF92
:1004F00004E0D5E9012114F8010B9047B442F8D388
:100500002846FFF7C7FF70BD2DE9F04106460024DD
:1005100010687529314616A510D000F04FFA002852
:1005200002DA404213A507E031688A0701D512A517
:1005300002E0490704D511A5012401E000F047FAC3
:1005400000210A2206F1240709E0B0FBF2FCB0FB0F
:10055000F2F302FB1C00303078541846491C002886
:10056000F3D123462A463046BDE8F04100F038BAC0
:10057000000000002D0000002B0000002000000003
:10058000F0B40D460188090502D5214C7C4402E0F7
:100590001F4C7C440E34002100F1240608E002F0D8
:1005A0000F071209E75D42EA03721B097754491CE1
:1005B00052EA0307F3D102780023120704D5702D05
:1005C00006D009B1022311342246F0BC00F008BA6B
:1005D00001231034F8E770B504460D462146106833
:1005E00000F0F5F9024629462046BDE87040002398
:1005F000C6E7D21D22F00703D3E90023C0E7036852
:10060000126843F0200303600823C3610023B7E7A7
:1006100074B300002DE9F05F894604464FF0000AEC
:10062000DFF874B1FB44C0F820A02046E168884799
:10063000002874D0252806D0D4E901219047206AEB
:10064000401C2062F1E700265F462046E1688847AB
:100650002028054607DB312D05D2781910F8200C2B
:1006600008B10643F1E7B00701D526F00406C4F847
:100670001CA00027C4F818A02A2D09D0284602F093
:10068000C1FE38B304EB8708303DC8F8185019E0B4
:1006900059F8041B204604EB87029161E168884702
:1006A000012F054618D1E069002820DA26F020063F
:1006B0001DE0D8F8180000EB800005EB4000303852
:1006C000C8F818002046E1688847054602F09AFEFF
:1006D0000028EED1012F0AD02E2D08D12046E16846
:1006E00088477F1C0546022F46F02006C4DBA06920
:1006F000002803DA404246F00106A061F00701D06D
:1007000026F010066C2D0BD0682D09D04C2D39D059
:100710006A2D35D0742D35D07A2D33D016E038E0DF
:10072000E1682F4620468847B842054609D16C2F1C
:1007300026D04FF48060E16806432046884705468E
:1007400004E06C2F1AD04FF4807006430DB3A5F16E
:100750004100192802D8203546F400664A46294649
:10076000204626604E46FFF769FD80B101280BD078
:10077000F61D26F0070000F1080956E74020E4E7DF
:100780008020D8E70020D6E706F104094DE7284687
:1007900052E7206ABDE8F09F04B3000070B506463A
:1007A00000F008F90468054630460A22002100F0EE
:1007B000ABFC2C6070BD0000014A00F0DDBC000005
:1007C0009401002030B505460B462A4613F8014B2C
:1007D00012F8010B08B1A042F8D01CB1002802D0D9
:1007E0006D1CF1E7284630BD40EA010310B59B07B8
:1007F0000FD1042A0DD310C808C9121F9C42F8D08B
:1008000020BA19BA884201D9012010BD4FF0FF303B
:1008100010BD1AB1D30703D0521C07E0002010BD51
:1008200010F8013B11F8014B1B1B07D110F8013BDD
:1008300011F8014B1B1B01D1921EF1D1184610BDBE
:1008400010B5431C02E010F8011B71B18107FAD109
:100850004FF0013202C88C1A8C4314EAC211F9D04D
:10086000C01A0A0603D0C01E10BDC01A10BD0A046B
:1008700001D0801E10BD0902FCD0401E10BD032A0D
:1008800040F2308010F0030C00F0158011F8013BAD
:10089000BCF1020F624498BF11F801CB00F8013B94
:1008A00038BF11F8013BA2F1040298BF00F801CB58
:1008B00038BF00F8013B11F0030300F07F84083AD1
:1008C000C0F0088051F8043B083A51F804CBA0E886
:1008D0000810F5E7121D5CBF51F8043B40F8043BDB
:1008E000AFF30080D20724BF11F8013B11F801CB10
:1008F00048BF11F8012B24BF00F8013B00F801CBE1
:1009000048BF00F8012B704702F0FF0343EA0322BF
:1009100042EA024200F002B84FF000020429C0F09F
:10092000128010F0030C00F01B80CCF1040CBCF121
:10093000020F18BF00F8012BA8BF20F8022BA1EB73
:100940000C0100F00DB85FEAC17C24BF00F8012B58
:1009500000F8012B48BF00F8012B70474FF0000250
:1009600000B5134694469646203922BFA0E80C50A5
:10097000A0E80C50B1F12001BFF4F7AF090728BF80
:10098000A0E80C5048BF0CC05DF804EB890028BFFC
:1009900040F8042B08BF704748BF20F8022B11F025
:1009A000804F18BF00F8012B7047704770477047A1
:1009B0007047000000487047C037012009684A05A9
:1009C00001D540B27047C905FCD500B2704709682F
:1009D0004A0501D5C0B27047C905FCD580B2704741
:1009E0002DE9F0470D4699469246044600F1240849
:1009F0000168880604D5E06921F01001216000E05B
:100A00000120A84201DD471B00E00027A1697A19F7
:100A100002EB0900081AA0612078C00602D4204623
:100A2000FFF722FD002608E0D4E901211AF80600AC
:100A30009047206A401C761C20624E45F4DB2078EB
:100A4000C0060AD52046FFF70FFD06E0D4E90121D4
:100A500030209047206A401C2062381EA7F1010711
:100A6000F4DC07E0D4E9012118F805009047206A7A
:100A7000401C2062281EA5F10105F3DC2046FFF78B
:100A800009FD2078000602D50220BDE8F08701208C
:100A9000FBE711680268006A530501D508700AE097
:100AA000D30501D5088006E0130603D5C217C1E9B6
:100AB000000200E008600120704770472DE9FF4FF9
:100AC0000C461E464FF0FF378BB0D2E90001DDF82F
:100AD00060800A908A46C1F30A5505B93D46002157
:100AE00008464FF00000BAF1000F00F4400005DAAC
:100AF00000EB80004FF4400101EA50004FEA9059AA
:100B0000B9F1010F00DDB9460A9850EA4A000ED04B
:100B100044F61050A5F2FF3545432F14B8F1000FED
:100B20001ED07542291E1EDDC9F100021CE0B8F17D
:100B3000010F4FF0000001D0302103E0F24305E047
:100B40002154401CB042FBDB3046002200212154DE
:100B50000B99C1F80880C1E900200FB0BDE8F08F03
:100B6000BD1B6D1CDEE74A4600DA694206A800F0AC
:100B700053FC06AB93E8070003AB83E8070050463D
:100B80000A9900F073FD8DE80700A0F500501F38AA
:100B900000900398002D09DD42F21F014A460844E7
:100BA00003A90390684600F0D2FF08E0A0F50050CA
:100BB0004A461F3803A90390684600F0DCFF8DE821
:100BC00007000004000C03D04FF0FF30410800E0A4
:100BD0001046B8F1000F03D00022009215461EE027
:100BE000751E05D400F02CFB303262556D1EF9D510
:100BF000B3460122084302D000227F1C04E0207883
:100C0000302801D100227F1E002A099786D01DE0DE
:100C1000112D07DA00F014FB303262556D1C50EADA
:100C20000102F5D1084302D00098C8B10EE00021BE
:100C3000681E05E0235C625C63542254401E491C1C
:100C40008142F7DBAB46A81B401E0990002004F848
:100C50000B000B98099AC0F80880C0E9002B7CE7CC
:100C600011264FF0000859E72DE9F04F8846044659
:100C7000D21D22F0070191B0D1E90001CDE90A01AE
:100C800002F0A8FB02460B98C00F01D02D2007E010
:100C90002068810701D52B2002E0202101EAC00055
:100CA000032A099001D0072A05DB03464146204666
:100CB00000F00CFB0BE12078800601D5E06900E034
:100CC0000620B8F1650F814606D0B8F1660F18D03E
:100CD000B8F1670F70D131E00020B9F1110F009029
:100CE00001DB112301E009F101030AAA01A90CA803
:100CF000FFF7E4FEDDE90C70002609F101058346EB
:100D000047E001204B4600904FF000470AAA01A996
:100D10000CA8FFF7D3FEDDE90DB00C995D46002667
:100D200010B909F101000D18B9EB050003D4C0F1A9
:100D3000FF3609F10105A5EB09002BE0B9F1010F20
:100D400001DA4FF001090020B9F1110F0090484677
:100D500001DD112300E003460AAA01A90CA8FFF750
:100D6000ADFEDDE90C704D46002683462078000775
:100D70000AD4AB4500DA5D4601A8012D04DD411916
:100D800011F8011C302907D04F4502DA17F1040F82
:100D900004DA012082460FE06D1EEEE7002F02DC30
:100DA000ED1B3E4403E0781CA84200DD7D1CB81B0F
:100DB00000F1010A4FF000472078000703D4AA454C
:100DC00001DB4FF0FF3A0021B7F1004F0DF143086E
:100DD0008DF8431024D002202B23002F01DA7F420C
:100DE0002D230A21021EA0F1010000DC5FB197FB58
:100DF000F1FC97FBF1F201FB1C7C17460CF1300C67
:100E000008F801CDEEE7A8F101000370218809057B
:100E100001D5452100E06521A0F1010800F8011C81
:100E200009980FA9A1EB0807FF1D00B10120411986
:100E300001EBEA70A1693844081A401EA0612078CD
:100E4000C00602D42046FFF70FFB099828B1D4E969
:100E500001219047206A401C20622078C00622D5DC
:100E60002046FFF701FB1EE0002E04DBB34502DD48
:100E700001A8805D00E03020D4E901219047206A7C
:100E8000401C2062761CAAF101005FEA000A0AD128
:100E900000F0D2F9C0680168405CD4E901219047B4
:100EA000206A401C2062281EA5F10105DCDC07E059
:100EB000D4E9012118F8010B9047206A401C2062F8
:100EC000381EA7F10107F3DC2046FFF7E3FA032001
:100ED00011B043E601694A1C02610878704700B509
:100EE0008FB0CDE901310021059105497944CDE963
:100EF000031011466846FFF78DFB0FB000BD0000E0
:100F0000E5FFFFFF0A6802F8010B0A60704710B5A1
:100F1000436913B1AFF3008001E0FFF7CCFA012081
:100F200010BD127800F124010A7000224A700122DB
:100F3000EDE711684FF0FF32E9E70000074B70B5AD
:100F40000D467B44FFF7CBFF0446284600F0D2FA5B
:100F500010B14FF0FF3070BD204670BDC75C00007F
:100F60002DE9FF5F15468A460446DFF8AC80F84459
:100F70000027D8E900103E46CDE9001010E03AF80D
:100F800016106A4602A800F0B9FA411C07D0217871
:100F9000890603D5E269391891420DD80744761CB9
:100FA0002078800602D5E069B84205DDAE42E6DB76
:100FB0003AF816000028E2D1A069C01BA0612046C3
:100FC000FFF752FAD8E90010CDE90010002017E031
:100FD0003AF818106A4602A800F090FAB0F1FF3F04
:100FE00081460BD000250DF1080B05E0D4E9012165
:100FF0001BF8050090476D1C4D45F7D308F1010023
:10100000B0428046E4DB206A384420622046FFF785
:1010100041FABDE8FF9F0000CEA900002DE9F04194
:101020008046D21D22F007020025D2E90002F529F0
:1010300015A614D0011E72F1000106DA0023D0EBD0
:10104000030063EB020211A608E0D8F800108B073A
:1010500001D50FA602E0490701D50EA601251146CC
:10106000002408F1240704E000F0EAF830323A5591
:10107000641C50EA0102F7D12B4632462146404615
:10108000BDE8F041FFF7ACBC000000002D000000FF
:101090002B0000002000000030B4002100F12404E7
:1010A00008E002F00705D208303542EA4372DB0857
:1010B0006554491C52EA0305F3D10468002310A2C9
:1010C000250708D504F020040C4304D0C46901238B
:1010D0000CA2641EC46130BCFFF782BC10B504468C
:1010E00021461068FFF773FC02462046BDE8104019
:1010F0000023D1E7D21D22F00701D1E90023CBE77D
:1011000000000000300000002DE9F04791460F4636
:1011100080460446002614F8015B2DB100F084F8E7
:101120000068405DC007F6D12B2D02D02D2D18D0C0
:10113000641E4A463946204600F01EF927B1396838
:10114000A14201D1C7F800804FF0020471050BD510
:101150004042002803DDFFF72DFC0460A007BDE836
:10116000F08746F48066E4E70028F8DAFFF722FC0F
:1011700004606FF00040F2E72DE9F04115460E469D
:10118000040002D12C6804B90BA4204600F0E6F953
:101190000444207870B127463146384600F0CEF935
:1011A0000444207810B1002004F8010B38462C606C
:1011B000BDE8F0810027F9E70000000010B5203AF3
:1011C000C0F00B80B1E81850203AA0E81850B1E800
:1011D0001850A0E81850BFF4F5AF5FEA027C24BFB6
:1011E000B1E81850A0E8185044BF18C918C0BDE8AD
:1011F00010405FEA827C24BF51F8043B40F8043B76
:1012000008BF7047D20728BF31F8023B48BF11F82A
:10121000012B28BF20F8023B48BF00F8012B704784
:1012200000487047C037012010B500F005F8001DD8
:1012300010BD00BFA588000000487047E0370120BE
:1012400030B5B0F10A024FEA900E71F100034EEA98
:10125000817EB0EB0E0061EB91014FEA101E4EEA69
:10126000017E10EB0E0041EB11114FEA102E4EEAF9
:10127000016E10EB0E0041EB11214FEA104E4EEAC9
:10128000014E10EB0E0041EB1141401841F10001FD
:101290004FEAD00040EA41704FEAD10110EB8005DF
:1012A0004FEA810444EA907444EB01046D1944EB65
:1012B0000404521BA3414FF0000348BF0A3200D57B
:1012C00030BD401C41F1000130BD00002DE9F0416E
:1012D0001F46044603260168072A01F4006004DB68
:1012E00008B116A505E016A503E008B115A500E0B4
:1012F00015A521F010002060A069C01EA0610FB1EB
:10130000401EA0612046FFF7AFF84FB1D4E901219C
:1013100038469047206A401C2062C01C206206E0CC
:10132000206AFAE7D4E9012115F8010B9047761EEF
:10133000F8D22046FFF7AEF8BDE8F0814E414E00EE
:101340006E616E00494E4600696E660010B54369D5
:1013500013B1AFF3008001E0FFF702FE012010BDE2
:10136000128800F1240182840022C2840122EDE768
:1013700011684FF0FF32E9E72DE9F05F824615462C
:101380008B4600270AF10104B9460078302801D0C5
:101390009DB113E014F8010B0127782803D05828D9
:1013A00001D045B10AE00DB1102D07D1002714F886
:1013B000010B102502E0082500E00A250026B046B2
:1013C0000EE005FB080005FB06F101271FFA80F877
:1013D00001EB1046B6F5803F00D3B94614F8010B77
:1013E000294600F0EEF80028EBDABBF1000F05D03B
:1013F0000FB1641E00E05446CBF80040B9F1000F75
:1014000006D0FFF7D7FA02210160C81EBDE8F09FA1
:1014100048EA0640FAE700002DE9F0478146164603
:101420008AB0334878440DC88DE80D0030487844C0
:10143000801C03AC0DC884E80D0041F69B300844C5
:10144000372190FBF1F290FBF1F5A5F1800501FB4E
:1014500012041B3C02D56442012000E00020DFF8AA
:1014600090A080460027FA44AAF1BE0A0DE0E007EA
:1014700009D03246684607EB47010AEB810100F0CC
:101480007AFB8DE8070064107F1C002CEFD1184F09
:101490007F44AC3F18E0E80714D007EB04100DF1CF
:1014A000180A90E80E008AE80E00C068F04201D1E8
:1014B00098190890324606A903A800F05CFB03AB1C
:1014C00083E807006D10641C002DE4D132466946A4
:1014D000B8F1000F03A802D000F039FB01E000F0E2
:1014E0004AFBC9E90001C9F808200AB0BDE8F08745
:1014F0009CA50000007B00F08000704770B5164688
:101500000C460546FFF790FE036893F80101012899
:1015100006D0FF2C0FD8185D68B101202C7070BD6B
:10152000D3F807013246214603F207130344284645
:10153000BDE8704018474FF0FF3070BD30B503462E
:101540001D781DB10A4603E0AC4201D1181A30BD26
:1015500012F8014B002CF7D15B1CF1E730B50346C4
:101560001D783DB10A4612F8014B1CB1AC42FAD1CC
:101570005B1CF5E7181A30BD7546FFF751FEAE4605
:1015800005006946534620F00700854618B020B58F
:10159000FEF72EFFBDE820404FF000064FF0000799
:1015A0004FF000084FF0000B21F00701AC46ACE80B
:1015B000C009ACE8C009ACE8C009ACE8C0098D4678
:1015C00070473A2800D2303820F02002412A01D357
:1015D000A2F13700884201D34FF0FF307047044634
:1015E000AFF300802046FEF78EFE00004FF0013C76
:1015F00050F8042B51F8043B9A4221D1A2EB0C0382
:10160000934313EACC1317D150F8042B51F8043B41
:101610009A4215D1A2EB0C03934313EACC130BD1DE
:1016200050F8042B51F8043B9A4209D1A2EB0C0369
:10163000934313EACC13DBD04FF00000704700BF98
:10164000D01A01BAB1FA81F101F0180122FA01F0C1
:10165000CB40C1F12001DBB2C0B2C01A2CFA01F3B9
:10166000D11A914311EAC311E6D170475FEA400CE9
:1016700008BF91F0000F4FEA8C234FEAC12243EAE2
:1016800051514FEA1C5018BF00F5F0404FEA3000AE
:1016900018BF41F000415FEA6C5C00F02980BCF1AA
:1016A000FF3F08BF40F080407047130C06BF120494
:1016B0004FF0100C4FF0000C130E04BF12020CF18F
:1016C000080C130F04BF12010CF1040C930F04BF9C
:1016D00092000CF1020CD30F04BF52000CF1010C6C
:1016E00011464FF00002A0F11F00A0EB0C00704764
:1016F00011F0004F08BF704731F000413FF4D5AF03
:101700000B0C06BF09044FF0100C4FF0000C0B0E31
:1017100004BF09020CF1080C0B0F04BF09010CF106
:10172000040C8B0F04BF89000CF1020CCB0F04BF1B
:1017300049000CF1010CCCF12003A0EB0C0022FAC3
:1017400003F302FA0CF241EA030100F101007047D1
:1017500020F07F4C80EA030023F07F47ACEB0703C7
:1017600003F57C5300F0004003F1FF032DE98049AD
:101770004FEA154B09B44FEA144325EA0B4E24EA0D
:1017800003480FF2042606EB132749083E785FEA68
:10179000320203FB0667C7F5000707FB06F64FEAB0
:1017A00054374FEAD64606F1020607FB066CCCF129
:1017B000005C4FEA1C472CEA074C07FB06F40CFBC5
:1017C00006F504EB15464FEA961634BF00204FF09D
:1017D00000404FEAD13706FB07FC4FEA1C4C0CFBDC
:1017E0000BF7D21B03FB0CF761EB07010CFB0EF7A9
:1017F000B0EB074072EB17420CFB08F734BFA2EBCB
:101800000742B2EB074261EB17414FEA0C444FEA43
:10181000910706FB07FC4FEA1C4C0CFB0BF7B0EBE7
:10182000C74072EB573203FB0CF734BFA2EBC74241
:10183000B2EBC74261EB57310CFB0EF7B0EBC700C0
:1018400072EB57720CFB08F734BFA2EBC702B2EB86
:10185000C70261EB5771039F4FEA816141EA921120
:1018600004EBCC044FEAD1374FEA826206FB07FC57
:1018700042EA90124FEA80604FEA1C4C0CFB0BF7D7
:10188000D21B03FB0CF761EB07010CFB0EF7B0EB6F
:10189000074072EB17420CFB08F734BFA2EB07427C
:1018A000B2EB074261EB17414FEA8C554FEA9107C3
:1018B00004EB9C2406FB07FC4FEA1C4C0CFB0BF7CB
:1018C000B0EBC74072EB573203FB0CF734BFA2EB0F
:1018D000C742B2EBC74261EB57310CFB0EF7B0EBDE
:1018E000C70072EB57720CFB08F734BFA2EBC702BC
:1018F000B2EBC70261EB577115EB4C254FEA8161E2
:1019000041EA92114FEA82624FEAD13742EA9012DD
:1019100006FB07FC44F100044FEA80604FEA1C4CD0
:101920000CFB0BF7D21B03FB0CF761EB07010CFB65
:101930000EF7B0EB074072EB17420CFB08F734BF11
:10194000A2EB0742B2EB074261EB174115EB1C1506
:101950004FEA813141EA92414FEA823242EA9042B3
:101960004FEA80304FEA0C7644F1000448EA034322
:101970004EEA0B484FF0000EB2EB080C71EB030778
:1019800024BF624639464EEB0E0E4FF0000B001896
:10199000524149414BEB0B0BB2EB080C71EB0307C7
:1019A0007BF1000B24BF624639464EEB0E0E4FF022
:1019B000000B0018524149414BEB0B0BB2EB080CEA
:1019C00071EB03077BF1000B24BF624639464EEBF7
:1019D0000E0E51EA020718BF46F0010616EB0E760E
:1019E00055F1000254F1000103D5BDE88901BDE8BD
:1019F0000088BDE88901BDE80048B619524141EBB5
:101A00000101A3F10103704780807F7E7D7C7B7A9A
:101A10007978777676757473727171706F6E6E6D9A
:101A20006C6C6B6A6A696868676666656464636340
:101A300062616160605F5F5E5E5D5D5C5C5B5B5AC6
:101A40005A59595858575756565555555454535333
:101A500052525251515050504F4F4F4E4E4D4D4D8E
:101A60004C4C4C4B4B4B4A4A4A49494948484847D9
:101A70004747474646464545454444444443434317
:101A80004342424242414141002B26D4770021D0BB
:101A90001CB54FEA370703B44FF010004FF01001A8
:101AA0004FF000000FBCBDE810400BF1010BBBF183
:101AB000010F08BF5FEA170722BF12F1010211F1FF
:101AC00001014FF0004143F1000300F0004043EA00
:101AD00000007047F9D35708DAE746EA064613F1E3
:101AE000400F4FEA16461FDD13F1200FDFBF1643EC
:101AF0000A46002120335B42C8D0C3F1200746EAE2
:101B0000064602FA07F74FEA164646EA0706C3F109
:101B1000200722FA03F201FA07F721FA03F14FF046
:101B2000000342EA0702B1E746EA020646EA064631
:101B30004FEA164646EA0106BCBF46EA0646360CA0
:101B40004FF000034FF000024FF000019EE72DE937
:101B5000C048934630B491E8380007C831EA400CD9
:101B600048BF34EA430C03D5FFF7F2FDFFF78CFFC3
:101B7000F0BCBDE800882DE9C048934630B491E838
:101B8000380007C810F0804F08BF13F0804F03D112
:101B900000F005F8FFF778FFF0BCBDE8008820F002
:101BA0007F4780EA030023F07F4C07EB0C03A3F58B
:101BB0007C5300F00040A3F1FE0392F0000F00F010
:101BC000B38095F0000F00F077802DE901494FEACE
:101BD00011404FEA144621EA004800FB06FC24EAC3
:101BE000064708FB06F607FB08F800FB07F718EBAB
:101BF00006484CEB164C4FEA124B18EB07484FEADD
:101C000015464CEB174022EA0B4E0BFB06FC25EA6F
:101C100006470EFB06F607FB0EFE0BFB07F71EEB57
:101C2000064E4CEB164C4FF000061EEB074E4CEBED
:101C3000174B18EB0B0840F1000018EB0E0B58EB9C
:101C4000000840F100008F1A4FF000013CBFC9436B
:101C5000661B14BFB5EB040C00213CBFC943F61B47
:101C60004FEA17444EEA8E0E27EA04454FEA1C4716
:101C700004FB07622CEA074C05FB07F70CFB05F693
:101C800004FB0CFC16EB074642EB174216EB0C4626
:101C900042EB1C421BEB060658EB0202414146EAAE
:101CA0009E0601D5BDE80189B619524141EB0101FB
:101CB000A3F10103BDE801894FEA14454FEA11473A
:101CC00024EA054621EA074C05FB07F406FB07F763
:101CD0000CFB06F105FB0CFC11EB074144EB174430
:101CE0004FEA124711EB0C4144EB1C4422EA074C2B
:101CF00005FB07F206FB07F70CFB06F605FB0CFCE1
:101D000016EB074642EB174216EB0C4642EB1C451E
:101D10006A1854F1000148BF7047B619524141EBAF
:101D20000101A3F10103704795F0000F37D04FEA8E
:101D300011424FEA144721EA024624EA074C02FB0B
:101D400007F106FB07F70CFB06F402FB0CFC14EB97
:101D5000074441EB17414FEA154714EB0C4441EBA4
:101D60001C4125EA074C02FB07F506FB07F70CFBB5
:101D700006F602FB0CFC16EB074645EB174516EB87
:101D80000C4645EB1C42121951F1000148BF704747
:101D9000B619524141EB0101A3F1010370474FEA2B
:101DA00014454FEA114724EA054621EA074C05FB92
:101DB00007F106FB07F70CFB06F24FF0000605FBE8
:101DC0000CFC12EB074241EB174112EB0C4251EBBA
:101DD0001C4148BF7047921841EB0101A3F1010378
:101DE0007047FEE77047000010B55020EFF31184F4
:101DF00080F31188BFF34F8FBFF36F8F012000F086
:101E000083F8012808D1064800220121006806F065
:101E1000C9FF012000F072F884F3118810BD0000A2
:101E20004800002010B55020EFF3118480F3118892
:101E3000BFF34F8FBFF36F8F042000F065F80128C8
:101E400008D1064800220221006806F0ABFF0420FA
:101E500000F054F884F3118810BD00004800002001
:101E600010B55020EFF3118480F31188BFF34F8F2A
:101E7000BFF36F8F082000F047F8012808D106480B
:101E800000220421006806F08DFF082000F036F8DB
:101E900084F3118810BD00004800002010B55020C8
:101EA000EFF3118480F31188BFF34F8FBFF36F8F6F
:101EB000102000F029F8012808D106480022082146
:101EC000006806F06FFF102000F018F884F3118806
:101ED00010BD00004800002010B5402000F014F8AC
:101EE000002807D0044901204860BDE81040402088
:101EF00000F004B810BD0000D000002001490860C7
:101F000070470000143C0140034A0146002012685B
:101F10000A4200D001207047143C014030B51A4AF3
:101F20008379016853B313688B431360111D0B68E9
:101F30000468A3430B60017911440B6804682343D0
:101F40000B60114B083319680468A14319601C1D0C
:101F500021680568A94321604179102905D0114401
:101F60000A68006802430A6030BD196802681143BC
:101F70001960216800680143216030BD0079104478
:101F800002688A43026030BD003C0140014908609C
:101F9000704700000C3C024070B50646002529B190
:101FA000012927D0022928D04FF4407500F080F88D
:101FB00009281ED1124C206820F44070206020684F
:101FC00028432060206820F0F8002060206846F058
:101FD000020108432060206840F48030206000F057
:101FE00067F8216821F002012160216821F0F801E1
:101FF000216070BD4FF48075D8E74FF40075D5E7C8
:10200000103C02400D4909200A68D20301D5012085
:1020100070470A68D20601D5062070470A68D205C3
:1020200001D5022070470A6812F0EF0F01D0072097
:10203000704709688907FBD5082070470C3C0240AF
:102040000248016841F0004101607047103C0240C5
:1020500070B50D46064600F02BF8092813D10A4C3E
:10206000206820F440702060206840F400702060F8
:10207000206840F001002060356000F019F8216808
:1020800021F00101216070BD103C0240054800684C
:10209000002805DA034804490C380160034901604F
:1020A00070470000103C024023016745AB89EFCD2B
:1020B00008B509208DF80000FFF7A4FF8DF8000097
:1020C0009DF800000128F7D09DF8000008BDF0B58C
:1020D000002201274FF0030C0B6807FA02F52B4092
:1020E000AB422CD1066853000CFA03F4A6430660F9
:1020F0000E79D0F800E09E4046EA0E0606600E79A2
:10210000012E01D0022E12D18668A64386604E7938
:10211000D0F808E09E4046EA0E0686604668AE4368
:10212000466045688E799640B6B235434560C568CD
:10213000A543C560CC799C40C3681C43C460521C55
:10214000102AC9D3F0BD4B07DB0E9A40C90810B561
:1021500000EB8100016A0F249C40A1430162016AE7
:102160001143016210BD0246002052690A4200D0AC
:102170000120704701837047FEE7FEE7704700F0DB
:102180001F02012191404009800000F1E020C0F8C9
:102190008011704700F01F0201219140400980002A
:1021A00000F1E020C0F800117047000030B50F23A7
:1021B000C27801780125FAB1144A126801F1E021D0
:1021C00002F4E062C2F5E062C2F30722C2F1040445
:1021D000D3404278A24084781C401443220181F805
:1021E0000024007800F01F018D404009800000F1BC
:1021F000E020C0F8005130BD01F01F0085404809C3
:10220000800000F1E020C0F8805130BD0CED00E00E
:102210000249084302490860704700000000FA05BF
:102220000CED00E070B50025002105F1B00000F0D4
:102230008CF90021084600F088F90021102000F0F8
:1022400084F900240121002000F07FF9641CE4B22D
:10225000802CF7D36D1CEDB2082DE5D370BD10B501
:1022600000218D2000F071F90021102000F06DF99F
:102270000021BDE81040AE2000F067B910B5002184
:102280008D2000F062F90021142000F05EF9002199
:10229000BDE81040AF2000F058B92DE9F0471F46C7
:1022A00090460E4682460025DDF8209011E031462A
:1022B000504600F0ADF8544607E019F8050001213A
:1022C0006D1C00F042F9641CE4B24445F5D3761C61
:1022D000F6B2BE42EBD3BDE8F08700002DE9FC4129
:1022E0000121022000F03EF901248DF80440002570
:1022F00004208DF806500326444F00908DF80560A9
:102300008DF8074069463846FFF7E1FE8DF8044036
:1023100002208DF8065000908DF805608DF807407A
:1023200069463846FFF7D3FEC82003F05FFB002163
:10233000AE2000F00AF90021084600F006F900215D
:10234000102000F002F90021402000F0FEF80021EA
:10235000B02000F0FAF80021812000F0F6F800210A
:10236000FF2000F0F2F80021A12000F0EEF800219B
:10237000A62000F0EAF80021A82000F0E6F80021ED
:102380003F2000F0E2F80021C82000F0DEF8002134
:10239000D32000F0DAF80021084600F0D6F800213A
:1023A000D52000F0D2F80021802000F0CEF80021E6
:1023B000D82000F0CAF80021052000F0C6F800215E
:1023C000D92000F0C2F80021F12000F0BEF8002171
:1023D000DA2000F0BAF80021122000F0B6F800214F
:1023E000DB2000F0B2F80021302000F0AEF8002130
:1023F0008D2000F0AAF80021142000F0A6F800219A
:10240000AF2000F0A2F8BDE8FC810000000402400B
:1024100010B50A460446002102F1B00000F095F81C
:10242000102040EA1410002100F08FF804F00F0093
:10243000BDE81040002100F088B800002DE9F0410F
:1024400015460E460746FFF7E3FF0F48002400EB52
:1024500085150121285D00F078F8641CE4B2102C89
:10246000F7D3761CF1B23846FFF7D2FF00242819C3
:10247000012190F8200000F068F8641CE4B2102CF0
:10248000F5D3BDE8F0810000D0A500082DE9F041AA
:10249000203A00240F468046D5B27F2803D9002079
:1024A0008F1C8046FFB2102B394610D0FFF7B0FFCB
:1024B000164905EB450001EB40050121285D00F0C0
:1024C00044F8641CE4B2062CF7D3BDE8F081FFF7B2
:1024D0009FFF0F4E04EB05100121305C00F035F832
:1024E000641CE4B2082CF5D37F1CF9B24046FFF718
:1024F0008FFF002404EB051030440121007A00F026
:1025000024F8641CE4B2082CF4D3DEE7B89D00087C
:10251000E09F00082DE9F041984617460E46044614
:1025200000250DE0434631462046FFF7AFFF083453
:10253000E4B2782C02D90024B61CF6B26D1CEDB2C0
:102540007A5D002AEED1BDE8F081C0B209B100F099
:102550002ABF00F011BF0000014908627047000067
:1025600000000E42044A0029116801D0014300E036
:10257000814311607047000030380240044A00294E
:10258000116801D0014300E08143116070470000F1
:1025900040380240044A0029116801D0014300E09C
:1025A00081431160704700004438024070B5204BF1
:1025B0001968204C11F00C0104D06610042903D0D6
:1025C000082903D004601BE0066019E0184A121FB6
:1025D0001168C1F38055116801F03F0115B1B6FBD8
:1025E000F1F101E0B4FBF1F114681268C4F388144E
:1025F0006143C2F30142521C5200B1FBF2F101608F
:1026000019680F2202EA11110B4A545C0168E1407B
:1026100041601C68072505EA9424145D21FA04F43E
:1026200084601B6805EA5333D25CD140C16070BD41
:10263000083802400024F400100100200246002067
:10264000510901290BD002290CD00849096802F070
:102650001F02012393400B4200D001207047034921
:102660007439F3E70149091FF0E7000074380240AC
:102670000149086070470000800E47420149086028
:10268000704700003C0E4742C0F30121032907D1E7
:10269000074B1968074A21F4F81102400A431A60EF
:1026A000034968310A68C0F30B0002430A607047AF
:1026B00008380240FFFCFF0F38B50022124C009290
:1026C000CA222260532222600F4A1C3A0029116854
:1026D00002D00143116012E0814311600A4A183AA6
:1026E00095131168009B01EA10215B1C0093AB421B
:1026F00001D00029F5D0116811EA102000D0012086
:10270000FF21216038BD00002428004010B54FF49F
:102710008054204600F092F800280DD0074800228F
:102720002021006806F03EFB204600F02DF86001F5
:10273000BDE81040FFF7E2BB10BD000048000020DC
:10274000010901EB810100F00F0000EB4100C0B274
:102750007047002103E0491C0A38C9B2C0B20A28F8
:10276000F9D2090740EA11607047000080B240F0DA
:102770008000C1430348026802F0800211430160F7
:10278000704700000C280040C0F30F1040F080009C
:10279000C1430348026802F08002114301607047A0
:1027A0000C28004008B50D4900200090086840063C
:1027B00012D44FF0FF3008608B130868009A00F0C5
:1027C0004000521C00929A4201D00028F5D00868BF
:1027D000400601D4002008BD012008BD0C2800409F
:1027E0000248016821F08001016070470C28004018
:1027F000020010B50F480C4601680F4801EA0001BD
:102800004FEA1140E070C1F30423637001F03F030D
:10281000A370C1F3423121700AD1FFF791FFE0703C
:102820006078FFF78DFF6070A078FFF789FFA070D8
:1028300010BD0000042800403FFFFF000B4A0021AC
:10284000126802F00403094A383A126803EAD033E6
:1028500002401A43064B1B6803EA101003D0000421
:10286000000C00D0012108467047000040280040BD
:102870000C280040020010B510480C4601681048B2
:1028800001EA0001C1F305402070C1F30623637023
:1028900001F07F03A3704FF0400303EA1141E170A0
:1028A0000AD1FFF74DFF20706078FFF749FF607095
:1028B000A078FFF745FFA07010BD00000028004081
:1028C0007F7F7F0030B50E4DCA222A6053222A60D6
:1028D0000B4C0B4B1C3C1C33002920F004022168DC
:1028E00000F0040004D0114321601968014303E0A3
:1028F00091432160196881431960FF20286030BD31
:102900002428004070B5124D04460026CA202860D5
:1029100053202860FFF746FFA8B10D481C38016816
:1029200021F04001016001682268114301600848FC
:10293000A168143801600168A28841EA024101607F
:10294000FFF74EFF0126FF202860304670BD0000D3
:102950002428004008B5034901EB8000009000687E
:1029600008BD00005028004070B514460D46264AA8
:102970000021002810684FEA406005D000281CDACA
:102980002078FFF7DDFE19E0002800DBE1702078F9
:10299000FFF7DFFE06046078FFF7DBFE46EA00265D
:1029A000A078FFF7D6FE0643E07846EA0046207B93
:1029B000FFF7CFFE46EA006010E0E170207BFFF7F2
:1029C000BFFEA0782178E27840EA014061780902F0
:1029D00041EA02410843217B40EA0160A168CA2222
:1029E00008436168084308491C310A6053220A60A1
:1029F000B5F5807F04D00A1F1060FF20086070BD0D
:102A0000014A1432F8E700000828004070B50C466F
:102A10000026010060780FD0FFF792FEA078FFF744
:102A20008FFEA078E17840EA0145607821780002C5
:102A300040EA4130054315E0C10603D520F01000FF
:102A40000A306070E078FFF784FE05046078FFF7D5
:102A500080FE45EA0025A078FFF77BFE054320783D
:102A600045EA40350D4CCA20206053202060FFF716
:102A700099FE78B10A480540084820380560FFF7FC
:102A8000AFFE06481C380068800602D400F08AF8C1
:102A900000B10126FF202060304670BD2428004090
:102AA0003FFFFF002DE9F0410C460026234F0100B7
:102AB0002078396832464FEA416104D0002930DA83
:102AC000FFF73EFE2EE0002900DBE270FFF741FE3B
:102AD00005046078FFF73DFE45EA0025A078FFF782
:102AE00038FE0543E07845EA0045144CCA201C3402
:102AF000206053202060FFF755FE68B11048054064
:102B00000E4808380560FFF76BFE3868800602D46F
:102B100000F048F800B10126FF2020603046BDE8F3
:102B2000F081E270A078217840EA01456078E17890
:102B3000000240EA01400543D7E7000008280040B2
:102B40007F7F7F000549CA220A6053220A60034A38
:102B5000103A1060FF2008607047000024280040F1
:102B600070B55020EFF3118480F31188BFF34F8FBD
:102B7000BFF36F8F4FF480452846FFF75FFE0128B3
:102B80000BD1074800221021006806F00BF92846F7
:102B9000FFF7FAFD2802FFF7B1F984F3118870BD41
:102BA0004800002018B50020104B0090CA20186083
:102BB000532018600D491839086820F0A0000860FB
:102BC0004FF400340868009A00F02000521C009274
:102BD000A24201D00028F5D00868800601D5012066
:102BE00000E00020FF21196018BD000024280040EB
:102BF000084ACA2111605321116006491C390B682B
:102C000023F007030B600B6803430B60FF20106089
:102C1000704700002428004018B50021134B009194
:102C2000CA2119605321196010491C39002808680D
:102C300003D040F48060086014E020F480600860F5
:102C40000A4918398C130868009A00F00400521CD5
:102C50000092A24201D00028F5D00868400701D4B4
:102C6000002000E00120FF21196018BD2428004049
:102C700008B5034A02EB80000090016008BD000027
:102C80005028004010B58A0721F003040849120FAC
:102C900021440F23D1F8084893409C43C1F80848C9
:102CA000D1F8083890400343C1F8083810BD00003F
:102CB000003001400CB500222749009201920868BB
:102CC00040F4803008604FF4A043086800F40030FE
:102CD00001900098401C0090019810B9009898420B
:102CE000F3D10868800334D5012001901A484030A0
:102CF000026842F0805202601848026842F4404282
:102D000002601548083002680260026842F400421E
:102D10000260026842F4A0520260031F104A1A6067
:102D20000A6842F080720A600A689201FCD50D4977
:102D300040F205720A60016821F003010160016838
:102D400041F0020101600168C1F381010229FAD159
:102D50000CBD01920CBD0000003802400070004024
:102D600008544007003C024010B5502080F3118801
:102D7000BFF34F8FBFF36F8F06F098FC18B1044973
:102D80004FF080500860002080F3118810BD0000D3
:102D900004ED00E0124810B5016841F470010160D3
:102DA0001048016841F0010101600E4A002108321B
:102DB000116002680C4B1A400260031D0B4A1A6036
:102DC000026822F48022026006480C300160FFF79E
:102DD00071FF03494FF000608039086010BD0000AA
:102DE00088ED00E000380240FFFFF6FE10300024BE
:102DF000F8B55020EFF3118480F31188BFF34F8FA3
:102E0000BFF36F8F01218E07304600F069F801286B
:102E100023D1124D286860B1124801236A46104937
:102E2000006806F013FA40210D48FDF775FD0020FB
:102E300028600021304600F03EF80121304600F0C5
:102E400037F8009838B108494FF080500860BFF358
:102E50004F8FBFF36F8F84F31188F8BD04010020FA
:102E6000330800206400002004ED00E010B50E4C93
:102E70000121204600F034F8012814D10B4A1169D1
:102E80009068814201D0906806E031B1906881423B
:102E900003D10120D060002010612046BDE8104021
:102EA000012100F005B810BD00040040D000002052
:102EB000C943018270470029018802D041F0010115
:102EC00001E021F0010101807047002930F8441F22
:102ED00002D041F4004101E0C1F30E0101807047CE
:102EE00002460020138A92890B4202EA010202D0B4
:102EF000002A00D001207047002A828901D00A43AD
:102F000000E08A438281704770B5028C22F48052BF
:102F10000284058C8288838B0C8823F4E6464FF666
:102F2000FF7303EA0424344325F400568D8903EA31
:102F3000053535434E8803EA06362E43084DA84230
:102F400002D0084DA84205D122F480450A8A03EA3E
:102F500082122A438280848389680164068470BD5A
:102F60000000014000040140016470474162704765
:102F700030B50288164C174DA0420DD0A8420BD098
:102F8000B0F1804F08D0144B984205D0134B9842B3
:102F900002D0134B984203D122F070034A881A439F
:102FA000104B984206D0104B984203D022F4407345
:102FB0000A891A4302804A68C2620A880285A042CE
:102FC00001D0A84201D1897A01860121818230BDD8
:102FD00000000140000401400004004000080040DF
:102FE000000C004000100040001400402DE9F041AA
:102FF0005020EFF3118480F31188BFF34F8FBFF39C
:103000006F8F184D40F225563146284600F0EBF8F8
:10301000012822D1284600F073F91349C0B20A688A
:10302000402A05D20A68114B1344521C0A601870DA
:1030300001218F073846FFF73BFF00213846FFF795
:103040003AFF00213846FFF791FF01213846FFF78C
:1030500032FF3146284600F0AFF884F31188BDE80E
:10306000F08100000010014004010020330800201E
:1030700070B50F4C40F225552946204600F0B3F8B4
:10308000012814D1204600F03BF9C3B2094843702F
:103090008168402905D2826807491144521C826028
:1030A0000B7029462046BDE8704000F085B870BD21
:1030B00000440040D00000209801002070B550204E
:1030C000EFF3118480F31188BFF34F8FBFF36F8F3D
:1030D0000F4D40F225563146284600F084F801286D
:1030E00012D1284600F00CF90A49C0B20A68B2F5BC
:1030F000FF7F05D80A68084B1344521C0A601870F9
:103100003146284600F058F884F3118870BD00005D
:103110000048004000010020F20500202DE9F8439E
:1031200000255020EFF31184009580F31188BFF340
:103130004F8FBFF36F8F1B4F40F2255841463846E3
:1031400000F051F8F8B1384600F0DAF8174EC1B285
:10315000154A70681154401C7060232901D0402822
:103160000DD382F84000124800236A460E490068D9
:1031700006F06CF841210C48FDF7CEFB7560414626
:10318000384600F019F8009838B10A494FF08050DD
:103190000860BFF34F8FBFF36F8F84F31188BDE8D2
:1031A000F883000000140140F20700200401002011
:1031B0004C00002004ED00E00A0A01219140C943BF
:1031C000018070470029818902D041F4005101E05B
:1031D00021F40051818170470246002012880A4282
:1031E00000D00120704770B501F01F0501260024B2
:1031F000C1F3421306FA05F2012B0FD0022B0FD0B8
:10320000838A4FEA11210088134206FA01F600EA88
:10321000060001D000B10124204670BD8389F0E78B
:10322000038AEEE710B5C1F3421301F01F04012138
:10323000A140012B07D0022B07D01430002A0268CE
:1032400005D00A4304E00C30F8E71030F6E78A4373
:10325000026010BD7FB50446008A0D46C98820F47F
:10326000405001432182A08941F20C618843A98822
:103270002A8911436A8902431143A181A08A20F45B
:103280004071A8890843A0826846FFF78FF91A4861
:10329000844202D01948844201D1039800E0029888
:1032A000A189090400EBC00101EB0010296801D5D8
:1032B000490000E08900B0FBF1F06422B0FBF2F1BC
:1032C00009010B096FF018056B4300EB8300A3891C
:1032D0001D044FF0320306D503EBC000B0FBF2F043
:1032E00000F0070005E003EB0010B0FBF2F000F087
:1032F0000F00084320817FBD0010014000140140F1
:103300008088C0F308007047C1F3080181807047CE
:10331000FEE700002DE9F04180460024012003F083
:1033200081FC144E0027C6F88872C6F8847201200A
:1033300002F05EFB0125C4F1070105FA01F010EA75
:10334000080F02D0C6F8845201E0C6F8847201204A
:1033500002F04EFBC6F88852012002F049FBC6F885
:103360008872012002F044FB641C082CE3D3BDE802
:10337000F08100000080404210B5044603F064FC78
:103380007820FFF7C7FF03F097FC0020FFF7C2FF8C
:1033900003F092FC2046FFF7BDFF03F08DFCBDE873
:1033A000104003F06DBC10B5044603F04DFC7820CE
:1033B000FFF7B0FF03F080FC4020FFF7ABFF03F006
:1033C0007BFC2046FFF7A6FF03F076FCBDE810402B
:1033D00003F056BC03B401984100009850EAC120A4
:1033E00018BF04204A0D18BF40F0010040F2FF72E0
:1033F000B2EB515F08BF40F00200012808BF052072
:1034000002B0704730380A2801D2012070470020EE
:10341000704700002DE9F0474C4F0026C7F8B06216
:103420004B4C0125C4F89452C4F8BC52C4F88452E1
:10343000022002F0DBFADFF81C81D8F83002E8B392
:10344000D4F81002D8B3D4F83802C8B3DFF8089122
:10345000D9F81C02A8B3C7F8B052B246C4F89462B7
:10346000C4F8BC52C4F88452022002F0BFFAD8F863
:103470003002464630B3D4F81002E8B3D4F838022C
:10348000D8B3D9F81C02C846C0B3B946C7F8B05281
:10349000C4F894525746C4F8BCA2C4F8845202201F
:1034A00002F0A4FAD6F8300248B3D4F8100238B3C8
:1034B000D4F8380280B3D8F81C0204E024E025E0F8
:1034C00026E027E02AE040B3C9F8B052C4F894528D
:1034D000C4F8BC52C4F88472022002F087FAD6F80D
:1034E000300258B3D4F8100250B3D4F8380248B3BD
:1034F000D8F81C0240B304E012E013E014E015E039
:1035000016E04E20BDE8F0873120FBE73220F9E7D6
:103510003320F7E74120F5E70CE00DE03420F1E738
:103520003520EFE73620EDE74220EBE73720E9E7EB
:103530003820E7E73920E5E74320E3E72A20E1E701
:103540003020DFE72320DDE74420DBE700004342B3
:103550000080414200804242000042427047000029
:103560001CB50AA002F06CFA114C4FF0FF352A4648
:103570006946606D05F0C8FE0128F8D100231A469F
:103580001946E06B05F0B0FDF1E700005B6170707B
:103590005F7461736B5F626565705D206973207233
:1035A000756E6E696E67202E2E2E0D0A00000000CB
:1035B000000000202DED028B92B0584E4FF0FF3BE3
:1035C0000DF11C0905274FF0200A4FF01008CDF827
:1035D00000B0002301224021B06C05F0EBFB400657
:1035E000F5D54FA002F02CFAF06A012868D1B06A34
:1035F0000128FBD1306905F0D7FA0FA802F056FA7E
:10360000010001D04EA083E0142102A8FDF7A6F925
:103610009DF83F0000EE100A9DF83E00F8EE400ACB
:10362000B2EE040A80EE801A00EE900AF8EE600A0C
:1036300031EE208A86ED078A9DF83D0000EE900A63
:103640009DF83C00B8EE601AC1EE000A00EE100AC8
:10365000B8EE400A30EE800A86ED080A10EE100A35
:1036600006F056FA04460D4618EE100A06F050FA17
:1036700041EC100B3EA053EC102BCDE9004502F0BD
:10368000DFF99DF83F309DF83E2042A107A8FCF7E6
:10369000D5FE8DF808708DF809A002208DF80A007B
:1036A000CDF80C908DF8108055464C4600236422CE
:1036B00002A9B06D05F018FD0146012804D000E014
:1036C00028E037A002F0BCF94FF4FA7005F084F856
:1036D000142102A8FDF742F99DF83D309DF83C20E9
:1036E0003EA107A8FCF7AAFE8DF808708DF80950D6
:1036F00006208DF80A0003948DF8108000236422C0
:1037000002A9B06D05F0F0FC0146012802D024A00A
:1037100002F096F9306905F0D1F958E70000002071
:103720005B6170705F7461736B5F6468745D206966
:10373000732072756E6E696E67202E2E2E0D0A0034
:103740005B6170705F7461736B5F6468745D20644B
:10375000687431312072656164206572726F722005
:10376000636F64652069732025640D0A0000000002
:1037700054656D70657261747572653D252E316694
:103780002048756D69646974793D252E31660D0A8E
:103790000000000054656D703D25642E2564000016
:1037A0005B6170705F7461736B5F6468745D2078D7
:1037B000517565756553656E64206F6C6564207323
:1037C0007472696E67206572726F7220636F6465D0
:1037D0002069732025640D0A0000000048756D699A
:1037E0003D25642E25640000ADF5047D00208DF894
:1037F00000026AA002F024F94FF47A7405E070A088
:1038000002F01EF9204602F0F1F802F025FB002834
:10381000F5D1764D01263227CDE981670023642258
:1038200081A9686D05F060FC0146012802D070A0F6
:1038300002F006F94FF0FF342146E86B05F000FE78
:103840000146012802D078A002F0FAF8642002F0C4
:10385000CDF8CDE981670023642281A9686D05F068
:1038600043FC0146012802D061A002F0E9F821469C
:10387000E86B05F0E5FD0146012802D06AA002F0E0
:10388000DFF879A002F0DCF8686905F017F9AE619D
:103890006E46A04642466946E86E05F035FD014693
:1038A000012803D080A002F0CBF8F3E700244FF406
:1038B0000077305D31281FD130194178222967D136
:1038C000C07831281CD010208DF80002002364221B
:1038D00080A9286D05F008FC0146012802D07FA0D0
:1038E00002F0AEF84146A86B05F0AAFD014601289A
:1038F00002D089A002F0A4F8305D322802D021E085
:103900001120E1E730194178222941D1C0783128CE
:103910001CD020208DF800020023642280A9286D8D
:1039200005F0E2FB0146012802D06CA002F088F805
:103930004146A86B05F084FD0146012802D076A01F
:1039400002F07EF8305D332802D021E02120E1E74B
:103950003019417822291BD1C07831281CD0402051
:103960008DF800020023642280A9286D05F0BCFBBD
:103970000146012802D059A002F062F84146A86B26
:1039800005F05EFD0146012802D063A002F058F860
:10399000641CBC428DD37DE74120E1E75B61707020
:1039A0005F7461736B5F657370383236365D2063A8
:1039B000726561746520737563636573730D0A00C6
:1039C0005B6170705F7461736B5F65737038323602
:1039D000365D20657370383236365F6D7174745F92
:1039E000696E6974202E2E2E000000000000002059
:1039F0005B6170705F7461736B5F657370383236D2
:103A0000365D2078517565756553656E6420626515
:103A10006570206572726F7220636F6465206973D0
:103A20002025640D0A0000005B6170705F74617393
:103A30006B5F657370383236365D207853656D6123
:103A400070686F726554616B6520675F73656D5F49
:103A500062656570206572726F7220636F646520A5
:103A600069732025640D0A005B6170705F74617377
:103A70006B5F657370383236365D2065737038322F
:103A8000363620636F6E6E65637420616C6979757C
:103A90006E2077697468206D717474207375636328
:103AA0006573730D0A0000005B6170705F74617371
:103AB0006B5F657370383236365D20785175657589
:103AC0006552656365697665206572726F72206301
:103AD0006F64652069732025640D0A005B61707056
:103AE0005F7461736B5F657370383236365D207852
:103AF000517565756553656E64206C6564207374DB
:103B000072696E67206572726F7220636F646520E0
:103B100069732025640D0A005B6170705F746173C6
:103B20006B5F657370383236365D207853656D6132
:103B300070686F726554616B6520675F73656D5F58
:103B40006C6564206572726F7220636F64652069B2
:103B5000732025640D0A00009AB02AA001F070FFBE
:103B6000314C4FF0FF352A4607A9E06D05F0CCFB3C
:103B70000128F8D12DA001F063FF354802F046FD81
:103B80000790142803D302F095FB0020079005A9A5
:103B90000120FEF72DFE04A90120FEF76BFE9DF823
:103BA00010009DF820309DF812209DF811108DE82E
:103BB0000F009DF816309DF815209DF8171025A0D0
:103BC00001F03EFF9DF817008DF861009DF815008B
:103BD0008DF862009DF816008DF863009DF81000C6
:103BE0008DF864009DF811008DF865009DF81200B5
:103BF0008DF8660004F01EFD07A802F017FD04F022
:103C000039FDB0E75B6170705F7461736B5F666C08
:103C10006173685D206372656174652073756363A9
:103C20006573730D0A000000000000205B61707076
:103C30005F7461736B5F666C6173685D2077616947
:103C4000742067657420646174610D0A00000000CF
:103C5000000001085B6170705F7461736B5F666C7C
:103C60006173685D20B5B1C7B0CAB1BCE43A323007
:103C7000253032782F253032782F253032782025A4
:103C80003032783A253032783A253032782025643F
:103C90000A0000009EB0E6A001F0D2FE0126ED4D24
:103CA0004FF0400A4FF0080B4FF0070932274FF052
:103CB000FF300090002301224FF47031A86C05F012
:103CC00079F80446286904F06FFFE86804F06CFF97
:103CD000E86A002877D1E00375D5032002F0C0FC24
:103CE000DD4801F0ADFE4FF6FF70ADF870001CA886
:103CF00002F04AFE10F0FF0F69D0012002F0B0FC84
:103D0000D6A001F09DFE4FF020088DF80580002020
:103D10008DF806008DF814A0DA488DF815B08DF8EE
:103D2000049004900023642201A9A86D05F0DCF939
:103D30000146012802D0D4A001F082FE4FF47A702F
:103D4000CDE906600023642206A9686D05F0CCF970
:103D50000146012802D0DCA001F072FE4FF0FF31D5
:103D6000E86B05F06DFB0146012802D0E4A001F0EC
:103D700067FE4FF4FA6004F02FFD8DF804908DF883
:103D800005804FF000088DF814A0ED488DF80680EE
:103D90008DF815B004904346642201A9A86D05F082
:103DA000A3F90146012802D0E6A001F049FEC5F8BA
:103DB00030806E63642001F019FE02F0E3FE4FF4E0
:103DC0007A7001F013FEE86A01286CD0C6E0022088
:103DD00002F046FCBDF87010E94801F031FEEE62D9
:103DE0004FF00008C5F8308010206863CDE9066701
:103DF0004346642206A9686D05F076F9014601285C
:103E000002D0B1A001F01CFE4FF0FF31E86B05F0CD
:103E100017FB0146012802D0B9A001F011FE8DF870
:103E20007460002364221DA9A86E05F05DF90146A7
:103E3000012802D0D3A001F003FE4FF0FF31286C1F
:103E400005F0FEFA0146012802D0DCA001F0F8FDE1
:103E500020208DF805008DF806808DF814A0E74825
:103E60008DF815B08DF8049004900023642201A908
:103E7000A86D05F039F90146012802D082A001F0B1
:103E8000DFFD686B8DF824000023642208A9E86D2B
:103E900005F02AF9014601288BD000E003E0D8A004
:103EA00001F0CEFD85E7600425D5032002F0D8FBA4
:103EB000E14801F0C5FD1BA802F0F2FC10F0FF0F75
:103EC00019D1BDF86C10DDA001F0BAFDBDF86C0091
:103ED000401C80B202F03EFC10F0FF0F45D00120E4
:103EE00002F0BEFB642001F081FD02F04BFE4FF4B6
:103EF0007A7001F07BFD200419D5032002F0B0FB9D
:103F000002F0C4FB10F0FF0F4FD0012002F0A8FB1D
:103F1000642001F06BFD02F035FE4FF47A7001F081
:103F200065FD286904F0CAFDE86804F0C7FDA00338
:103F300014D5032002F094FB1BA802F0B1FC10F092
:103F4000FF0F52D0012002F08BFB642001F04EFDE8
:103F500002F018FE4FF47A7001F048FD286904F071
:103F6000ADFDE86804F0AAFDA1E6022002F078FBAE
:103F7000BCA001F065FDCDE906670023642206A917
:103F8000686D05F0B1F80146012802D0BFA001F02C
:103F900057FD4FF0FF31E86B05F052FA014601285A
:103FA000A0D057A001F04CFD9CE7022002F058FB86
:103FB000C4A001F045FDCDE906670023642206A9EF
:103FC000686D05F091F80146012802D03EA001F08D
:103FD00037FD4FF0FF31E86B05F032FA014601285A
:103FE00096D047A001F02CFD92E7022002F038FBAA
:103FF000BDF86C1091A001F023FDCDE90667002308
:10400000642206A9686D05F06FF80146012802D008
:104010002DA001F015FD4FF0FF31E86B05F010FA0F
:104020000146012891D036A001F00AFD8DE700007D
:104030005B6170705F7461736B5F66706D33383392
:104040005D20637265617465207375636365737366
:104050000D0A000000000020ECBA00085B617070DF
:104060005F7461736B5F66706D3338335D207061B0
:104070007373776F72642061757468206661696C10
:104080000D0A0000D0B600085B6170705F74617348
:104090006B5F66706D3338335D207851756575657B
:1040A00053656E64206F6C6564207069637475720B
:1040B00065206572726F7220636F6465206973207A
:1040C00025640D0A000000005B6170705F7461730D
:1040D0006B5F66706D3338335D207851756575653B
:1040E00053656E642062656570206572726F722020
:1040F000636F64652069732025640D0A0000000069
:104100005B6170705F7461736B5F66706D333833C1
:104110005D207853656D6170686F726554616B6581
:1041200020675F73656D5F62656570206572726F91
:104130007220636F64652069732025640D0A000096
:10414000D0B200085B6170705F7461736B5F667002
:104150006D3338335D2078517565756553656E64D0
:10416000206F6C656420737472696E67206572726B
:104170006F7220636F64652069732025640D0A00E7
:10418000A8BA00085B6170705F7461736B5F6670E2
:104190006D3338335D2078517565756553656E6490
:1041A000206D6F746F72206572726F7220636F641E
:1041B000652069732025640D0A0000005B61707042
:1041C0005F7461736B5F66706D3338335D20785355
:1041D000656D6170686F726554616B6520675F73B0
:1041E000656D5F6D6F746F72206572726F722063A0
:1041F0006F64652069732025640D0A00D0B400083F
:104200005B6170705F7461736B5F66706D333833C0
:104210005D2078517565756553656E6420666C61C7
:104220007368206572726F7220636F6465206973B2
:104230002025640D0A00000030BB00085B6170702F
:104240005F7461736B5F66706D3338335D20BBF1F3
:10425000C8A1D6B8CEC6D7DCCAFDA3BA253034640F
:104260000D0A00005B6170705F7461736B5F667054
:104270006D3338335D20D7D4B6AFD7A2B2E1D6B80C
:10428000CEC6B3C9B9A60D0A000000005B6170700C
:104290005F7461736B5F66706D3338335D20785186
:1042A0007565756553656E6420206265657020656F
:1042B00072726F7220636F64652069732025640DCC
:1042C0000A0000005B6170705F7461736B5F667001
:1042D0006D3338335D20C7E5BFD5D6B8CEC6B3C978
:1042E000B9A60D0A000000007CB50024502080F320
:1042F0001188BFF34F8FBFF36F8F554D0BE005EB68
:10430000C101D1E90423CDE900230A89CB684968BA
:1043100005F08CF9641C04EB440155F831000028C9
:10432000EDD180F31188012004F05FFE494C00219B
:104330006064142004F03CFEA0630021142004F00B
:1043400037FEE06300210A2004F032FE206404F00E
:10435000D5FCA06400220121042004F058FE206551
:1043600000220821042004F052FE6065002214217E
:10437000102004F04CFEA06500224121042004F02E
:1043800046FEE06400224C21102004F040FEE0656F
:1043900000220121042004F03AFE20660022402180
:1043A000102004F034FE012160660022084604F06B
:1043B0002EFEA06600224FF40071032004F027FEB9
:1043C000E0660020FEF7C6FA41F26714A04208D06A
:1043D00003F0FEFD01F06EFF21460020FEF748FCD1
:1043E00001E003F06BFE02F0E9FD02F077FD01F061
:1043F000D3FA03F0F5FE01F03BFB02F0EDFC02F016
:1044000077FCFDF76BFF02F091FB02F0EBFEFDF78E
:1044100009FF114800210090082380220846FDF77B
:104420003CFF40F6B83004F0D7F9FDF7FBFE0B482F
:1044300000900823602200212020FDF72EFF00209D
:1044400004F0F0F9BDE87C4005A001F0F9BA0000E5
:10445000089C000800000020D0AE0008D0B2000880
:104460005B6170705F7461736B5F696E69745D200E
:104470006E65727665722072756E20686572650D64
:104480000A00000086B04FF0000866A001F0D8FADC
:104490006C4E6D4D6D4F4FF0FF3A4FF00409CDF863
:1044A00000A0002301220F21A86C04F083FC044625
:1044B000142101A8FCF752FAE00720D00620FDF7EE
:1044C0005EFE322004F088F9D6F8000280B960A0C0
:1044D00001F0B6FAA86804F067FBC5F824804FF431
:1044E0008041A86C04F017FC02E0012004F074F98C
:1044F000D6F800020028F8D00620FDF74BFEA007F2
:104500003CD50820FDF73BFE322004F065F9D7F8D2
:10451000080200282BD155A001F092FAA86804F0F7
:1045200043FBC5F82480E86A18B1E86A012806D080
:104530001DE04FF48031A86C04F0EDFB17E08DF81E
:1045400004900023642201A9A86D04F0CDFD01466A
:10455000012802D04CA001F073FAA86A10B1002023
:10456000A86204E00120FBE7012004F035F9D7F848
:1045700008020028F8D00820FDF70CFE60071DD5C2
:104580000920FDF7FCFD322004F026F9D7F80C02D3
:1045900068B92FA001F054FAC5F824804FF4003117
:1045A000A86C04F0B8FB02E0012004F015F9D7F87C
:1045B0000C020028F8D00920FDF7ECFD20077FF55C
:1045C0006EAF0A20FDF7DBFD322004F005F9D7F8C5
:1045D0001002F0B93BA001F033FA4FF40041A86C8F
:1045E00004F099FBA86804F069FA022068628DF86B
:1045F00004900023642201A9A86D04F075FD014612
:10460000012806D036A001F01BFA02E0012004F0D8
:10461000E3F8D7F810020028F8D00A20FDF7BAFD19
:104620003DE700005B6170705F7461736B5F6B6589
:10463000795D20637265617465207375636365736A
:10464000730D0A00000040420000002000004242BA
:104650005B6170705F7461736B5F6B65795D205334
:10466000312050726573730D0A0000005B61707039
:104670005F7461736B5F6B65795D2053322050729C
:104680006573730D0A0000005B6170705F74617385
:104690006B5F6468745D2078517565756553656EF0
:1046A00064206F6C656420737472696E6720657234
:1046B000726F7220636F64652069732025640D0A30
:1046C000000000005B6170705F7461736B5F6B650D
:1046D000795D2053342050726573730D0A00000019
:1046E0005B6170705F7461736B5F6B65795D20787F
:1046F000517565756553656E64206F6C65642073D4
:104700007472696E67206572726F7220636F646580
:104710002069732025640D0A000000000EB54E20AC
:104720008DF808001AA001F08BF901250A26204C0B
:10473000AF1E02F029FB8DF808004E28F9D0014683
:104740001CA001F07DF90023642202A9206E04F070
:10475000CBFC0146012802D01EA001F071F9CDE981
:104760000056002364226946606D04F0BDFC0146DA
:10477000012802D024A001F063F93946E06B04F06F
:104780005FFE01460128D4D02CA001F059F9D0E7F2
:104790005B6170705F7461736B5F6B62645D2063FB
:1047A000726561746520737563636573730D0A00C8
:1047B000000000205B6170705F7461736B5F6B62FF
:1047C000645D206B626420707265737320256320C2
:1047D0000D0A00005B6170705F7461736B5F6B62E8
:1047E000645D2078517565756553656E64206B62F4
:1047F00064206572726F7220636F64652069732034
:1048000025640D0A000000005B6170705F746173C5
:104810006B5F6B62645D2078517565756553656E7D
:10482000642062656570206572726F7220636F64C8
:10483000652069732025640D0A0000005B617070BB
:104840005F7461736B5F6B65795D207853656D6133
:1048500070686F726554616B6520675F73656D5F2B
:1048600062656570206572726F7220636F64652087
:1048700069732025640D0A0008B500258DF80050E5
:104880001AA001F0DDF8214CDFF88480214E4FF0B2
:10489000FF3901274A466946306D04F035FD01288D
:1048A000F8D19DF80000C10606D5C10702D0C4F8B2
:1048B000A45201E0C4F8A472810606D5C10702D053
:1048C000C4F8A85201E0C4F8A872410607D5C00791
:1048D000404602D0C0F8B45201E0C0F8B4720023E0
:1048E0001A461946B06B04F0FFFBD3E75B617070AA
:1048F0005F7461736B5F6C65645D206973207275B2
:104900006E6E696E67202E2E2E0D0A0000804242C8
:1049100000004242000000200FA001F091F80020AA
:1049200004F042F91AA001F08BF80024E0B202F082
:10493000CFFA142003F050FF641C64B2642CF5DD40
:104940006424E0B202F0C4FA142003F045FF641EB0
:1049500064B2002CF5DAE8E75B6170705F74617334
:104960006B5F6C65645F6272656174685D20637221
:1049700065617465207375636365737320616E642C
:104980002073757370656E642073656C660D0A0024
:104990005B6170705F7461736B5F6C65645F6272A2
:1049A000656174685D20726573756D6520737563EC
:1049B000636573730D0A000013A001F041F81C4EEB
:1049C0001C4D4FF47A7800274FF400792C680A20A8
:1049D00001F00CF8B0690028F8D0002CF6D0286857
:1049E0008442F3D1002342461349F06E04F07CFB6D
:1049F0000146012802D0114801F022F82F604946F3
:104A00000D48FBF789FFE1E75B6170705F746173CC
:104A10006B5F6D6F6E69746F725D20637265617438
:104A2000652073756363657373200D0A00000000D1
:104A30000000002000010020F2050020DCB9000881
:104A400008B5134C4FF0FF3541F288362A466946C7
:104A5000A06E04F059FC0146012803D00DA000F01F
:104A6000EFFFF3E79DF80000012801D102F012FBEF
:104A70009DF80000022801D102F060FB00231A46D5
:104A80001946206C04F030FB304600F0AFFFDDE744
:104A9000000000205B6170705F7461736B5F6D6F0D
:104AA000746F725D207851756575655265636569CF
:104AB00076652075736172745F7061636B657420D5
:104AC0006572726F7220636F64652069732025645C
:104AD0000D0A0000002411A000F0B2FF18A000F0A1
:104AE000AFFF002004F060F81CA000F0A9FF4FF415
:104AF0007A76304603F070FE1F4D02F06DFD02F035
:104B000001FD304600F072FF641C062CF5D3002432
:104B10004021A86C04F0FFF8EFE700005B617070C3
:104B20005F7461736B5F6D7174745D206372656136
:104B3000746520737563636573730D0A000000006C
:104B40005B6170705F7461736B5F6D7174745D2015
:104B500073757370656E640D0A0000005B617070A0
:104B60005F7461736B5F6D7174745D2072657375D2
:104B70006D650D0A000000000000002086B02BA02B
:104B800000F05EFF142101A8FBF7E8FE304C4FF067
:104B9000FF352A4601A9A06D04F0B6FB0128F8D123
:104BA0009DF8040008283CD2DFE800F03B040C3BF1
:104BB0001417212AFDF762FB606803F0F5FF02F08D
:104BC000EBF9E6E7FDF74BFB02F0D4F9606803F080
:104BD00075FFDEE7FDF726FBDBE79DF80C309DF85F
:104BE00006109DF80500029AFDF794FCD1E79DF8A8
:104BF0000D209DF806109DF80500FDF71FFCC8E785
:104C0000049800909DF806109DF815009DF814205A
:104C10000844C3B29DF805000244D2B2FDF73DFB43
:104C2000B7E70CA000F00CFFB3E700005B61707009
:104C30005F7461736B5F6F6C65645D206372656147
:104C4000746520737563636573730D0A000000005B
:104C5000000000205B6170705F7461736B5F6F6C4C
:104C600065645D206F6C6564206374726C20636F93
:104C7000646520697320696E76616C69640D0A0051
:104C80009EB04FF000082427EF4D8DF81480CDF82A
:104C90001880464604244FF0200B4FF00109CDF850
:104CA0001C804FF0FF3205A9286E04F02DFB01286F
:104CB000F7D19DF81400412804D14FF48021A86C4D
:104CC00004F029F89DF81400422804D14FF4001193
:104CD000A86C04F020F89DF81400442804D14FF487
:104CE0000021A86C04F017F89DF81400432803D0A5
:104CF000296B012957D019E1D4A000F0A1FEC5F815
:104D0000309004240026CDF81880CDF81C808DF852
:104D100000402427334664226946A86D04F0E4F974
:104D20000146012802D0D3A000F08AFE05208DF8AC
:104D3000000010208DF808008DF80170DDA08DF8BE
:104D400002400190002364226946A86D04F0CCF96A
:104D50000146012802D0C7A000F072FEE86A0128CF
:104D60009FD1C5F82C8002208DF8740000236422A6
:104D70001DA9A86E04F0B8F90146012802D0CFA001
:104D800000F05EFE4FF0FF31286C04F059FB014645
:104D9000012802D0D74800F053FE4FF40001A86C60
:104DA00003F0B9FF7DE72A2830D0062E4FD206A99E
:104DB0000023885505208DF8000010208DF808008C
:104DC00088198DF801708DF80240019064226946BF
:104DD000A86D04F089F90146012802D0A5A000F0D1
:104DE0002FFE642003F0F8FCC3A00190002364228E
:104DF0006946A86D04F078F90146012802D09DA00B
:104E000000F01EFE0837FFB2761C8FE0002EC9D0DE
:104E100006A8761E083F00F8068005208DF80000E1
:104E20001020FFB28DF808008DF80170B3A08DF846
:104E300002400190002364226946A86D04F054F9F1
:104E400001460128AED08BA000F0FAFD29E7232807
:104E50006CD106A9AAA000F0F3FD062206A9B3486A
:104E6000FBF7C2FC002863D0B1A000F0E9FDC5F853
:104E7000308040208DF810008DF801B08DF8028050
:104E800007208DF800004FF0080AB4488DF811A0F3
:104E90000390002364226946A86D04F025F90146B9
:104EA000012802D0AEA000F0CBFD4FF47A70CDE91E
:104EB0001B90002364221BA9686D04F015F90146BC
:104EC000012802D0B6A000F0BBFD4FF0FF31E86B27
:104ED00004F0B6FA0146012802D0BF4800F0B0FD48
:104EE0004FF4FA6003F078FC072140208DF80010A1
:104EF0008DF810008DF801B0B8480026CDF8188064
:104F0000CDF81C808DF802808DF811A00390242725
:104F1000334664226946A86D04F0E6F8014601288C
:104F200002D054A000F08CFDC5F83490286BB8E690
:104F3000ABA000F085FD4E46C5F82C90C5F830803A
:104F400040208DF8100008208DF801B08DF8110078
:104F50008DF8028007208DF80000AC4803900023F4
:104F600064226946A86D04F0BFF80146012802D00A
:104F70007BA000F065FD1427CDE91B6700236422A8
:104F80001BA9686D04F0B0F80146012802D084A086
:104F900000F056FD4FF0FF3A5146E86B04F050FA2E
:104FA0000146012802D08C4800F04AFD642003F03D
:104FB00013FCCDE91B67002364221BA9686D04F074
:104FC00093F80146012802D075A000F039FD57463C
:104FD0005146E86B04F034FA0146012802D07E48BD
:104FE00000F02EFD8DF87460002364221DA9A86EC8
:104FF00004F07AF80146012802D030A000F020FD2C
:105000003946286C04F01CFA0146012802D03948C0
:1050100000F016FD4FF4FA6003F0DEFBCDF81880C7
:10502000CDF81C802427686B00268DF824003346B9
:10503000642208A9E86D04F057F8014601283FF4FE
:1050400073AF73A06EE70000000000205B6170701A
:105050005F7461736B5F706173735F6D616E5D2010
:1050600070617373776F72642072657365740D0A73
:10507000000000005B6170705F7461736B5F706152
:1050800073735F6D616E5D207851756575655365ED
:105090006E64206F6C656420737472696E6720653E
:1050A00072726F7220636F64652069732025640DCE
:1050B0000A0000002D2D2D2D2D2D00005B6170703C
:1050C0005F7461736B5F706173735F6D616E5D20A0
:1050D00078517565756553656E64206D6F746F7278
:1050E000206572726F7220636F646520697320257A
:1050F000640D0A0064BA00082A0000002D000000B8
:105100005B6170705F7461736B5F706173735F6D0F
:10511000616E5D2061757468206B657920627566CB
:10512000206973202536730D0A000000009C0008DA
:105130005B6170705F7461736B5F706173735F6DDF
:10514000616E5D2070617373776F72642061757436
:1051500068206661696C0D0A00000000D0B6000886
:105160005B6170705F7461736B5F706173735F6DAF
:10517000616E5D2078517565756553656E64206F4D
:105180006C65642070696374757265206572726FF6
:105190007220636F64652069732025640D0A000026
:1051A0005B6170705F7461736B5F706173735F6D6F
:1051B000616E5D2078517565756553656E6420621A
:1051C000656570206572726F7220636F6465206917
:1051D000732025640D0A000020BA0008D0B2000830
:1051E0005B6170705F7461736B5F706173735F6D2F
:1051F000616E5D2070617373776F72642061757486
:105200006820737563636573730D0A00D0B400087A
:105210005B6170705F7461736B5F706173735F6DFE
:10522000616E5D2078517565756553656E642066A5
:105230006C617368206572726F7220636F646520A1
:1052400069732025640D0A008EB000250295039530
:10525000049535A0059500F0F3FB404EB06803F0CF
:10526000A3FC3FA000F0ECFB6F1E0097002301227F
:105270003021B06C03F09EFD0446C0064ED5029569
:10528000039504950595706A022815D10CA9012093
:10529000FDF7F0FA029505959DF832000090039510
:1052A00004959DF831309DF8302035A102A8FBF718
:1052B000C5F820208DF81900706A012817D10BA9B4
:1052C000FDF796FA9DF82C1005959DF82E00CDE976
:1052D00000010295039504959DF82D309DF82F202F
:1052E0002BA102A8FBF7AAF80F208DF819000520C2
:1052F0008DF8180004208DF81A0002A807901020DD
:105300008DF820000023642206A9B06D03F0ECFEA6
:105310000146012802D023A000F092FBA006A4D5EC
:105320002FA000F08DFBA0E75B6170705F7461736C
:105330006B5F7274635D2063726561746520737561
:10534000636365737320616E642073757370656E3B
:10535000642073656C660D0A0000000000000020E8
:105360005B6170705F7461736B5F7274635D2072F8
:105370006573756D6520737563636573730D0A00DE
:10538000253032783A253032783A253032780000AC
:105390003230253032782D253032782D2530327854
:1053A0002D2564005B6170705F7461736B5F727454
:1053B000635D2078517565756553656E64206F6C0B
:1053C000656420737472696E67206572726F7220F3
:1053D000636F64652069732025640D0A0000000076
:1053E0005B6170705F7461736B5F6B65795D20C426
:1053F000D6D6D3BBBDD0D1C1CB0D0A00344F86B0B9
:105400004FF4BE764FF4C8754FF4FA7831A000F02F
:1054100017FB02F0ABFE0446014637A000F010FB7C
:10542000AC420EDD02208DF804000023642201A9A5
:10543000B86D03F059FE0146012802D032A000F0F9
:10544000FFFA143CB4423ED801208DF8040000233A
:10545000642201A9B86D03F047FE0146012802D07D
:1054600029A000F0EDFAF86A00282CD14FF4801141
:10547000B86C03F050FC33A000F0E2FA4FF0FF30BC
:105480000090002301224FF44001B86C03F092FC1D
:10549000044640020FD502F069FEA0F11401B142AA
:1054A00003D834A000F0CCFA01E0A84203DC404667
:1054B00000F09CFAEFE7200205D539A000F0C0FA11
:1054C000404600F093FA404600F090FA9EE7000054
:1054D000000000205B6170705F7461736B5F7372BA
:1054E00030345D2069732072756E6E696E67202E90
:1054F0002E2E0D0A0000000064697374616E6365EE
:10550000203D2025640D0A005B6170705F7461733B
:105510006B5F737230345D207851756575655365C6
:105520006E64206F6C656420737472696E672065A9
:1055300072726F7220636F64652069732025640D39
:105540000A0000005B6170705F7461736B5F73725F
:1055500030345D20784576656E7447726F75705390
:1055600065744269747320776169742E2E2E0D0A5A
:10557000000000005B6170705F7461736B5F737239
:1055800030345D20C8CBC1B3CAB6B1F0B3C9B9A637
:10559000C1CB2CC7EBBFAAC3C52E2E2E0D0A00000F
:1055A0005B6170705F7461736B5F737230345D2028
:1055B000C8CBC1B3CAB6B1F0CAA7B0DCD4D9B4CE97
:1055C000B4A5B7A2C8CBC1B3CAB6B1F02E2E2E0D6A
:1055D0000A00000094B04FF000088DF84C8081A0C4
:1055E00000F02EFA884C4FF0FF3988A000F028FA1E
:1055F0004A466946E06C03F087FE0146012803D065
:105600008BA000F01DFAF0E7694699A000F018FAA7
:105610009FA16846FBF7D6F818B14021A06C03F0B3
:105620007AFB9DA16846FBF7CDF800282FD09DA1FD
:105630006846FBF7C1F89BA10020FBF7BDF8FBF71C
:10564000ADF802F027FE054696A10020FBF7B4F85E
:10565000FBF7A4F802F01EFE074692A10020FBF71C
:10566000ABF8FBF79BF802F015FE06468EA1002072
:10567000FBF7A2F8FBF792F802F00CFE02462B466D
:105680003146384602F060FC88A000F0D9F990A1BC
:105690006846FBF797F8002833D082A16846FBF7ED
:1056A0008BF880A10020FBF787F8FBF777F8A0F5CF
:1056B000FA6002F0EFFD8DF84B007AA10020FBF7B5
:1056C0007BF8FBF76BF802F0E5FD8DF8490075A15A
:1056D0000020FBF771F8FBF761F802F0DBFD8DF8B5
:1056E0004A0070A10020FBF767F8FBF757F802F0BB
:1056F000D1FD8DF8480012A90120FDF787F977A0A8
:105700003BE07FA16846FBF75DF8002838D065A133
:105710006846FBF751F863A10020FBF74DF8FBF753
:105720003DF80C2802D28DF8478002E040218DF828
:1057300047100A21B0FBF1F201FB1202B0FBF1F0BD
:1057400002EB00108DF8440056A10020FBF734F85E
:10575000FBF724F802F09EFD8DF8450052A10020D1
:10576000FBF72AF8FBF71AF802F094FD8DF84600D3
:1057700011A90120FDF796F964A000F061F926E077
:105780006BA16846FBF71EF8002820D0206B01288B
:105790001DD167A16846FBF70FF80646014667A0D2
:1057A00000F04EF90220606300250023705D8DF843
:1057B0004C00642213A9206E03F096FC01460128D8
:1057C00002D067A000F03CF96D1C082DEDD371A14B
:1057D0006846FAF7F7FF00283FF415AF142000F0F1
:1057E00077FD02E75B6170705F7461736B5F757367
:1057F0006172745D206372656174652073756363A3
:105800006573730D0A000000000000205B6170707A
:105810005F7461736B5F75736172745D207761692A
:105820007420696E666F202E2E2E0D0A0000000077
:105830005B6170705F7461736B5F75736172745DCF
:105840002078517565756552656365697665207563
:10585000736172745F7061636B6574206572726FDF
:105860007220636F64652069732025640D0A00004F
:105870005B6170705F7461736B5F75736172745D8F
:10588000207265637620646174613A25730D0A00A5
:1058900054454D503F230000414C41524D2053454B
:1058A000540000002D000000230000005B617070B8
:1058B0005F7461736B5F75736172745D2072746382
:1058C0002073657420616C61726D206F6B0D0A002E
:1058D0004441544520534554000000005B61707002
:1058E0005F7461736B5F75736172745D2072746352
:1058F000207365742064617465206F6B0D0A00006D
:1059000054494D4520534554000000005B617070C0
:105910005F7461736B5F75736172745D2072746321
:10592000207365742074696D65206F6B0D0A00002B
:105930005041535320554E4C4F434B005B617070A8
:105940005F7461736B5F75736172745D2072656300
:10595000762070617373203A25730D0A00000000F1
:105960005B6170705F7461736B5F75736172745D9E
:105970002078517565756553656E64206B6264208F
:105980006572726F7220636F64652069732025648D
:105990000D0A00004C4F47001CB501212020FCF7E8
:1059A000E1FD4FF48070009001208DF80400002488
:1059B0008DF8064003218DF805108DF80700694623
:1059C0000348FCF784FB0348C0F8A0421CBD00005C
:1059D0000014024000804242002203E010F8013B24
:1059E0001A4492B2491EF9D21046704702F0F4BE32
:1059F0002DE9F0414FF0E0280024D8F814700E4A49
:105A00000E4BD8F818501268B2FBF3F6464303F079
:105A100029F941468869A842FCD002D2A5EB0002D0
:105A200002E0A7EB00022A4414440546B442F1D335
:105A3000BDE8F04103F06CBFA000002040420F0021
:105A40000FB44FF0FF3170B5084D05AC686C03F032
:105A5000F7FC21460498FAF7DFFC00231A461946A2
:105A6000686C03F041FB70BC5DF814FB0000002083
:105A700010B501214020FCF775FD09484FF4007175
:105A8000012401600471847100214171C1710146DA
:105A90000448FCF71CFB0448C0F8A44210BD0000F9
:105AA000B400002000180240000043422DE9F05FDE
:105AB000464D4FF4007B4FF0010AC5F800B00024BA
:105AC00085F804A085F806A080466C7157462646E6
:105AD000EC7129463E48FCF7FAFADFF8F890C9F86D
