:020000040800F2
:100000009837012065030008131E00080F1E000822
:10001000111E0008871A0008DD2E000800000000ED
:10002000000000000000000000000000A502000821
:10003000891A00080000000001030008FD290008DB
:100040007F0300087F0300087F030008F5270008EE
:100050007F0300087F0300088D1A00087F03000853
:10006000C91A0008051B0008411B00087F0300088F
:100070007F0300087F0300087F0300087F03000858
:100080007F0300087F0300087F0300087F03000848
:100090007F0300087F0300087F0300087D1B000822
:1000A0007F0300087F0300087F0300087F03000828
:1000B0007F030008852A00087F0300087F030008EB
:1000C0007F0300087F0300087F0300087F03000808
:1000D0007F030008012C00089D2C0008E92C000873
:1000E0007F030008A12300087F0300087F030008A6
:1000F0007F0300087F0300087F0300087F030008D8
:100100007F0300087F0300087F0300087F030008C7
:100110007F0300087F0300087F0300087F030008B7
:100120007F0300087F0300087F0300087F030008A7
:100130007F0300087F0300087F0300087F03000897
:100140007F0300087F0300087F0300087F03000887
:100150007F0300087F0300087F0300087F03000877
:100160007F0300087F0300087F0300087F03000867
:100170007F0300087F0300087F0300087F03000857
:100180007F0300087F03000800F002F800F07BF80E
:100190000AA090E8000C82448344AAF10107DA45E2
:1001A00001D100F070F8AFF2090EBAE80F0013F0B9
:1001B000010F18BFFB1A43F001031847FC9F000012
:1001C0001CA000000A444FF0000C10F8013B13F093
:1001D000070408BF10F8014B1D1108BF10F8015BA0
:1001E000641E05D010F8016B641E01F8016BF9D193
:1001F00013F0080F1EBF10F8014BAD1C0C1B09D1EA
:100200006D1E58BF01F801CBFAD505E014F8016B5B
:1002100001F8016B6D1EF9D59142D6D370470000ED
:100220000023002400250026103A28BF78C1FBD8FF
:10023000520728BF30C148BF0B607047662907F0DE
:10024000E487642900F02081782900F0598163292E
:1002500000F0C385732900F0C885002070471FB5E2
:1002600007F0CEFF00F070FE04000020002107F030
:10027000CDFE401C60600020002107F0B1FEE06070
:100280001FBD10B510BD00F0C9FF1146FFF7E7FF15
:1002900005F0DAFC00F0F5FF03B4FFF7F2FF03BC52
:1002A00002F042FF2C4B19680868B0E8F04F80F369
:1002B0000988BFF36F8F4FF0000080F311887047FB
:1002C0000000000008480068006880F308884FF0CC
:1002D000000080F3148862B661B6BFF34F8FBFF39E
:1002E0006F8F00DF00BF00BF08ED00E0DFF80C00FB
:1002F000016841F470010160704700BF88ED00E0C3
:10030000EFF30980BFF36F8F134B1A681EF0100FC5
:1003100008BF20ED108A20E9F04F106009B44FF0BB
:10032000500080F31188BFF34F8FBFF36F8F06F03B
:100330004DFF4FF0000080F3118809BC1968086870
:10034000B0E8F04F1EF0100F08BFB0EC108A80F339
:100350000988BFF36F8F7047E4000020EFF305803A
:10036000704700000948804709480047FEE7FEE75C
:10037000FEE7FEE7FEE7FEE7FEE7FEE7FEE7FEE755
:1003800004480549054A064B70470000292A000821
:100390008901000898310120983701209833012005
:1003A00098330120704700000FB4044910B503AA28
:1003B000029800F01FFD10BC5DF814FBD000002077
:1003C0000FB41CB5074B06AA7B44694600900598FC
:1003D00000F0E1FC0020694600F0F0FC1CBC5DF878
:1003E00014FB0000F109000070B50446856900683F
:1003F000C10601D5302600E02026C00707D070BD19
:10040000D4E9012130469047206A401C20626D1ECD
:10041000F6D570BD70B5044685690078C00707D170
:1004200070BDD4E9012120209047206A401C206241
:100430006D1EF6D570BD70B50C460546012A05D077
:100440002878800600D5EA69002302E0012305E050
:100450005B1C934202D2E05C0028F9D1A869E6183F
:10046000C01AA861286A184428622846FFF7BCFF12
:1004700004E0D5E9012114F8010B9047B442F8D308
:100480002846FFF7C7FF70BD2DE9F041064600245E
:1004900010687529314616A510D0AFF300800028EA
:1004A00002DA404213A507E031688A0701D512A598
:1004B00002E0490704D511A5012401E0AFF3008053
:1004C00000210A2206F1240709E0B0FBF2FCB0FB90
:1004D000F2F302FB1C00303078541846491C002807
:1004E000F3D123462A463046BDE8F04100F0E8B992
:1004F000000000002D0000002B0000002000000084
:1005000070B504460D4621461068AFF3008021887F
:10051000090502D50F4A7A4402E00E4A7A440E32A7
:10052000002104F1240305E000F00F060009965DA8
:100530005E54491C0028F7D120780023000704D519
:10054000702D02D009B1022311322046BDE870405F
:1005500000F0B6B9969900002DE9F05F894604468F
:100560004FF0000ADFF874B1FB44C0F820A0204629
:10057000E1688847002874D0252806D0D4E90121F5
:100580009047206A401C2062F1E700265F46204623
:10059000E16888472028054607DB312D05D2781908
:1005A00010F8200C08B10643F1E7B00701D526F09A
:1005B0000406C4F81CA00027C4F818A02A2D09D0EE
:1005C000284602F005FD38B304EB8708303DC8F833
:1005D000185019E059F8041B204604EB870291617A
:1005E000E1688847012F054618D1E069002820DA24
:1005F00026F020061DE0D8F8180000EB800005EB7F
:1006000040003038C8F818002046E16888470546A1
:1006100002F0DEFC0028EED1012F0AD02E2D08D1E9
:100620002046E16888477F1C0546022F46F02006D9
:10063000C4DBA069002803DA404246F00106A0614D
:10064000F00701D026F010066C2D0BD0682D09D0D4
:100650004C2D39D06A2D35D0742D35D07A2D33D02C
:1006600016E038E0E1682F4620468847B842054644
:1006700009D16C2F26D04FF48060E16806432046F4
:100680008847054604E06C2F1AD04FF4807006436B
:100690000DB3A5F14100192802D8203546F40066B3
:1006A0004A462946204626604E46FFF7C7FD80B1E0
:1006B00001280BD0F61D26F0070000F1080956E7C7
:1006C0004020E4E78020D8E70020D6E706F10409BF
:1006D0004DE7284652E7206ABDE8F09F6C9900007C
:1006E00070B5064600F0E8F80468054630460A2270
:1006F000002100F091FB2C6070BD0000014A00F069
:10070000C3BB00005801002030B505460B462A4601
:1007100013F8014B12F8010B08B1A042F8D01CB13C
:10072000002802D06D1CF1E7284630BD40EA0103E5
:1007300010B59B070FD1042A0DD310C808C9121F8A
:100740009C42F8D020BA19BA884201D9012010BDC4
:100750004FF0FF3010BD1AB1D30703D0521C07E091
:10076000002010BD10F8013B11F8014B1B1B07D1F5
:1007700010F8013B11F8014B1B1B01D1921EF1D166
:10078000184610BD032A40F2308010F0030C00F030
:10079000158011F8013BBCF1020F624498BF11F8BB
:1007A00001CB00F8013B38BF11F8013BA2F1040274
:1007B00098BF00F801CB38BF00F8013B11F00303EC
:1007C00000F08483083AC0F0088051F8043B083AEE
:1007D00051F804CBA0E80810F5E7121D5CBF51F8F2
:1007E000043B40F8043BAFF30080D20724BF11F86C
:1007F000013B11F801CB48BF11F8012B24BF00F8D1
:10080000013B00F801CB48BF00F8012B704702F014
:10081000FF0343EA032242EA024200F002B84FF02B
:1008200000020429C0F0128010F0030C00F01B80BD
:10083000CCF1040CBCF1020F18BF00F8012BA8BFCB
:1008400020F8022BA1EB0C0100F00DB85FEAC17C8F
:1008500024BF00F8012B00F8012B48BF00F8012B42
:1008600070474FF0000200B5134694469646203973
:1008700022BFA0E80C50A0E80C50B1F12001BFF459
:10088000F7AF090728BFA0E80C5048BF0CC05DF8BF
:1008900004EB890028BF40F8042B08BF704748BF0D
:1008A00020F8022B11F0804F18BF00F8012B704781
:1008B00070477047704770470048704738310120D3
:1008C0002DE9F0470D4699469246044600F124086A
:1008D0000168880604D5E06921F01001216000E07C
:1008E0000120A84201DD471B00E00027A1697A1919
:1008F00002EB0900081AA0612078C00602D4204645
:10090000FFF772FD002608E0D4E901211AF806007D
:100910009047206A401C761C20624E45F4DB20780C
:10092000C0060AD52046FFF75FFD06E0D4E90121A5
:1009300030209047206A401C2062381EA7F1010732
:10094000F4DC07E0D4E9012118F805009047206A9B
:10095000401C2062281EA5F10105F3DC2046FFF7AC
:1009600059FD2078000602D50220BDE8F08701205D
:10097000FBE770472DE9FF4F0C461E464FF0FF374F
:100980008BB0D2E90001DDF860800A908A46C1F39D
:100990000A5505B93D46002108464FF00000BAF15E
:1009A000000F00F4400005DA00EB80004FF4400136
:1009B00001EA50004FEA9059B9F1010F00DDB94644
:1009C0000A9850EA4A000ED044F61050A5F2FF35BE
:1009D00045432F14B8F1000F1ED07542291E1EDDAD
:1009E000C9F100021CE0B8F1010F4FF0000001D086
:1009F000302103E0F24305E02154401CB042FBDB10
:100A000030460022002121540B99C1F80880C1E929
:100A100000200FB0BDE8F08FBD1B6D1CDEE74A461D
:100A200000DA694206A800F069FB06AB93E807000C
:100A300003AB83E8070050460A9900F069FC8DE893
:100A40000700A0F500501F3800900398002D09DD25
:100A500042F21F014A46084403A90390684600F089
:100A6000C8FE08E0A0F500504A461F3803A90390CD
:100A7000684600F0D2FE8DE807000004000C03D0A9
:100A80004FF0FF30410800E01046B8F1000F03D0EE
:100A90000022009215461EE0751E05D400F058FA9B
:100AA000303262556D1EF9D5B3460122084302D09B
:100AB00000227F1C04E02078302801D100227F1E14
:100AC000002A099786D01DE0112D07DA00F040FAC0
:100AD000303262556D1C50EA0102F5D1084302D054
:100AE0000098C8B10EE00021681E05E0235C625C3E
:100AF00063542254401E491C8142F7DBAB46A81BBD
:100B0000401E0990002004F80B000B98099AC0F8C9
:100B10000880C0E9002B7CE711264FF0000859E758
:100B20002DE9F04F88460446D21D22F0070191B00E
:100B3000D1E90001CDE90A0102F032FA02460B9830
:100B4000C00F01D02D2007E02068810701D52B20A0
:100B500002E0202101EAC000032A099001D0072AFF
:100B600005DB03464146204600F038FA0BE12078C9
:100B7000800601D5E06900E00620B8F1650F8146E6
:100B800006D0B8F1660F18D0B8F1670F70D131E018
:100B90000020B9F1110F009001DB112301E009F1F0
:100BA00001030AAA01A90CA8FFF7E4FEDDE90C7015
:100BB000002609F10105834647E001204B460090DD
:100BC0004FF000470AAA01A90CA8FFF7D3FEDDE900
:100BD0000DB00C995D46002610B909F101000D1801
:100BE000B9EB050003D4C0F1FF3609F10105A5EB0F
:100BF00009002BE0B9F1010F01DA4FF001090020E3
:100C0000B9F1110F0090484601DD112300E00346C1
:100C10000AAA01A90CA8FFF7ADFEDDE90C704D464C
:100C200000268346207800070AD4AB4500DA5D46EB
:100C300001A8012D04DD411911F8011C302907D04C
:100C40004F4502DA17F1040F04DA012082460FE063
:100C50006D1EEEE7002F02DCED1B3E4403E0781C26
:100C6000A84200DD7D1CB81B00F1010A4FF00047CF
:100C70002078000703D4AA4501DB4FF0FF3A00219A
:100C8000B7F1004F0DF143088DF8431024D0022036
:100C90002B23002F01DA7F422D230A21021EA0F10F
:100CA000010000DC5FB197FBF1FC97FBF1F201FB67
:100CB0001C7C17460CF1300C08F801CDEEE7A8F1CA
:100CC000010003702188090501D5452100E0652157
:100CD000A0F1010800F8011C09980FA9A1EB080771
:100CE000FF1D00B10120411901EBEA70A1693844F0
:100CF000081A401EA0612078C00602D42046FFF7E3
:100D000073FB099828B1D4E901219047206A401C5F
:100D100020622078C00622D52046FFF765FB1EE042
:100D2000002E04DBB34502DD01A8805D00E0302029
:100D3000D4E901219047206A401C2062761CAAF168
:100D400001005FEA000A0AD100F0FEF8C0680168FD
:100D5000405CD4E901219047206A401C2062281E93
:100D6000A5F10105DCDC07E0D4E9012118F8010B4D
:100D70009047206A401C2062381EA7F10107F3DC6F
:100D80002046FFF747FB032011B043E601694A1CE8
:100D900002610878704700B58FB0CDE901310021BC
:100DA000059105497944CDE9031011466846FFF7DE
:100DB000D3FB0FB000BD0000E5FFFFFF0A6802F89B
:100DC000010B0A60704710B5436913B1AFF300809F
:100DD00001E0FFF730FB012010BD127800F1240183
:100DE0000A7000224A700122EDE711684FF0FF32CD
:100DF000E9E70000074B70B50D467B44FFF7CBFFDA
:100E00000446284600F0E8F910B14FF0FF3070BDFD
:100E1000204670BD3B4A00002DE9F04791460F4641
:100E200080460446002614F8015B2DB100F084F8DA
:100E30000068405DC007F6D12B2D02D02D2D18D0B3
:100E4000641E4A463946204600F008F927B1396841
:100E5000A14201D1C7F800804FF0020471050BD503
:100E60004042002803DDFFF727FD0460A007BDE82E
:100E7000F08746F48066E4E70028F8DAFFF71CFD07
:100E800004606FF00040F2E72DE9F04115460E4690
:100E9000040002D12C6804B90BA4204600F0B0F97C
:100EA0000444207870B127463146384600F098F95E
:100EB0000444207810B1002004F8010B38462C605F
:100EC000BDE8F0810027F9E70000000010B5203AE6
:100ED000C0F00B80B1E81850203AA0E81850B1E8F3
:100EE0001850A0E81850BFF4F5AF5FEA027C24BFA9
:100EF000B1E81850A0E8185044BF18C918C0BDE8A0
:100F000010405FEA827C24BF51F8043B40F8043B68
:100F100008BF7047D20728BF31F8023B48BF11F81D
:100F2000012B28BF20F8023B48BF00F8012B704777
:100F3000004870473831012010B500F005F8001D59
:100F400010BD00BFC9700000004870475831012033
:100F500030B5B0F10A024FEA900E71F100034EEA8B
:100F6000817EB0EB0E0061EB91014FEA101E4EEA5C
:100F7000017E10EB0E0041EB11114FEA102E4EEAEC
:100F8000016E10EB0E0041EB11214FEA104E4EEABC
:100F9000014E10EB0E0041EB1141401841F10001F0
:100FA0004FEAD00040EA41704FEAD10110EB8005D2
:100FB0004FEA810444EA907444EB01046D1944EB58
:100FC0000404521BA3414FF0000348BF0A3200D56E
:100FD00030BD401C41F1000130BD00002DE9F04161
:100FE0001F46044603260168072A01F4006004DB5B
:100FF00008B116A505E016A503E008B115A500E0A7
:1010000015A521F010002060A069C01EA0610FB1DD
:10101000401EA0612046FFF7E7F94FB1D4E9012156
:1010200038469047206A401C2062C01C206206E0BF
:10103000206AFAE7D4E9012115F8010B9047761EE2
:10104000F8D22046FFF7E6F9BDE8F0814E414E00A8
:101050006E616E00494E4600696E66002DE9F05FD4
:10106000824615468B4600270AF10104B9460078EE
:10107000302801D09DB113E014F8010B0127782826
:1010800003D0582801D045B10AE00DB1102D07D189
:10109000002714F8010B102502E0082500E00A25BE
:1010A0000026B0460EE005FB080005FB06F101270F
:1010B0001FFA80F801EB1046B6F5803F00D3B94621
:1010C00014F8010B294600F0CEF80028EBDABBF14A
:1010D000000F05D00FB1641E00E05446CBF800406D
:1010E000B9F1000F06D0FFF7E7FB02210160C81E2F
:1010F000BDE8F09F48EA0640FAE700002DE9F04716
:10110000814616468AB0334878440DC88DE80D00F4
:1011100030487844801C03AC0DC884E80D0041F6CB
:101120009B300844372190FBF1F290FBF1F5A5F1DB
:10113000800501FB12041B3C02D56442012000E043
:101140000020DFF890A080460027FA44AAF1BE0AEA
:101150000DE0E00709D03246684607EB47010AEB8D
:10116000810100F05AFB8DE8070064107F1C002C01
:10117000EFD1184F7F44AC3F18E0E80714D007EBDD
:1011800004100DF1180A90E80E008AE80E00C068FD
:10119000F04201D198190890324606A903A800F040
:1011A0003CFB03AB83E807006D10641C002DE4D109
:1011B00032466946B8F1000F03A802D000F019FBCF
:1011C00001E000F02AFBC9E90001C9F808200AB0D3
:1011D000BDE8F0875C8E0000007B00F08000704767
:1011E00030B503461D781DB10A4603E0AC4201D17B
:1011F000181A30BD12F8014B002CF7D15B1CF1E737
:1012000030B503461D783DB10A4612F8014B1CB1BA
:10121000AC42FAD15B1CF5E7181A30BD7546FFF7F2
:1012200087FEAE4605006946534620F00700854616
:1012300018B020B5FFF7A4F8BDE820404FF0000635
:101240004FF000074FF000084FF0000B21F00701AE
:10125000AC46ACE8C009ACE8C009ACE8C009ACE8F1
:10126000C0098D4670473A2800D2303820F020025D
:10127000412A01D3A2F13700884201D34FF0FF3059
:1012800070470446AFF300802046FFF705F80000E2
:101290004FF0013C50F8042B51F8043B9A4221D105
:1012A000A2EB0C03934313EACC1317D150F8042B91
:1012B00051F8043B9A4215D1A2EB0C03934313EA75
:1012C000CC130BD150F8042B51F8043B9A4209D1AE
:1012D000A2EB0C03934313EACC13DBD04FF00000D6
:1012E000704700BFD01A01BAB1FA81F101F01801BC
:1012F00022FA01F0CB40C1F12001DBB2C0B2C01A2A
:101300002CFA01F3D11A914311EAC311E6D17047C7
:101310005FEA400C08BF91F0000F4FEA8C234FEAC0
:10132000C12243EA51514FEA1C5018BF00F5F0406A
:101330004FEA300018BF41F000415FEA6C5C00F0FA
:101340002980BCF1FF3F08BF40F080407047130C7C
:1013500006BF12044FF0100C4FF0000C130E04BF28
:1013600012020CF1080C130F04BF12010CF1040C53
:10137000930F04BF92000CF1020CD30F04BF520074
:101380000CF1010C11464FF00002A0F11F00A0EB80
:101390000C00704711F0004F08BF704731F000415A
:1013A0003FF4D5AF0B0C06BF09044FF0100C4FF003
:1013B000000C0B0E04BF09020CF1080C0B0F04BF4C
:1013C00009010CF1040C8B0F04BF89000CF1020C15
:1013D000CB0F04BF49000CF1010CCCF12003A0EBB2
:1013E0000C0022FA03F302FA0CF241EA030100F1C5
:1013F0000100704720F07F4C80EA030023F07F4714
:10140000ACEB070303F57C5300F0004003F1FF034E
:101410002DE980494FEA154B09B44FEA144325EAF8
:101420000B4E24EA03480FF2042606EB1327490863
:101430003E785FEA320203FB0667C7F5000707FB49
:1014400006F64FEA54374FEAD64606F1020607FB86
:10145000066CCCF1005C4FEA1C472CEA074C07FBFA
:1014600006F40CFB06F504EB15464FEA961634BF5E
:1014700000204FF000404FEAD13706FB07FC4FEA4F
:101480001C4C0CFB0BF7D21B03FB0CF761EB0701A9
:101490000CFB0EF7B0EB074072EB17420CFB08F7A2
:1014A00034BFA2EB0742B2EB074261EB17414FEAB0
:1014B0000C444FEA910706FB07FC4FEA1C4C0CFB5F
:1014C0000BF7B0EBC74072EB573203FB0CF734BF9E
:1014D000A2EBC742B2EBC74261EB57310CFB0EF7F0
:1014E000B0EBC70072EB57720CFB08F734BFA2EBEE
:1014F000C702B2EBC70261EB5771039F4FEA8161EC
:1015000041EA921104EBCC044FEAD1374FEA8262F0
:1015100006FB07FC42EA90124FEA80604FEA1C4C3F
:101520000CFB0BF7D21B03FB0CF761EB07010CFB69
:101530000EF7B0EB074072EB17420CFB08F734BF15
:10154000A2EB0742B2EB074261EB17414FEA8C5521
:101550004FEA910704EB9C2406FB07FC4FEA1C4C66
:101560000CFB0BF7B0EBC74072EB573203FB0CF7E9
:1015700034BFA2EBC742B2EBC74261EB57310CFB61
:101580000EF7B0EBC70072EB57720CFB08F734BFD5
:10159000A2EBC702B2EBC70261EB577115EB4C250A
:1015A0004FEA816141EA92114FEA82624FEAD137F4
:1015B00042EA901206FB07FC44F100044FEA806007
:1015C0004FEA1C4C0CFB0BF7D21B03FB0CF761EB37
:1015D00007010CFB0EF7B0EB074072EB17420CFB58
:1015E00008F734BFA2EB0742B2EB074261EB1741A9
:1015F00015EB1C154FEA813141EA92414FEA8232E4
:1016000042EA90424FEA80304FEA0C7644F10004FF
:1016100048EA03434EEA0B484FF0000EB2EB080CC9
:1016200071EB030724BF624639464EEB0E0E4FF0B6
:10163000000B0018524149414BEB0B0BB2EB080C6D
:1016400071EB03077BF1000B24BF624639464EEB7A
:101650000E0E4FF0000B0018524149414BEB0B0BA3
:10166000B2EB080C71EB03077BF1000B24BF624661
:1016700039464EEB0E0E51EA020718BF46F001063E
:1016800016EB0E7655F1000254F1000103D5BDE8CA
:101690008901BDE80088BDE88901BDE80048B619A8
:1016A000524141EB0101A3F10103704780807F7E2D
:1016B0007D7C7B7A797877767675747372717170C8
:1016C0006F6E6E6D6C6C6B6A6A696868676666657A
:1016D0006464636362616160605F5F5E5E5D5D5C08
:1016E0005C5B5B5A5A595958585757565655555579
:1016F0005454535352525251515050504F4F4F4ED9
:101700004E4D4D4D4C4C4C4B4B4B4A4A4A49494926
:101710004848484747474746464645454544444468
:10172000444343434342424242414141002B26D479
:10173000770021D01CB54FEA370703B44FF01000F3
:101740004FF010014FF000000FBCBDE810400BF14E
:10175000010BBBF1010F08BF5FEA170722BF12F1AF
:10176000010211F101014FF0004143F1000300F0CB
:10177000004043EA00007047F9D35708DAE746EA29
:10178000064613F1400F4FEA16461FDD13F1200FF6
:10179000DFBF16430A46002120335B42C8D0C3F1A5
:1017A000200746EA064602FA07F74FEA164646EAD7
:1017B0000706C3F1200722FA03F201FA07F721FA1C
:1017C00003F14FF0000342EA0702B1E746EA0206DE
:1017D00046EA06464FEA164646EA0106BCBF46EA16
:1017E0000646360C4FF000034FF000024FF00001A8
:1017F0009EE72DE9C048934630B491E8380007C809
:1018000031EA400C48BF34EA430C03D5FFF7F2FD40
:10181000FFF78CFFF0BCBDE800882DE9C048934677
:1018200030B491E8380007C810F0804F08BF13F0BB
:10183000804F03D100F005F8FFF778FFF0BCBDE85A
:10184000008820F07F4780EA030023F07F4C07EBFD
:101850000C03A3F57C5300F00040A3F1FE0392F0CB
:10186000000F00F0B38095F0000F00F077802DE9B5
:1018700001494FEA11404FEA144621EA004800FBB3
:1018800006FC24EA064708FB06F607FB08F800FBFF
:1018900007F718EB06484CEB164C4FEA124B18EBC7
:1018A00007484FEA15464CEB174022EA0B4E0BFB5C
:1018B00006FC25EA06470EFB06F607FB0EFE0BFBB1
:1018C00007F71EEB064E4CEB164C4FF000061EEBD6
:1018D000074E4CEB174B18EB0B0840F1000018EBD0
:1018E0000E0B58EB000840F100008F1A4FF000017A
:1018F0003CBFC943661B14BFB5EB040C00213CBFC1
:10190000C943F61B4FEA17444EEA8E0E27EA0445F8
:101910004FEA1C4704FB07622CEA074C05FB07F75C
:101920000CFB05F604FB0CFC16EB074642EB1742DA
:1019300016EB0C4642EB1C421BEB060658EB020270
:10194000414146EA9E0601D5BDE80189B6195241DA
:1019500041EB0101A3F10103BDE801894FEA144500
:101960004FEA114724EA054621EA074C05FB07F434
:1019700006FB07F70CFB06F105FB0CFC11EB07411E
:1019800044EB17444FEA124711EB0C4144EB1C4463
:1019900022EA074C05FB07F206FB07F70CFB06F6ED
:1019A00005FB0CFC16EB074642EB174216EB0C4608
:1019B00042EB1C456A1854F1000148BF7047B61944
:1019C000524141EB0101A3F10103704795F0000F73
:1019D00037D04FEA11424FEA144721EA024624EA7F
:1019E000074C02FB07F106FB07F70CFB06F402FBB2
:1019F0000CFC14EB074441EB17414FEA154714EB7D
:101A00000C4441EB1C4125EA074C02FB07F506FBA1
:101A100007F70CFB06F602FB0CFC16EB074645EB42
:101A2000174516EB0C4645EB1C42121951F100010B
:101A300048BF7047B619524141EB0101A3F10103C0
:101A400070474FEA14454FEA114724EA054621EA58
:101A5000074C05FB07F106FB07F70CFB06F24FF0FE
:101A6000000605FB0CFC12EB074241EB174112EBA1
:101A70000C4251EB1C4148BF7047921841EB0101E9
:101A8000A3F101037047FEE77047000010B5502036
:101A9000EFF3118480F31188BFF34F8FBFF36F8F83
:101AA000012000F083F8012808D106480022012116
:101AB000006805F023FC012000F072F884F311881F
:101AC00010BD00002800002010B55020EFF3118455
:101AD00080F31188BFF34F8FBFF36F8F042000F0A6
:101AE00065F8012808D1064800220221006805F0A7
:101AF00005FC042000F054F884F3118810BD0000A8
:101B00002800002010B55020EFF3118480F31188D5
:101B1000BFF34F8FBFF36F8F082000F047F8012805
:101B200008D1064800220421006805F0E7FB0820E0
:101B300000F036F884F3118810BD00002800002062
:101B400010B55020EFF3118480F31188BFF34F8F4D
:101B5000BFF36F8F102000F029F8012808D1064844
:101B600000220821006805F0C9FB102000F018F8D9
:101B700084F3118810BD00002800002010B540201B
:101B800000F014F8002807D0044901204860BDE89F
:101B90001040402000F004B810BD0000A00000205C
:101BA0000149086070470000143C0140034A0146A7
:101BB000002012680A4200D001207047143C014006
:101BC00030B51A4A8379016853B313688B431360A5
:101BD000111D0B680468A3430B60017911440B6865
:101BE000046823430B60114B083319680468A14350
:101BF00019601C1D21680568A943216041791029DD
:101C000005D011440A68006802430A6030BD1968B3
:101C1000026811431960216800680143216030BDEA
:101C20000079104402688A43026030BD003C0140E4
:101C300001490860704700000C3C024070B5064640
:101C4000002529B1012927D0022928D04FF4407559
:101C500000F080F809281ED1124C206820F4407052
:101C60002060206828432060206820F0F800206071
:101C7000206846F0020108432060206840F480306C
:101C8000206000F067F8216821F0020121602168DE
:101C900021F0F801216070BD4FF48075D8E74FF452
:101CA0000075D5E7103C02400D4909200A68D203AF
:101CB00001D5012070470A68D20601D50620704779
:101CC0000A68D20501D5022070470A6812F0EF0FAA
:101CD00001D00720704709688907FBD508207047A5
:101CE0000C3C02400248016841F00041016070472D
:101CF000103C024070B50D46064600F02BF809284E
:101D000013D10A4C206820F440702060206840F411
:101D100000702060206840F001002060356000F015
:101D200019F8216821F00101216070BD103C0240CA
:101D300005480068002805DA034804490C380160AA
:101D40000349016070470000103C024023016745D1
:101D5000AB89EFCD08B509208DF80000FFF7A4FF8F
:101D60008DF800009DF800000128F7D09DF80000D4
:101D700008BDF0B5002201274FF0030C0B6807FAED
:101D800002F52B40AB422CD1066853000CFA03F449
:101D9000A64306600E79D0F800E09E4046EA0E06A3
:101DA00006600E79012E01D0022E12D18668A6435C
:101DB00086604E79D0F808E09E4046EA0E068660BE
:101DC0004668AE43466045688E799640B6B2354364
:101DD0004560C568A543C560CC799C40C3681C4379
:101DE000C460521C102AC9D3F0BD4B07DB0E9A40C9
:101DF000C90810B500EB8100016A0F249C40A14383
:101E00000162016A1143016210BD01837047FEE760
:101E1000FEE7704700F01F02012191404009800059
:101E200000F1E020C0F88011704700F01F0201218E
:101E300091404009800000F1E020C0F80011704797
:101E400030B50F23C27801780125FAB1144A12681F
:101E500001F1E02102F4E062C2F5E062C2F3072280
:101E6000C2F10404D3404278A24084781C40144359
:101E7000220181F80024007800F01F018D40400904
:101E8000800000F1E020C0F8005130BD01F01F00DB
:101E900085404809800000F1E020C0F8805130BD45
:101EA0000CED00E002490843024908607047000059
:101EB0000000FA050CED00E070B50025002105F1E9
:101EC000B00000F08CF90021084600F088F90021EC
:101ED000102000F084F900240121002000F07FF997
:101EE000641CE4B2802CF7D36D1CEDB2082DE5D351
:101EF00070BD10B500218D2000F071F90021102077
:101F000000F06DF90021BDE81040AE2000F067B987
:101F100010B500218D2000F062F90021142000F09E
:101F20005EF90021BDE81040AF2000F058B92DE95E
:101F3000F0471F4690460E4682460025DDF8209069
:101F400011E03146504600F0ADF8544607E019F86C
:101F5000050001216D1C00F042F9641CE4B2444507
:101F6000F5D3761CF6B2BE42EBD3BDE8F087000095
:101F70002DE9FC410121022000F03EF901248DF8F9
:101F80000440002504208DF806500326444F00909D
:101F90008DF805608DF8074069463846FFF7E9FE81
:101FA0008DF8044002208DF8065000908DF80560F1
:101FB0008DF8074069463846FFF7DBFEC82002F07F
:101FC000ADFE0021AE2000F00AF90021084600F025
:101FD00006F90021102000F002F90021402000F055
:101FE000FEF80021B02000F0FAF80021812000F076
:101FF000F6F80021FF2000F0F2F80021A12000F007
:10200000EEF80021A62000F0EAF80021A82000F058
:10201000E6F800213F2000F0E2F80021C82000F09F
:10202000DEF80021D32000F0DAF80021084600F0A5
:10203000D6F80021D52000F0D2F80021802000F051
:10204000CEF80021D82000F0CAF80021052000F0C9
:10205000C6F80021D92000F0C2F80021F12000F0DC
:10206000BEF80021DA2000F0BAF80021122000F0BA
:10207000B6F80021DB2000F0B2F80021302000F09B
:10208000AEF800218D2000F0AAF80021142000F005
:10209000A6F80021AF2000F0A2F8BDE8FC81000006
:1020A0000004024010B50A460446002102F1B000C7
:1020B00000F095F8102040EA1410002100F08FF88D
:1020C00004F00F00BDE81040002100F088B80000C7
:1020D0002DE9F04115460E460746FFF7E3FF0F488E
:1020E000002400EB85150121285D00F078F8641CC0
:1020F000E4B2102CF7D3761CF1B23846FFF7D2FFCA
:1021000000242819012190F8200000F068F8641CD0
:10211000E4B2102CF5D3BDE8F0810000808B0008FC
:102120002DE9F041203A00240F468046D5B27F28A1
:1021300003D900208F1C8046FFB2102B394610D0E7
:10214000FFF7B0FF164905EB450001EB4005012103
:10215000285D00F044F8641CE4B2062CF7D3BDE817
:10216000F081FFF79FFF0F4E04EB05100121305C5B
:1021700000F035F8641CE4B2082CF5D37F1CF9B2EA
:102180004046FFF78FFF002404EB05103044012187
:10219000007A00F024F8641CE4B2082CF4D3DEE7E3
:1021A00068830008908500082DE9F041984617469D
:1021B0000E46044600250DE0434631462046FFF713
:1021C000AFFF0834E4B2782C02D90024B61CF6B272
:1021D0006D1CEDB27A5D002AEED1BDE8F081C0B28F
:1021E00009B100F0C6BE00F0ADBE000001490862B2
:1021F0007047000000000E42044A0029116801D017
:10220000014300E081431160704700003038024014
:10221000044A0029116801D0014300E081431160A4
:102220007047000040380240044A0029116801D07C
:10223000014300E0814311607047000044380240D0
:1022400070B5204B1968204C11F00C0104D06610B9
:10225000042903D0082903D004601BE0066019E0BC
:10226000184A121F1168C1F38055116801F03F012F
:1022700015B1B6FBF1F101E0B4FBF1F1146812689D
:10228000C4F388146143C2F30142521C5200B1FBF3
:10229000F2F1016019680F2202EA11110B4A545C35
:1022A0000168E14041601C68072505EA9424145D3B
:1022B00021FA04F484601B6805EA5333D25CD140F0
:1022C000C16070BD083802400024F400D400002032
:1022D00002460020510901290BD002290CD00849DF
:1022E000096802F01F02012393400B4200D0012035
:1022F000704703497439F3E70149091FF0E700000B
:10230000743802400149086070470000800E47425F
:1023100001490860704700003C0E4742C0F30121AC
:10232000032907D1074B1968074A21F4F811024025
:102330000A431A60034968310A68C0F30B0002437C
:102340000A60704708380240FFFCFF0F38B50022D2
:10235000124C0092CA222260532222600F4A1C3A79
:102360000029116802D00143116012E0814311601D
:102370000A4A183A95131168009B01EA10215B1C68
:102380000093AB4201D00029F5D0116811EA10206A
:1023900000D00120FF21216038BD0000242800402A
:1023A00010B54FF48054204600F092F800280DD06C
:1023B000074800222021006804F0A0FF204600F01A
:1023C0002DF86001BDE81040FFF7EABB10BD00002A
:1023D00028000020010901EB810100F00F0000EB53
:1023E0004100C0B27047002103E0491C0A38C9B25D
:1023F000C0B20A28F9D2090740EA1160704700000C
:1024000080B240F08000C1430348026802F08002BD
:1024100011430160704700000C280040C0F30F100A
:1024200040F08000C1430348026802F0800211437B
:10243000016070470C28004008B50D49002000904D
:102440000868400612D44FF0FF3008608B1308680C
:10245000009A00F04000521C00929A4201D00028DD
:10246000F5D00868400601D4002008BD012008BD51
:102470000C2800400248016821F08001016070478B
:102480000C280040020010B50F480C4601680F48A8
:1024900001EA00014FEA1140E070C1F304236370C8
:1024A00001F03F03A370C1F3423121700AD1FFF75D
:1024B00091FFE0706078FFF78DFF6070A078FFF704
:1024C00089FFA07010BD0000042800403FFFFF00FE
:1024D0000B4A0021126802F00403094A383A1268D4
:1024E00003EAD03302401A43064B1B6803EA10107C
:1024F00003D00004000C00D0012108467047000002
:10250000402800400C280040020010B510480C463E
:102510000168104801EA0001C1F305402070C1F3D1
:102520000623637001F07F03A3704FF0400303EABA
:102530001141E1700AD1FFF74DFF20706078FFF77D
:1025400049FF6070A078FFF745FFA07010BD000044
:10255000002800407F7F7F0030B50E4DCA222A60E0
:1025600053222A600B4C0B4B1C3C1C33002920F0DF
:102570000402216800F0040004D0114321601968AE
:10258000014303E091432160196881431960FF20F2
:10259000286030BD2428004070B5124D0446002646
:1025A000CA20286053202860FFF746FFA8B10D48D5
:1025B0001C38016821F04001016001682268114364
:1025C00001600848A168143801600168A28841EAE6
:1025D00002410160FFF74EFF0126FF2028603046D0
:1025E00070BD00002428004008B5034901EB8000BD
:1025F0000090006808BD00005028004070B51446E7
:102600000D46264A0021002810684FEA406005D098
:1026100000281CDA2078FFF7DDFE19E0002800DB37
:10262000E1702078FFF7DFFE06046078FFF7DBFE3D
:1026300046EA0026A078FFF7D6FE0643E07846EA91
:102640000046207BFFF7CFFE46EA006010E0E17015
:10265000207BFFF7BFFEA0782178E27840EA0140B6
:102660006178090241EA02410843217B40EA0160A6
:10267000A168CA2208436168084308491C310A60FE
:1026800053220A60B5F5807F04D00A1F1060FF2036
:10269000086070BD014A1432F8E7000008280040C5
:1026A00070B50C460026010060780FD0FFF792FE4F
:1026B000A078FFF78FFEA078E17840EA01456078C6
:1026C0002178000240EA4130054315E0C10603D5F8
:1026D00020F010000A306070E078FFF784FE0504F7
:1026E0006078FFF780FE45EA0025A078FFF77BFEC3
:1026F0000543207845EA40350D4CCA202060532020
:102700002060FFF799FE78B10A4805400848203854
:102710000560FFF7AFFE06481C380068800602D44B
:1027200000F08AF800B10126FF202060304670BD1D
:10273000242800403FFFFF002DE9F0410C46002611
:10274000234F01002078396832464FEA416104D0B6
:10275000002930DAFFF73EFE2EE0002900DBE270B0
:10276000FFF741FE05046078FFF73DFE45EA0025CE
:10277000A078FFF738FE0543E07845EA0045144CA1
:10278000CA201C34206053202060FFF755FE68B13A
:10279000104805400E4808380560FFF76BFE3868A2
:1027A000800602D400F048F800B10126FF20206026
:1027B0003046BDE8F081E270A078217840EA01451A
:1027C0006078E178000240EA01400543D7E7000065
:1027D000082800407F7F7F000549CA220A605322F3
:1027E0000A60034A103A1060FF200860704700003A
:1027F0002428004070B55020EFF3118480F3118835
:10280000BFF34F8FBFF36F8F4FF480452846FFF71C
:102810005FFE01280BD1074800221021006804F058
:102820006DFD2846FFF7FAFD2802FFF7B9F984F39A
:10283000118870BD2800002018B50020104B0090B2
:10284000CA201860532018600D491839086820F014
:10285000A00008604FF400340868009A00F02000DF
:10286000521C0092A24201D00028F5D008688006D0
:1028700001D5012000E00020FF21196018BD0000F3
:1028800024280040084ACA211160532111600649DA
:102890001C390B6823F007030B600B6803430B60C4
:1028A000FF201060704700002428004018B5002168
:1028B000134B0091CA2119605321196010491C392A
:1028C0000028086803D040F48060086014E020F419
:1028D000806008600A4918398C130868009A00F073
:1028E0000400521C0092A24201D00028F5D00868D2
:1028F000400701D4002000E00120FF21196018BD2D
:102900002428004008B5034A02EB800000900160D3
:1029100008BD00005028004010B58A0721F00304CC
:102920000849120F21440F23D1F8084893409C43D3
:10293000C1F80848D1F8083890400343C1F8083876
:1029400010BD0000003001400CB500222749009264
:102950000192086840F4803008604FF4A043086892
:1029600000F4003001900098401C0090019810B9CC
:1029700000989842F3D10868800334D50120019073
:102980001A484030026842F08052026018480268DB
:1029900042F4404202601548083002680260026852
:1029A00042F400420260026842F4A0520260031F37
:1029B000104A1A600A6842F080720A600A6892013E
:1029C000FCD50D4940F205720A60016821F003014F
:1029D0000160016841F0020101600168C1F38101F9
:1029E0000229FAD10CBD01920CBD00000038024052
:1029F0000070004008544007003C024010B55020D1
:102A000080F31188BFF34F8FBFF36F8F05F0E8F8A5
:102A100018B104494FF080500860002080F31188FD
:102A200010BD000004ED00E0124810B5016841F44B
:102A3000700101601048016841F0010101600E4A17
:102A400000210832116002680C4B1A400260031D1D
:102A50000B4A1A60026822F48022026006480C3099
:102A60000160FFF771FF03494FF000608039086093
:102A700010BD000088ED00E000380240FFFFF6FEC8
:102A80001030002410B50E4C0121204600F034F81F
:102A9000012814D10B4A11699068814201D09068D5
:102AA00006E031B19068814203D10120D06000205E
:102AB00010612046BDE81040012100F005B810BDAE
:102AC00000040040A0000020C94301827047002993
:102AD000018802D041F0010101E021F001010180F3
:102AE0007047002930F8441F02D041F4004101E052
:102AF000C1F30E010180704702460020138A9289BB
:102B00000B4202EA010202D0002A00D001207047E5
:102B1000002A828901D00A4300E08A4382817047FB
:102B200070B5028C22F480520284058C8288838BDB
:102B30000C8823F4E6464FF6FF7303EA042434437B
:102B400025F400568D8903EA053535434E8803EA9E
:102B500006362E43084DA84202D0084DA84205D1A2
:102B600022F480450A8A03EA82122A4382808483FF
:102B700089680164068470BD0000014000040140C2
:102B80000164704730B50288164C174DA0420DD035
:102B9000A8420BD0B0F1804F08D0144B984205D01A
:102BA000134B984202D0134B984203D122F070038A
:102BB0004A881A43104B984206D0104B984203D0D3
:102BC00022F440730A891A4302804A68C2620A8862
:102BD0000285A04201D0A84201D1897A0186012153
:102BE000818230BD0000014000040140000400402B
:102BF00000080040000C004000100040001400409D
:102C00002DE9F84300255020EFF31184009580F35F
:102C10001188BFF34F8FBFF36F8F1B4F40F22558C2
:102C20004146384600F0C5F8F8B1384600F04EF994
:102C3000174EC1B2154A30681154401C3060232928
:102C400001D040280DD382F84000124800236A4684
:102C50000E49006804F094FD41210C48FDF7DFFDAA
:102C600035604146384600F08DF8009838B10A4981
:102C70004FF080500860BFF34F8FBFF36F8F84F326
:102C80001188BDE8F883000000100140A801002071
:102C9000C80000202C00002004ED00E070B50F4CAF
:102CA00040F225552946204600F083F8012814D12A
:102CB000204600F00BF9C3B20948437081684029EF
:102CC00005D2826807491144521C82600B70294664
:102CD0002046BDE8704000F055B870BD004400408B
:102CE000A00000205C0100202DE9F84300255020C1
:102CF000EFF31184009580F31188BFF34F8FBFF37A
:102D00006F8F1B4F40F225584146384600F051F86E
:102D1000F8B1384600F0DAF8174EC1B2154A7068BB
:102D20001154401C7060232901D040280DD382F833
:102D30004000124800236A460E49006804F020FD56
:102D400041210C48FDF76BFD75604146384600F0A7
:102D500019F8009838B10A494FF080500860BFF365
:102D60004F8FBFF36F8F84F31188BDE8F8830000A5
:102D700000480040A8010020C80000202C000020CE
:102D800004ED00E00A0A01219140C9430180704727
:102D90000029818902D041F4005101E021F4005161
:102DA000818170470246002012880A4200D001202B
:102DB000704770B501F01F0501260024C1F34213CE
:102DC00006FA05F2012B0FD0022B0FD0838A4FEAAF
:102DD00011210088134206FA01F600EA060001D02C
:102DE00000B10124204670BD8389F0E7038AEEE735
:102DF00010B5C1F3421301F01F040121A140012BC2
:102E000007D0022B07D01430002A026805D00A43ED
:102E100004E00C30F8E71030F6E78A43026010BD9A
:102E20007FB50446008A0D46C98820F4405001430E
:102E30002182A08941F20C618843A9882A89114323
:102E40006A8902431143A181A08A20F44071A889B4
:102E50000843A0826846FFF7F3F91A48844202D07B
:102E60001948844201D1039800E00298A18909041D
:102E700000EBC00101EB0010296801D5490000E01A
:102E80008900B0FBF1F06422B0FBF2F109010B09FB
:102E90006FF018056B4300EB8300A3891D044FF00E
:102EA000320306D503EBC000B0FBF2F000F00700E0
:102EB00005E003EB0010B0FBF2F000F00F00084358
:102EC00020817FBD00100140001401408088C0F3C4
:102ED00008007047C1F3080181807047FEE70000D9
:102EE0002DE9F04180460024012002F0B1FC144E8F
:102EF0000027C6F88872C6F88472012001F010FF1E
:102F00000125C4F1070105FA01F010EA080F02D00B
:102F1000C6F8845201E0C6F88472012001F000FF77
:102F2000C6F88852012001F0FBFEC6F88872012025
:102F300001F0F6FE641C082CE3D3BDE8F08100002C
:102F40000080404210B5044602F094FC7820FFF760
:102F5000C7FF02F0C7FC0020FFF7C2FF02F0C2FC6F
:102F60002046FFF7BDFF02F0BDFCBDE8104002F0B7
:102F70009DBC10B5044602F07DFC7820FFF7B0FF41
:102F800002F0B0FC4020FFF7ABFF02F0ABFC2046A4
:102F9000FFF7A6FF02F0A6FCBDE8104002F086BCD9
:102FA00003B401984100009850EAC12018BF0420E2
:102FB0004A0D18BF40F0010040F2FF72B2EB515FC2
:102FC00008BF40F00200012808BF052002B070478A
:102FD00030380A2801D201207047002070470000D5
:102FE0002DE9F0474C4F0026C7F8B0624B4C012545
:102FF000C4F89452C4F8BC52C4F88452022001F0C0
:103000008DFEDFF81C81D8F83002E8B3D4F8100246
:10301000D8B3D4F83802C8B3DFF80891D9F81C0245
:10302000A8B3C7F8B052B246C4F89462C4F8BC5210
:10303000C4F88452022001F071FED8F830024646EE
:1030400030B3D4F81002E8B3D4F83802D8B3D9F8C2
:103050001C02C846C0B3B946C7F8B052C4F894526F
:103060005746C4F8BCA2C4F88452022001F056FEB0
:10307000D6F8300248B3D4F8100238B3D4F8380286
:1030800080B3D8F81C0204E024E025E026E027E025
:103090002AE040B3C9F8B052C4F89452C4F8BC5204
:1030A000C4F88472022001F039FED6F8300258B319
:1030B000D4F8100250B3D4F8380248B3D8F81C0240
:1030C00040B304E012E013E014E015E016E04E20F7
:1030D000BDE8F0873120FBE73220F9E73320F7E73E
:1030E0004120F5E70CE00DE03420F1E73520EFE773
:1030F0003620EDE74220EBE73720E9E73820E7E725
:103100003920E5E74320E3E72A20E1E73020DFE745
:103110002320DDE74420DBE70000434200804142FA
:103120000080424200004242704700001CB515A0DA
:10313000FDF73AF91B4C1C4D4FF0FF3632466946FD
:10314000606B04F07BFB0128F8D1019800280098FF
:103150000ED0C5F8A00202E0012003F0E9FD0198BD
:10316000401E0190401CF7D1009880F001000090B3
:10317000C5F8A00200231A461946606A04F04EFA08
:10318000DCE700006170705F7461736B5F6265659E
:10319000702069732072756E6E696E67202E2E2EF8
:1031A0000D0A00000000002000804242A4B0052566
:1031B000444C4FF0FF391AAF20264FF01008CDF8DD
:1031C0000090002301224021A06A04F09FF84006ED
:1031D00073D53DA0FDF7E8F822A801F0E7FD010056
:1031E00001D041A067E0142115A8FDF73AFB4C215E
:1031F00002A8FDF736FB04208DF80C009DF889101D
:103200009DF88800CDE900019DF88B309DF88A205B
:103210003DA10DF10D00FDF7D3F80023642202A9B2
:10322000E06B04F0FBF90146012802D03CA0FDF759
:10323000BBF89DF88B309DF88A2048A11AA8FDF7AD
:10324000BFF88DF854508DF8556002208DF8560067
:1032500016978DF85C800023642215A9A06B04F0FA
:10326000DDF90146012802D03FA0FDF79DF84FF49B
:10327000FA7003F05DFD142115A8FDF7F2FA9DF830
:1032800089309DF8882047A11AA8FDF799F88DF894
:1032900054508DF8556006208DF8560016978DF81D
:1032A0005C800023642215A9A06B04F0B7F90146E5
:1032B000012802D02CA0FDF777F8E06803F0AAFE01
:1032C0007DE70000000000206170705F7461736B27
:1032D0005F6468742069732072756E6E696E672012
:1032E0002E2E2E0D0A0000006468743131207265A4
:1032F0006164206572726F7220636F646520697308
:103300002025640D0A00000054656D703D25642E73
:1033100025642048756D693D25642E2564000000F4
:103320005B6170705F7461736B5F6468745D20785B
:10333000517565756553656E6420666C61736820B0
:10334000737472696E67206572726F7220636F6446
:10335000652069732025640D0A00000054656D70B6
:103360003D25642E256400005B6170705F7461739D
:103370006B5F6468745D2078517565756553656E23
:1033800064206F6C656420737472696E6720657267
:10339000726F7220636F64652069732025640D0A63
:1033A0000000000048756D693D25642E256400000D
:1033B0009AB02AA0FCF7F8FF314C4FF0FF352A46AF
:1033C00007A9E06B04F03AFA0128F8D12DA0FCF728
:1033D000EBFF354801F030FF07900A2803D301F0D6
:1033E00089FD0020079005A90120FFF74BF804A9EB
:1033F0000120FFF789F89DF810009DF820309DF816
:1034000012209DF811108DE80F009DF816309DF8E0
:1034100015209DF8171025A0FCF7C6FF9DF8170092
:103420008DF861009DF815008DF862009DF816007A
:103430008DF863009DF810008DF864009DF8110070
:103440008DF865009DF812008DF8660003F09EFB74
:1034500007A801F001FF03F0B9FBB0E75B617070F2
:103460005F7461736B5F666C6173685D2063726526
:1034700061746520737563636573730D0A000000E2
:10348000000000205B6170705F7461736B5F666C3D
:103490006173685D20776169742067657420646179
:1034A00074610D0A0000000000000108B5B1C7B04A
:1034B000CAB1BCE43A3230253032782F2530327828
:1034C0002F2530327820253032783A253032783A3C
:1034D000253032782025640A000000009EB0D2A07A
:1034E000FCF762FF0126D94D4FF0200B4FF0080981
:1034F0004FF0000A32274FF0FF30009000230122E6
:103500004FF47031A86A03F001FF0446686900288F
:1035100079D1E00377D5032001F0B8FECC48FCF761
:1035200043FF4FF6FF70ADF870001CA802F042F8A0
:1035300010F0FF0F6BD0012001F0A8FEC5A0FCF732
:1035400033FF40208DF814008DF805B08DF806A0EB
:103550004FF00708CA488DF815908DF80480049044
:103560000023642201A9A86B04F058F80146012841
:1035700002D0C4A0FCF718FF4FF47A70CDE90660C2
:103580000023642206A9686B04F048F8014601286C
:1035900002D0CCA0FCF708FF4FF0FF31686A04F0BE
:1035A000E9F90146012802D0D448FCF7FDFE4FF4AA
:1035B000FA6003F0BDFB40208DF804808DF8140004
:1035C0008DF805B0CE488DF806A08DF815900490C2
:1035D000D0460023642201A9A86B04F01FF801461D
:1035E000012804D000E00EE0C6A0FCF7DDFEC5F81F
:1035F0001880EE61642001F091FB02F0D9F84FF4DD
:103600007A7001F08BFB6869012851D0A5E0022097
:1036100001F03CFEBDF87010CA48FCF7C5FE6E61B3
:10362000D046C5F818A01020E861CDE90667002350
:10363000642206A9686B03F0F1FF0146012802D05D
:10364000C1A0FCF7B1FE4FF0FF31686A04F092F9B7
:103650000146012802D0CAA0FCF7A6FE40208DF842
:1036600014008DF805B08DF8068007208DF8040051
:10367000D3488DF8159004900023642201A9A86B0B
:1036800003F0CCFF0146012802D0CEA0FCF78CFE4F
:10369000E8698DF824000023642208A9E86B03F090
:1036A000BDFF01460128A4D0D6A0FCF77DFEA0E70F
:1036B000600425D5032001F0E9FDE048FCF774FE25
:1036C0001BA801F003FF10F0FF0F19D1BDF86C101B
:1036D000DBA0FCF769FEBDF86C00401C80B201F075
:1036E0004FFE10F0FF0F3CD0012001F0CFFD642011
:1036F00001F014FB02F05CF84FF47A7001F00EFB5D
:10370000200413D5032001F0C1FD01F0D5FD10F018
:10371000FF0F46D0012001F0B9FD642001F0FEFA50
:1037200002F046F84FF47A7001F0F8FAA00314D5CD
:10373000032001F0ABFD1BA801F0C8FE10F0FF0F45
:103740004FD0012001F0A2FD642001F0E7FA02F061
:103750002FF84FF47A7001F0E1FAE86803F05AFCB0
:10376000C9E6022001F092FDBFA0FCF71DFECDE9E5
:1037700006670023642206A9686B03F04FFF014629
:10378000012802D0C2A0FCF70FFE4FF0FF31686A9B
:1037900004F0F0F801460128A9D079A0FCF704FE56
:1037A000A5E7022001F072FDC7A0FCF7FDFDCDE901
:1037B00006670023642206A9686B03F02FFF014609
:1037C000012802D060A0FCF7EFFD4FF0FF31686ADE
:1037D00004F0D0F8014601289FD069A0FCF7E4FD71
:1037E0009BE7022001F052FDBDF86C1094A0FCF79D
:1037F000DBFDCDE906670023642206A9686B03F0B0
:103800000DFF0146012802D04FA0FCF7CDFD4FF07F
:10381000FF31686A04F0AEF80146012894D058A040
:10382000FCF7C2FD90E700005B6170705F7461732C
:103830006B5F66706D3338335D20637265617465EC
:1038400020737563636573730D0A00000000002028
:1038500050A000085B6170705F7461736B5F706192
:1038600073735F6D616E5D2070617373776F7264E7
:103870002061757468206661696C0D0A00000000A3
:10388000809C00085B6170705F7461736B5F706136
:1038900073735F6D616E5D207851756575655365F5
:1038A0006E64206F6C656420706963747572652046
:1038B0006572726F7220636F64652069732025647E
:1038C0000D0A00005B6170705F7461736B5F706103
:1038D00073735F6D616E5D207851756575655365B5
:1038E0006E642062656570206572726F7220636F0E
:1038F00064652069732025640D0A0000809F00081C
:10390000809800085B6170705F7461736B5F7061B9
:1039100073735F6D616E5D20785175657565536574
:103920006E64206F6C656420737472696E672065C5
:1039300072726F7220636F64652069732025640D55
:103940000A0000000CA000085B6170705F74617376
:103950006B5F66706D3338335D20785175657565C2
:1039600053656E642062656570206572726F7220A7
:10397000636F64652069732025640D0A00000000F0
:103980005B6170705F7461736B5F66706D33383349
:103990005D207853656D6170686F726554616B6509
:1039A00020675F73656D5F62656570206572726F19
:1039B0007220636F64652069732025640D0A00001E
:1039C000809A00085B6170705F7461736B5F6670F2
:1039D0006D3338335D2078517565756553656E6458
:1039E000206F6C6564207069637475726520657200
:1039F000726F7220636F64652069732025640D0AFD
:103A0000000000005B6170705F7461736B5F7061D8
:103A100073735F6D616E5D20785175657565536573
:103A20006E6420666C617368206572726F722063C9
:103A30006F64652069732025640D0A0094A0000856
:103A40005B6170705F7461736B5F66706D33383388
:103A50005D20BBF1C8A1D6B8CEC6D7DCCAFDA3BADB
:103A6000253034640D0A00005B6170705F7461730F
:103A70006B5F66706D3338335D20D7D4B6AFD7A295
:103A8000B2E1D6B8CEC6B3C9B9A60D0A000000008F
:103A90005B6170705F7461736B5F66706D33383338
:103AA0005D2078517565756553656E64202062658B
:103AB0006570206572726F7220636F646520697330
:103AC0002025640D0A0000005B6170705F746173F3
:103AD0006B5F66706D3338335D20C7E5BFD5D6B8F0
:103AE000CEC6B3C9B9A60D0A000000007CB50024FB
:103AF0004AA0FCF759FC502080F31188BFF34F8F88
:103B0000BFF36F8F4D4D0BE005EBC101D1E90423ED
:103B1000CDE900230A89CB68496804F021F8641CC8
:103B200004EB440155F831000028EDD180F31188F1
:103B300001460A2003F0E8FC414C002120620A20E3
:103B400003F0E2FC606203F085FBA0620022012129
:103B5000042003F0F6FC206300220821042003F077
:103B6000F0FC606300221421102003F0EAFCA06343
:103B700000224121042003F0E4FCE06200224C21F9
:103B8000102003F0DEFCE06300220121042003F09A
:103B9000D8FC20640020FEF727FD41F26714A04204
:103BA00008D002F009FD01F0A5F921460020FEF73A
:103BB000A9FE01E002F076FD02F016F801F0A4FF84
:103BC00001F082F802F040FE01F0D2F801F01AFF95
:103BD00001F0A4FEFEF7CCF901F0BEFDFEF76CF992
:103BE000184800210090082380220846FEF79FF91C
:103BF00040F6B83003F09CF8FEF75EF912480090EA
:103C00000823602200212020FEF791F9002003F014
:103C1000B5F8BDE87C400DA0FCF7C6BB6170705FD5
:103C20007461736B5F696E69742069732072756E5D
:103C30006E696E67202E2E2E0D0A00001882000875
:103C40000000002080940008809800085B6170707C
:103C50005F7461736B5F696E69745D206E65727607
:103C600065722072756E20686572650D0A0000002D
:103C700086B04FF000085BA0FCF796FB614E624DEA
:103C8000624F4FF0FF39CDF80090002301220F2141
:103C9000A86A03F03BFB0446142101A8FCF7E1FDF0
:103CA000E00726D00620FEF7B5F8322003F040F8F2
:103CB000D6F80002B0B956A0FCF776FBA86803F06E
:103CC0001FFAE86803F01CFAC5F810800A2001F01A
:103CD0001FF94FF48041A86A03F0C9FA02E00120FD
:103CE00003F026F8D6F800020028F8D00620FEF7E8
:103CF0009CF8A00723D50820FEF78CF8322003F0AB
:103D000017F8D7F8080298B948A0FCF74DFBA86847
:103D100003F0F6F9E86803F0F3F9C5F810804FF402
:103D20008031A86A03F0A3FA02E0012003F000F852
:103D3000D7F808020028F8D00820FEF776F86007C8
:103D40001DD50920FEF766F8322002F0F1FFD7F802
:103D50000C0268B92EA0FCF727FBC5F810804FF4C1
:103D60000031A86A03F083FA02E0012002F0E0FFCC
:103D7000D7F80C020028F8D00920FEF756F82007E3
:103D800081D50A20FEF746F8322002F0D1FFD7F89D
:103D90001002F8B92CA0FCF707FB4FF40041A86A09
:103DA00003F065FAA86803F035F9022028610420C1
:103DB0008DF804000023642201A9A86B03F02EFCF7
:103DC0000146012806D027A0FCF7EEFA02E0012008
:103DD00002F0AEFFD7F810020028F8D00A20FEF754
:103DE00024F850E75B6170705F7461736B5F6B65A3
:103DF000795D2063726561746520737563636573B3
:103E0000730D0A0000004042000000200000424202
:103E10005B6170705F7461736B5F6B65795D20537C
:103E2000312050726573730D0A0000005B61707081
:103E30005F7461736B5F6B65795D205332205072E4
:103E40006573730D0A0000005B6170705F746173CD
:103E50006B5F6B65795D2053342050726573730D11
:103E60000A0000005B6170705F7461736B5F727455
:103E7000635D2078517565756553656E64206F6C60
:103E8000656420737472696E67206572726F722048
:103E9000636F64652069732025640D0A00000000CB
:103EA0000EB54E208DF808001AA0FCF77DFA01250A
:103EB0000A26204CAF1E01F07DFD8DF808004E282B
:103EC000F9D001461CA0FCF76FFA0023642202A976
:103ED000206C03F0A3FB0146012802D01EA0FCF7D2
:103EE00063FACDE90056002364226946606B03F053
:103EF00095FB0146012802D024A0FCF755FA39466B
:103F0000606A03F037FD01460128D4D02C48FCF745
:103F10004BFAD0E75B6170705F7461736B5F6B62CB
:103F2000645D206372656174652073756363657396
:103F3000730D0A00000000205B6170705F74617394
:103F40006B5F6B62645D206B62642070726573737B
:103F5000202563200D0A00005B6170705F7461733F
:103F60006B5F6B62645D2078517565756553656E36
:103F700064206B6264206572726F7220636F646587
:103F80002069732025640D0A000000005B617070D9
:103F90005F7461736B5F6B62645D207851756575EA
:103FA0006553656E642062656570206572726F721C
:103FB00020636F64652069732025640D0A0000008A
:103FC000C49F000808B500248DF800401FA0FCF72E
:103FD000EBF9264D264FDFF89C804FF0FF39012684
:103FE0004A466946D8F8300003F028FC0128F7D18A
:103FF0009DF80000C10606D5C10702D0C5F8A4424D
:1040000001E0C5F8A462810606D5C10702D0C5F853
:10401000A84201E0C5F8A862410606D5C10702D052
:10402000C7F8B44201E0C7F8B462010606D5C0077C
:1040300002D0C7F8B84201E0C7F8B86200231A46B8
:104040001946D8F8200003F0E9FAC9E76170705FFB
:104050007461736B5F6C65642069732072756E6E3A
:10406000696E67202E2E2E0D0A000000008042424D
:1040700000004242000000200FA0FCF795F900204C
:1040800003F03EF81AA0FCF78FF90024E0B201F02B
:1040900035FD142002F04CFE641C64B2642CF5DD86
:1040A0006424E0B201F02AFD142002F041FE641EF7
:1040B00064B2002CF5DAE8E75B6170705F746173DD
:1040C0006B5F6C65645F6272656174685D206372CA
:1040D00065617465207375636365737320616E64D5
:1040E0002073757370656E642073656C660D0A00CD
:1040F0005B6170705F7461736B5F6C65645F62724B
:10410000656174685D20726573756D652073756394
:10411000636573730D0A000086B02BA0FCF744F9A9
:10412000142101A8FCF79DFB304C4FF0FF352A46C7
:1041300001A9A06B03F082FB0128F8D19DF80400CF
:1041400008283CD2DFE800F03B040C3B1417212A7E
:10415000FDF7DEFE606802F0D3FF01F033FDE6E715
:10416000FDF7C7FE01F01CFD606802F053FFDEE7BB
:10417000FDF7A2FEDBE79DF80C309DF806109DF8D8
:104180000500029AFEF710F8D1E79DF80D209DF882
:1041900006109DF80500FDF79BFFC8E70498009006
:1041A0009DF806109DF815009DF814200844C3B230
:1041B0009DF805000244D2B2FDF7B9FEB7E70CA0A6
:1041C000FCF7F2F8B3E700005B6170705F74617335
:1041D0006B5F6F6C65645D206372656174652073ED
:1041E0007563636573730D0A000000000000002012
:1041F0005B6170705F7461736B5F6F6C65645D2091
:104200006F6C6564206374726C20636F64652069F1
:104210007320696E76616C69640D0A009EB04FF080
:1042200000082425BC4F8DF81480CDF81880444632
:1042300004264FF0200B4FF0070A4FF00109CDF88C
:104240001C804FF0FF3205A9386C03F0F7FA012803
:10425000F7D19DF81400432835D0B9690129F0D170
:104260002A2858D0062C78D206A900230855052004
:104270008DF8000010208DF8080008198DF8015005
:104280008DF80260019064226946B86B03F0C6F9AC
:104290000146012802D0A1A0FCF786F8642002F0B4
:1042A00047FDAEA00190002364226946B86B03F07D
:1042B000B5F90146012802D098A0FCF775F8083539
:1042C000EDB2641CBDE7A6A0FCF76EF8C7F8148039
:1042D000C7F8189004260024CDF81880CDF81C806B
:1042E0008DF800602425234664226946B86B03F0EC
:1042F00095F90146012802D088A0FCF755F8052061
:104300008DF8000010208DF801508DF808008DF810
:10431000026098A012E0002C93D0641E06A9083D0C
:1043200001F8048005208DF80000EDB210208DF812
:1043300001508DF808008DF8026090A001900023D4
:1043400064226946B86B03F069F901460128B9D0C7
:1043500072A0FCF729F874E7FFE72328B2D106A979
:1043600087A0FCF721F8062206A99048FCF7DEF9A1
:10437000002860D08EA0FCF717F8C7F818804020FE
:104380008DF8100008208DF801B08DF811008DF81F
:10439000028092488DF800A00390002364226946B1
:1043A000B86B03F03BF90146012802D08CA0FBF763
:1043B000FBFF4FF47A70CDE91B90002364221BA908
:1043C000786B03F02BF90146012802D094A0FBF78B
:1043D000EBFF4FF0FF31786A03F0CCFA0146012879
:1043E00002D09D48FBF7E0FF4FF4FA6002F0A0FC1A
:1043F00040208DF8100008208DF800A08DF81100E5
:104400008DF801B095480024CDF81880CDF81C80B7
:104410008DF8028003902425234664226946B86BF8
:1044200003F0FCF80146012802D03CA0FBF7BCFFDA
:10443000C7F81C9005E78AA0FBF7B6FF4C46C7F803
:104440001490C7F8188040208DF8100008208DF8CF
:1044500001B08DF811008DF802808C488DF800A015
:104460000390002364226946B86B03F0D7F8014635
:10447000012802D05AA0FBF797FF1425CDE91B4570
:10448000002364221BA9786B03F0C8F801460128B9
:1044900002D063A0FBF788FF4FF0FF31786A03F08A
:1044A00069FA0146012802D06B48FBF77DFF6420C2
:1044B00002F03EFCCDE91B45002364221BA9786B6A
:1044C00003F0ACF80146012802D055A0FBF76CFFC1
:1044D0004FF0FF31786A03F04DFA0146012802D00F
:1044E0005D48FBF761FF4FF4FA6002F021FCCDF864
:1044F0001880CDF81C802425F86900248DF824004C
:104500002346642208A9F86B03F088F801460128C5
:104510008ED05FA08AE70000000000205B61707011
:104520005F7461736B5F706173735F6D616E5D204B
:1045300078517565756553656E64206F6C65642090
:10454000737472696E67206572726F7220636F6434
:10455000652069732025640D0A0000002A00000010
:1045600070617373776F72642072657365740D0A7E
:10457000000000002D2D2D2D2D2D00002D00000000
:104580005B6170705F7461736B5F706173735F6D9B
:10459000616E5D2061757468206B65792062756657
:1045A000206973202536730D0A0000001082000870
:1045B0005B6170705F7461736B5F706173735F6D6B
:1045C000616E5D2070617373776F726420617574C2
:1045D00068206661696C0D0A00000000809C00087C
:1045E0005B6170705F7461736B5F706173735F6D3B
:1045F000616E5D2078517565756553656E64206FD9
:104600006C65642070696374757265206572726F81
:104610007220636F64652069732025640D0A0000B1
:104620005B6170705F7461736B5F706173735F6DFA
:10463000616E5D2078517565756553656E642062A5
:10464000656570206572726F7220636F64652069A2
:10465000732025640D0A0000809F000880980008E0
:104660005B6170705F7461736B5F706173735F6DBA
:10467000616E5D2070617373776F72642061757411
:104680006820737563636573730D0A00809A000870
:104690005B6170705F7461736B5F706173735F6D8A
:1046A000616E5D2078517565756553656E64206631
:1046B0006C617368206572726F7220636F6465202D
:1046C00069732025640D0A008EB0002502950395BC
:1046D000049535A00595FBF767FE404EB06802F0E3
:1046E0000FFD3FA0FBF760FE6F1E00970023012225
:1046F0003021B06A02F00AFE0446C0064ED502958B
:104700000395049505953069022815D10CA901205F
:10471000FDF7FAFE029505959DF83200009003958D
:1047200004959DF831309DF8302035A102A8FBF7A3
:1047300047FE20208DF819003069012817D10BA9F8
:10474000FDF7A0FE9DF82C1005959DF82E00CDE9F3
:1047500000010295039504959DF82D309DF82F20BA
:104760002BA102A8FBF72CFE0F208DF819000520C5
:104770008DF8180004208DF81A0002A80790102068
:104780008DF820000023642206A9B06B02F046FFDA
:104790000146012802D023A0FBF706FEA006A4D5FF
:1047A0002FA0FBF701FEA0E75B6170705F7461737F
:1047B0006B5F7274635D20637265617465207375ED
:1047C000636365737320616E642073757370656EC7
:1047D000642073656C660D0A000000000000002074
:1047E0005B6170705F7461736B5F7274635D207284
:1047F0006573756D6520737563636573730D0A006A
:10480000253032783A253032783A25303278000037
:104810003230253032782D253032782D25303278DF
:104820002D2564005B6170705F7461736B5F7274DF
:10483000635D2078517565756553656E64206F6C96
:10484000656420737472696E67206572726F72207E
:10485000636F64652069732025640D0A0000000001
:10486000C4D6D6D3BBBDD0D1C1CB0D0A0000000049
:1048700086B0154C022540F6B83614A0FBF794FD1F
:1048800001F068FF30B1012808D0022806D00328C3
:1048900016D106E015A0FBF787FD11E08DF800505A
:1048A00002E001208DF80000002364226946A06B1D
:1048B00002F0B4FE0146012802D011A0FBF774FDFE
:1048C000304602F035FAD8E7000000206170705FD2
:1048D0007461736B5F737230342069732072756E0C
:1048E0006E696E67202E2E2E0D0A000064697374A7
:1048F000616E6365206572726F720D0A00000000C0
:104900005B6170705F7461736B5F7274635D20785C
:10491000517565756553656E64206F6C65642073B1
:104920007472696E67206572726F7220636F64655E
:104930002069732025640D0A0000000094B04FF038
:1049400000088DF84C807BA0FBF72EFD824F4FF0C6
:10495000FF394A466946F86A02F070FF01460128AD
:1049600003D07EA0FBF720FDF3E769468BA0FBF7A1
:104970001BFD92A16846FBF7C7FE18B991A16846D6
:10498000FBF7C2FE91A16846FBF7BEFE00282FD0C0
:1049900091A16846FBF7B2FE8FA10020FBF7AEFEA7
:1049A000FBF79EFE01F0AAFF04468BA10020FBF757
:1049B000A5FEFBF795FE01F0A1FF064686A10020AB
:1049C000FBF79CFEFBF78CFE01F098FF054683A1E8
:1049D0000020FBF793FEFBF783FE01F08FFF0246FA
:1049E00023462946304601F0A3FD7DA0FBF7DCFC01
:1049F00084A16846FBF788FE002833D076A168467C
:104A0000FBF77CFE74A10020FBF778FEFBF768FE45
:104A1000A0F5FA6001F072FF8DF84B006EA1002046
:104A2000FBF76CFEFBF75CFE01F068FF8DF84900B8
:104A300069A10020FBF762FEFBF752FE01F05EFF6A
:104A40008DF84A0064A10020FBF758FEFBF748FEF2
:104A500001F054FF8DF8480012A90120FDF720FE57
:104A60006BA03BE073A16846FBF74EFE002838D0F0
:104A700059A16846FBF742FE57A10020FBF73EFE16
:104A8000FBF72EFE0C2802D28DF8478002E0402171
:104A90008DF847100A21B0FBF1F201FB1202B0FBC6
:104AA000F1F002EB00108DF844004BA10020FBF761
:104AB00025FEFBF715FE01F021FF8DF8450047A10B
:104AC0000020FBF71BFEFBF70BFE01F017FF8DF834
:104AD000460011A90120FDF72FFE59A0FBF764FC49
:104AE00037E760A16846FBF70FFE0028F8D0B869E9
:104AF0000128F5D15BA16846FBF700FE054601469B
:104B00005BA0FBF751FC0220F86100240023285D24
:104B10008DF84C00642213A9386C02F07FFD014629
:104B2000012802D05BA0FBF73FFC641C082CEDD3EE
:104B30000FE700005B6170705F7461736B5F75738A
:104B40006172745D2063726561746520737563635F
:104B50006573730D0A000000000000205B61707037
:104B60005F7461736B5F75736172745D20785175EA
:104B700065756552656365697665207573617274E4
:104B80005F7061636B6574206572726F7220636F12
:104B900064652069732025640D0A00005B617070F4
:104BA0005F7461736B5F75736172745D20726563AE
:104BB0007620646174613A25730D0A0074656D7026
:104BC0003F2300007374617274000000414C415235
:104BD0004D205345540000002D000000230000002C
:104BE0005B6170705F7461736B5F75736172745D2C
:104BF000207274632073657420616C61726D206F24
:104C00006B0D0A00444154452053455400000000F8
:104C10005B6170705F7461736B5F75736172745DFB
:104C200020727463207365742064617465206F6BF7
:104C30000D0A000054494D45205345540000000022
:104C40005B6170705F7461736B5F75736172745DCB
:104C500020727463207365742074696D65206F6BB6
:104C60000D0A00005041535320554E4C4F434B000A
:104C70005B6170705F7461736B5F75736172745D9B
:104C800020726563762070617373203A25730D0A74
:104C9000000000005B6170705F7461736B5F6B623A
:104CA000645D2078517565756553656E64206B622F
:104CB00064206572726F7220636F6465206973206F
:104CC00025640D0A000000001CB501212020FDF71D
:104CD00093FA4FF48070009001208DF804000024B6
:104CE0008DF8064003218DF805108DF80700694600
:104CF0000348FDF73EF80348C0F8A0421CBD000081
:104D00000014024000804242002203E010F8013B00
:104D10001A4492B2491EF9D21046704702F008B800
:104D20002DE9F0414FF0E0280024D8F814700E4A25
:104D30000E4BD8F818501268B2FBF3F6464302F057
:104D40003DFA41468869A842FCD002D2A5EB000298
:104D500002E0A7EB00022A4414440546B442F1D312
:104D6000BDE8F04103F06EB86C00002040420F0037
:104D700010B501214020FDF73FFA09484FF40071BA
:104D8000012401600471847100214171C1710146E7
:104D90000448FCF7EEFF0448C0F8A44210BD000030
:104DA0008400002000180240000043422DE9F05F1B
:104DB0004A4D4FF4007B4FF0010AC5F800B00024C3
:104DC00085F804A085F806A080466C7157462646F3
:104DD000EC7129464248FCF7CCFFDFF80891C9F88E
:104DE000A4621420FFF79AFFC9F8A4721E20FFF7EF
:104DF00097FFC5F800B02E71AF716E71EE71294644
:104E00003748FCF7B6FF4FF47A664D4603E00120C1
:104E1000641CFFF785FFD5F824020028F7D1002491
:104E200003E00120641CFFF77BFFD5F82402002873
:104E3000F7D0002403E00120641CFFF771FFD5F8D0
:104E400024020028F7D10027A946002607250024C0
:104E500003E00120641CFFF763FFD9F82402002857
:104E6000F7D02820FFF75CFFD9F8240268B10AFACE
:104E700005F03043C6B2002403E00120641CFFF7B4
:104E80004FFFD9F824020028F7D16D1EDFD508F8AE
:104E900007607F1C052FD8DB3220FFF741FF98F811
:104EA000001098F8010098F80220014498F80300D7
:104EB0001044084498F80410C0B2814201D1002483
:104EC00001E06FF00504054A121F1168481C1060CC
:104ED00005A0FBF769FA2046BDE8F09F840000209A
:104EE0000018024000004342636E743D25640D0AC1
:104EF0000000000010B5FCF71BFFF320FCF798FE44
:104F000002212020FCF79AFEBDE81040FCF7EABE23
:104F100030B5B7B005460024FCF70AFF3FE14C204E
:104F200004FB00F1A348014404C924920A788DF8D7
:104F300094204A788DF895208A788DF89620CA7842
:104F40008DF897200A798DF898204A798DF8992064
:104F50008A798DF89A20CA798DF89B200A7A8DF883
:104F60009C204A7A8DF89D208A7A8DF89E20CA7AF4
:104F70008DF89F200A7B8DF8A0204A7B8DF8A12018
:104F80008A7B8DF8A220CA7B8DF8A3200A7C8DF83D
:104F9000A4204A7C8DF8A5208A7C8DF8A620CA7CA6
:104FA0008DF8A7200A7D8DF8A8204A7D8DF8A920CC
:104FB0008A7D8DF8AA20CA7D8DF8AB200A7E8DF8F7
:104FC000AC204A7E8DF8AD208A7E8DF8AE20CA7E58
:104FD0008DF8AF200A7F8DF8B0204A7F8DF8B12080
:104FE0008A7F8DF8B220CA7F8DF8B32091F82020F7
:104FF0008DF8B42091F821208DF8B52091F8222069
:105000008DF8B62091F823208DF8B72091F8242050
:105010008DF8B82091F825208DF8B92091F8262038
:105020008DF8BA2091F827208DF8BB2091F8282020
:105030008DF8BC2091F829208DF8BD2091F82A2008
:105040008DF8BE2091F82B208DF8BF2091F82C20F0
:105050008DF8C02091F82D208DF8C12091F82E20D8
:105060008DF8C22091F82F208DF8C32091F83020C0
:105070008DF8C42091F831208DF8C52091F83220A8
:105080008DF8C62091F833208DF8C72091F8342090
:105090008DF8C82091F835208DF8C92091F8362078
:1050A0008DF8CA2091F837208DF8CB2091F8382060
:1050B0008DF8CC2091F839208DF8CD2091F83A2048
:1050C0008DF8CE2091F83B208DF8CF2091F83C2030
:1050D0008DF8D02091F83D208DF8D12091F83E2018
:1050E0008DF8D22091F83F208DF8D32091F8402000
:1050F0008DF8D42091F841208DF8D52091F84220E8
:105100008DF8D62091F843208DF8D72091F84420CF
:105110008DF8D82091F845208DF8D92091F84610C7
:105120008DF8DA1004EB440101EB041150F8210072
:10513000401C09D09DF89410042916D008DC0129E0
:105140000BD0022918D10AE01BA0FBF72DF925E0AE
:1051500008292BD010290FD12AE019A200E01CA2A7
:1051600020A104A8FBF72CF906E00DF195031EA27F
:1051700020A104A8FBF724F99DF8D80004AB9DF802
:10518000DA209DF8D9108DE80F009DF8D7309DF8F2
:10519000D6209DF8D51019A0FBF706F9641CAC4287
:1051A000FFF4BDAEFCF79EFD37B030BD1CA2D7E7C3
:1051B0001EA2D5E700000108BFD50D0A00000000BF
:1051C0006B6579626F61726420756E6C6F636B00E2
:1051D000626C7565746F6F746820756E6C6F636B4D
:1051E000000000002573000064687420646174612D
:1051F0000000000025733A2573000000323025308E
:1052000032782F253032782F2530327820253032F1
:10521000783A253032783A253032782025730A00E2
:105220007266696420756E6C6F636B0073666D20C7
:10523000756E6C6F636B000070B504460025FCF75B
:1052400077FD01E04C346D1C2068401CFAD1FCF75E
:1052500049FD284670BD000070B505460024FCF7E6
:1052600067FD094E28684C21484300EB8400304418
:1052700055F82410FCF73EFD641C132CF2D3BDE856
:105280007040FCF72FBD00000000010810B5012898
:1052900004D0022804D0032809D006E0054901E023
:1052A00004491031102000F065FA002010BD0149BA
:1052B0001039F7E7909E00083EB517A04FF47A64C6
:1052C00007C88DE8070069460C2000F053FA154D19
:1052D00002E00120FFF722FDE86808B9641EF8D15A
:1052E00001F06CFB104908784FF0FF35EF2804D02F
:1052F0004878012801D00DA008E05CB1487A002868
:1053000007D0497A0EA0FBF74FF813A0FBF74CF833
:1053100028463EBD16A0F9E7EF01FFFFFFFF0100A1
:10532000030D0011A00000205C010020C7EBBCECC5
:10533000B2E9D3B2BCFEC1ACBDD30D0A000000007F
:10534000C7E5BFD5D6B8CEC6A3BACAA7B0DC20255C
:105350003032580D0A000000C7EBB2BBD2AAB0B47D
:10536000D1B9D6B8CEC6C4A3BFE90D0A000000006B
:10537000C7E5BFD5D6B8CEC63AB3ACCAB10D0A00A0
:1053800030B585B0EF218DF800100122FF210823F0
:105390008DF801208DF804108DF808308DF802107A
:1053A0008DF8051031238DF803108DF80930002198
:1053B000030A8DF80A308DF80C208DF80B008DF85B
:1053C0000D108DF806203F208DF807108DF80E0087
:1053D0004FF47A6409210DF10600FFF795FC010AEC
:1053E0008DF80F108DF810006946112000F0C2F9F9
:1053F000154D02E00120FFF791FCE86808B9641E32
:10540000F8D101F0DBFA114908784FF0FF35EF28A9
:105410000AD04878012807D00DA0FAF7C5FF13A0DD
:10542000FAF7C2FF16A00BE04CB1487A002804D06E
:10543000497A1AA0FAF7B8FF284605B030BD1EA079
:10544000FAF7B2FFF8E70000A00000205C0100209E
:10545000D7D4B6AFD7A2B2E1D6B8CEC63ACAFDBE4F
:10546000DDB0FCD2ECB3A3A3A10D0A00312EBCEC3D
:10547000B2E9D3B2BCFEC1ACBDD30D0A000000003E
:10548000322EBCECB2E9CAC7B7F1D3D0B0B4D1B9AF
:10549000D6B8CEC6C4A3BFE90D0A0000D7D4B6AFB4
:1054A000D7A2B2E1D6B8CEC6A3BACAA7B0DC20252F
:1054B0003032580D0A000000D7D4B6AFD7A2B2E1FF
:1054C000D6B8CEC63AB3ACCAB10D0A00FEB5064690
:1054D0001AA04FF47A6407C88DE8070069460C20CB
:1054E00000F048F9184D02E00120FFF717FCE868CA
:1054F00008B9641EF8D101F061FA144801784FF040
:10550000FF35EF2904D04178012901D010A007E030
:1055100054B1417A51B1417A12A0FAF745FF19A06E
:10552000FAF742FF2846FEBD1CA0F9E7C17A807A4F
:1055300041EA002030800020FEBD0000EF01FFFFA7
:10554000FFFF0100031D0021A00000205C010020DE
:10555000C7EBBCECB2E9D3B2BCFEC1ACBDD30D0A03
:1055600000000000BBF1C8A1D3D0D0A7D6B8CEC6EA
:10557000D7DCCAFDA3BACAA7B0DC20253032580D4B
:105580000A000000C7EBB2BBD2AAB0B4D1B9D6B8FA
:10559000CEC6C4A3BFE90D0A00000000BBF1C8A13C
:1055A000D3D0D0A7D6B8CEC6D7DCCAFD3AB3ACCAE2
:1055B000B10D0A0070B586B00546EF208DF80000E9
:1055C000FF2001218DF801108DF804008DF80500F1
:1055D0008DF8061008218DF808108DF80200322190
:1055E0008DF803008DF80910002050218DF8070078
:1055F0008DF80A1029884FF47A64090A8DF80B1087
:1056000029788DF80C108DF80D0007208DF80E000C
:1056100009210DF10600FFF777FB010A8DF80F1045
:105620008DF810006946112000F0A4F81D4E02E02C
:105630000120FFF773FBF06808B9641EF8D101F090
:10564000BDF9194801784FF0FF36EF290AD04178AB
:10565000012907D015A0FAF7A7FE1BA0FAF7A4FEB0
:105660001EA008E034B1417A51B1417A22A0FAF784
:105670009BFE02E027A0FAF797FE304606B070BD09
:10568000817B427B41EA0221A1F57F42FF3A06D0AD
:10569000017BC07A41EA002028800020EEE722A0AA
:1056A000E9E70000A00000205C010020D7D4B6AFDD
:1056B000D1E9D6A4D6B8CEC63ACAFDBEDDB0FCD27A
:1056C000ECB3A3A3A10D0A00312EBCECB2E9D3B216
:1056D000BCFEC1ACBDD30D0A00000000322EBCECF4
:1056E000B2E9CAC7B7F1D3D0B0B4D1B9D6B8CEC633
:1056F000C4A3BFE90D0A0000D7D4B6AFD1E9D6A440
:10570000D6B8CEC6A3BACAA7B0DC20253032580D11
:105710000A000000D7D4B6AFD1E9D6A4D6B8CEC619
:105720003AB3ACCAB10D0A00D7D4B6AFD1E9D6A40A
:10573000D6B8CEC6A3BAB7D6CAFDD6B5D2ECB3A3F7
:10574000A3ACBFC9C4DCC3BBD3D0B4E6D4DAB8C3FE
:10575000D6B8CEC60D0A000010B501F0A1F84FF47E
:10576000614001F0D7F800F033F8BDE8104000F0D8
:105770001FB800002DE9F0410D46064600240A4FEF
:105780000AE0295D3846FDF7A5FB80213846FDF784
:1057900009FB0028F9D0641CB442F2DB0349002065
:1057A000C8608860BDE8F08100440040A00000208F
:1057B0000EB504A007C88DE8070069460C20FFF766
:1057C000D9FF0EBDEF01FFFFFFFF010003330037DC
:1057D00070B501211020FCF70FFD01218803FCF7B3
:1057E00023FD1348402500260560067103244471FB
:1057F0000221C17101460F48FCF7BBFA06210420C3
:10580000FDF78AF80A4808210830056006714171E1
:1058100001258571FCF7D4F905481721001F017097
:1058200044708470C570BDE87040FCF709BB00008F
:10583000B80000200010024004490A885206FCD536
:10584000024AC1B2121D118070470000004800409A
:10585000064902220A6008710120887103204871FC
:105860000020C8710248FCF784BA00008C000020B8
:105870000004024070B50120FFF7EAFF0A4C012046
:10588000C4F88802C4F8840204F52174FFF748FACA
:10589000002525600120FFF743FA6560BDE87040F0
:1058A0000120FFF73DBA00000080404270B50120A2
:1058B000FFF7CEFF0A4C0020C4F88802C4F8840227
:1058C000012004F52174FFF72BFA012565602846B5
:1058D000FFF726FA2560BDE870400120FFF720BAE7
:1058E0000080404270B500242046FFF7B1FF0A4D0A
:1058F0000120C5F88802FFF713FAD5F8040210B1A9
:105900000124FFF7D3FF0020C5F888020120FFF72C
:1059100007FA204670BD0000008040422DE9FC419E
:1059200001210820FCF768FC01211020FCF764FC31
:1059300001212020FCF760FC01214020FCF75CFCE9
:10594000012500248DF804408DF807502E038DF8B2
:105950000540694613480096FCF70BFA44F2100024
:10596000114F009069463846FCF703FA80200090FA
:1059700069460E48FCF7FDF98DF804508DF8075084
:105980008DF805408DF80640694609480096FCF7F9
:10599000F0F948F22200009069463846FCF7E9F930
:1059A000BDE8FC8100140240000C024000100240DF
:1059B0000018024070B5124C4E25207820B1012805
:1059C00009D002281AD110E0FDF70AFB4E2815D0A5
:1059D0006070012007E0FDF703FB4E280ED06178D0
:1059E00088420BD10220207008E0FDF7F9FA4E281A
:1059F00004D16578002020704E206070284670BD6C
:105A00009C00002070B5012186B00846FCF7F4FB2D
:105A100001211020FCF7F0FB01218803FCF704FCB6
:105A200000248DF80840032601258DF809600195B2
:105A30008DF80B4001A92F48FCF79BF91C208DF82D
:105A4000084001908DF809608DF80B4001A92A48A3
:105A5000FCF78FF900210846FCF75EFF02210420C5
:105A6000FCF75AFF03210420FCF756FF04210846E7
:105A7000FCF752FF1D2003908DF810400C208DF88C
:105A800011008DF8125003A8FCF79AF806208DF843
:105A9000000005248DF801408DF802408DF8035078
:105AA0006846FCF7CDF908208DF800008DF801401C
:105AB0008DF802408DF803506846FCF7C1F90920C3
:105AC0008DF800008DF801408DF802408DF80350EC
:105AD0006846FCF7B5F90A208DF800008DF8014002
