:020000040800F2
:10000000903E0120D5030008C32100087921000893
:10001000C1210008E31D00085D3300080000000056
:1000200000000000000000000000000015030008B0
:10003000E51D00080000000071030008AD2D000858
:10004000EF030008EF030008EF030008A52B0008EA
:10005000EF030008EF030008E91D0008EF030008A4
:10006000251E0008611E00089D1E0008EF03000801
:10007000EF030008EF030008EF030008EF03000898
:10008000EF030008EF030008EF030008EF03000888
:10009000EF030008EF030008EF030008D91E000873
:1000A000EF030008EF030008EF030008EF03000868
:1000B000352E0008B12E0008EF030008EF030008FA
:1000C000EF030008EF030008EF030008EF03000848
:1000D000EF03000831300008B53000080131000896
:1000E000EF03000851270008EF030008EF030008A2
:1000F000EF030008EF030008EF030008EF03000818
:10010000EF030008EF030008EF030008EF03000807
:10011000EF030008EF030008EF030008EF030008F7
:10012000EF030008EF030008EF030008EF030008E7
:10013000EF030008EF030008EF030008EF030008D7
:10014000EF030008EF030008EF030008EF030008C7
:10015000EF030008EF030008EF0300086131000817
:10016000EF030008EF030008EF030008EF030008A7
:10017000EF030008EF030008EF030008EF03000897
:10018000EF030008EF03000800F002F800F0B2F8F7
:100190000AA090E8000C82448344AAF10107DA45E2
:1001A00001D100F0A7F8AFF2090EBAE80F0013F082
:1001B000010F18BFFB1A43F001031847B8DF000016
:1001C000D8DF00000A444FF0000C10F8013B13F098
:1001D000070408BF10F8014B1D1108BF10F8015BA0
:1001E000641E05D010F8016B641E01F8016BF9D193
:1001F00013F0080F1EBF10F8014BAD1C0C1B09D1EA
:100200006D1E58BF01F801CBFAD505E014F8016B5B
:1002100001F8016B6D1EF9D59142D6D370470000ED
:100220000023002400250026103A28BF78C1FBD8FF
:10023000520728BF30C148BF0B6070476E2900F0DD
:100240002884702900F0DB8166290BF01F86652960
:100250000BF01C8667290BF019866129AFF300802B
:1002600003681B0A28BF41F08001692900F04C8116
:10027000642900F04981752900F046816F2900F05A
:100280002D87782900F0A781E92900F0C786E429A5
:1002900000F0C486F52900F0C186EF2900F02A8716
:1002A000F82900F0A6810368DB0928BF41F080012E
:1002B000632900F03686732900F03B86E32901F0BC
:1002C0004F80F32901F05480002070471FB50BF0D8
:1002D000D8FD00F0B1FF0400002000210BF044FD28
:1002E000401C6060002000210BF028FDE0601FBD75
:1002F00010B510BD01F040F91146FFF7E7FF08F017
:100300002DFE01F06CF903B4FFF7F2FF03BC03F01C
:100310004BF900002C4B19680868B0E8F04F80F3E7
:100320000988BFF36F8F4FF0000080F3118870478A
:100330000000000008480068006880F308884FF05B
:10034000000080F3148862B661B6BFF34F8FBFF32D
:100350006F8F00DF00BF00BF08ED00E0DFF80C008A
:10036000016841F470010160704700BF88ED00E052
:10037000EFF30980BFF36F8F134B1A681EF0100F55
:1003800008BF20ED108A20E9F04F106009B44FF04B
:10039000500080F31188BFF34F8FBFF36F8F0AF0C7
:1003A00089FD4FF0000080F3118809BC19680868C6
:1003B000B0E8F04F1EF0100F08BFB0EC108A80F3C9
:1003C0000988BFF36F8F704744010020EFF3058069
:1003D000704700000948804709480047FEE7FEE7EC
:1003E000FEE7FEE7FEE7FEE7FEE7FEE7FEE7FEE7E5
:1003F00004480549054A064B70470000D92D0008FE
:100400008901000890380120903E0120903A012097
:10041000903A0120704700000A46014900F08EBD65
:10042000300100200FB4044910B503AA029800F06F
:1004300085FD10BC5DF814FB300100200FB41CB525
:10044000084B06AA7B4469460090059800F047FDDA
:1004500004460020694600F055FD20461CBC5DF8AE
:1004600014FB0000BD0A000070B5044685690068F1
:10047000C10601D5302600E02026C00707D070BD98
:10048000D4E9012130469047206A401C20626D1E4D
:10049000F6D570BD70B5044685690078C00707D1F0
:1004A00070BDD4E9012120209047206A401C2062C1
:1004B0006D1EF6D570BD70B50C460546012A05D0F7
:1004C0002878800600D5EA69002302E0012305E0D0
:1004D0005B1C934202D2E05C0028F9D1A869E618BF
:1004E000C01AA861286A184428622846FFF7BCFF92
:1004F00004E0D5E9012114F8010B9047B442F8D388
:100500002846FFF7C7FF70BD2DE9F04106460024DD
:1005100010687529314616A510D000F04FFA002852
:1005200002DA404213A507E031688A0701D512A517
:1005300002E0490704D511A5012401E000F047FAC3
:1005400000210A2206F1240709E0B0FBF2FCB0FB0F
:10055000F2F302FB1C00303078541846491C002886
:10056000F3D123462A463046BDE8F04100F038BAC0
:10057000000000002D0000002B0000002000000003
:10058000F0B40D460188090502D5214C7C4402E0F7
:100590001F4C7C440E34002100F1240608E002F0D8
:1005A0000F071209E75D42EA03721B097754491CE1
:1005B00052EA0307F3D102780023120704D5702D05
:1005C00006D009B1022311342246F0BC00F008BA6B
:1005D00001231034F8E770B504460D462146106833
:1005E00000F0F5F9024629462046BDE87040002398
:1005F000C6E7D21D22F00703D3E90023C0E7036852
:10060000126843F0200303600823C3610023B7E7A7
:1006100034D600002DE9F05F894604464FF0000A09
:10062000DFF874B1FB44C0F820A02046E168884799
:10063000002874D0252806D0D4E901219047206AEB
:10064000401C2062F1E700265F462046E1688847AB
:100650002028054607DB312D05D2781910F8200C2B
:1006600008B10643F1E7B00701D526F00406C4F847
:100670001CA00027C4F818A02A2D09D0284602F093
:10068000E7FE38B304EB8708303DC8F8185019E08E
:1006900059F8041B204604EB87029161E168884702
:1006A000012F054618D1E069002820DA26F020063F
:1006B0001DE0D8F8180000EB800005EB4000303852
:1006C000C8F818002046E1688847054602F0C0FED9
:1006D0000028EED1012F0AD02E2D08D12046E16846
:1006E00088477F1C0546022F46F02006C4DBA06920
:1006F000002803DA404246F00106A061F00701D06D
:1007000026F010066C2D0BD0682D09D04C2D39D059
:100710006A2D35D0742D35D07A2D33D016E038E0DF
:10072000E1682F4620468847B842054609D16C2F1C
:1007300026D04FF48060E16806432046884705468E
:1007400004E06C2F1AD04FF4807006430DB3A5F16E
:100750004100192802D8203546F400664A46294649
:10076000204626604E46FFF769FD80B101280BD078
:10077000F61D26F0070000F1080956E74020E4E7DF
:100780008020D8E70020D6E706F104094DE7284687
:1007900052E7206ABDE8F09FC4D5000070B5064658
:1007A00000F008F90468054630460A22002100F0EE
:1007B000ABFC2C6070BD0000014A00F0DDBC000005
:1007C000B801002030B505460B462A4613F8014B08
:1007D00012F8010B08B1A042F8D01CB1002802D0D9
:1007E0006D1CF1E7284630BD40EA010310B59B07B8
:1007F0000FD1042A0DD310C808C9121F9C42F8D08B
:1008000020BA19BA884201D9012010BD4FF0FF303B
:1008100010BD1AB1D30703D0521C07E0002010BD51
:1008200010F8013B11F8014B1B1B07D110F8013BDD
:1008300011F8014B1B1B01D1921EF1D1184610BDBE
:1008400010B5431C02E010F8011B71B18107FAD109
:100850004FF0013202C88C1A8C4314EAC211F9D04D
:10086000C01A0A0603D0C01E10BDC01A10BD0A046B
:1008700001D0801E10BD0902FCD0401E10BD032A0D
:1008800040F2308010F0030C00F0158011F8013BAD
:10089000BCF1020F624498BF11F801CB00F8013B94
:1008A00038BF11F8013BA2F1040298BF00F801CB58
:1008B00038BF00F8013B11F0030300F07F84083AD1
:1008C000C0F0088051F8043B083A51F804CBA0E886
:1008D0000810F5E7121D5CBF51F8043B40F8043BDB
:1008E000AFF30080D20724BF11F8013B11F801CB10
:1008F00048BF11F8012B24BF00F8013B00F801CBE1
:1009000048BF00F8012B704702F0FF0343EA0322BF
:1009100042EA024200F002B84FF000020429C0F09F
:10092000128010F0030C00F01B80CCF1040CBCF121
:10093000020F18BF00F8012BA8BF20F8022BA1EB73
:100940000C0100F00DB85FEAC17C24BF00F8012B58
:1009500000F8012B48BF00F8012B70474FF0000250
:1009600000B5134694469646203922BFA0E80C50A5
:10097000A0E80C50B1F12001BFF4F7AF090728BF80
:10098000A0E80C5048BF0CC05DF804EB890028BFFC
:1009900040F8042B08BF704748BF20F8022B11F025
:1009A000804F18BF00F8012B7047704770477047A1
:1009B00070470000004870473038012009684A0538
:1009C00001D540B27047C905FCD500B2704709682F
:1009D0004A0501D5C0B27047C905FCD580B2704741
:1009E0002DE9F0470D4699469246044600F1240849
:1009F0000168880604D5E06921F01001216000E05B
:100A00000120A84201DD471B00E00027A1697A19F7
:100A100002EB0900081AA0612078C00602D4204623
:100A2000FFF722FD002608E0D4E901211AF80600AC
:100A30009047206A401C761C20624E45F4DB2078EB
:100A4000C0060AD52046FFF70FFD06E0D4E90121D4
:100A500030209047206A401C2062381EA7F1010711
:100A6000F4DC07E0D4E9012118F805009047206A7A
:100A7000401C2062281EA5F10105F3DC2046FFF78B
:100A800009FD2078000602D50220BDE8F08701208C
:100A9000FBE711680268006A530501D508700AE097
:100AA000D30501D5088006E0130603D5C217C1E9B6
:100AB000000200E008600120704770472DE9FF4FF9
:100AC0000C461E464FF0FF378BB0D2E90001DDF82F
:100AD00060800A908A46C1F30A5505B93D46002157
:100AE00008464FF00000BAF1000F00F4400005DAAC
:100AF00000EB80004FF4400101EA50004FEA9059AA
:100B0000B9F1010F00DDB9460A9850EA4A000ED04B
:100B100044F61050A5F2FF3545432F14B8F1000FED
:100B20001ED07542291E1EDDC9F100021CE0B8F17D
:100B3000010F4FF0000001D0302103E0F24305E047
:100B40002154401CB042FBDB3046002200212154DE
:100B50000B99C1F80880C1E900200FB0BDE8F08F03
:100B6000BD1B6D1CDEE74A4600DA694206A800F0AC
:100B700053FC06AB93E8070003AB83E8070050463D
:100B80000A9900F073FD8DE80700A0F500501F38AA
:100B900000900398002D09DD42F21F014A460844E7
:100BA00003A90390684600F0D2FF08E0A0F50050CA
:100BB0004A461F3803A90390684600F0DCFF8DE821
:100BC00007000004000C03D04FF0FF30410800E0A4
:100BD0001046B8F1000F03D00022009215461EE027
:100BE000751E05D400F02CFB303262556D1EF9D510
:100BF000B3460122084302D000227F1C04E0207883
:100C0000302801D100227F1E002A099786D01DE0DE
:100C1000112D07DA00F014FB303262556D1C50EADA
:100C20000102F5D1084302D00098C8B10EE00021BE
:100C3000681E05E0235C625C63542254401E491C1C
:100C40008142F7DBAB46A81B401E0990002004F848
:100C50000B000B98099AC0F80880C0E9002B7CE7CC
:100C600011264FF0000859E72DE9F04F8846044659
:100C7000D21D22F0070191B0D1E90001CDE90A01AE
:100C800002F0CEFB02460B98C00F01D02D2007E0EA
:100C90002068810701D52B2002E0202101EAC00055
:100CA000032A099001D0072A05DB03464146204666
:100CB00000F00CFB0BE12078800601D5E06900E034
:100CC0000620B8F1650F814606D0B8F1660F18D03E
:100CD000B8F1670F70D131E00020B9F1110F009029
:100CE00001DB112301E009F101030AAA01A90CA803
:100CF000FFF7E4FEDDE90C70002609F101058346EB
:100D000047E001204B4600904FF000470AAA01A996
:100D10000CA8FFF7D3FEDDE90DB00C995D46002667
:100D200010B909F101000D18B9EB050003D4C0F1A9
:100D3000FF3609F10105A5EB09002BE0B9F1010F20
:100D400001DA4FF001090020B9F1110F0090484677
:100D500001DD112300E003460AAA01A90CA8FFF750
:100D6000ADFEDDE90C704D46002683462078000775
:100D70000AD4AB4500DA5D4601A8012D04DD411916
:100D800011F8011C302907D04F4502DA17F1040F82
:100D900004DA012082460FE06D1EEEE7002F02DC30
:100DA000ED1B3E4403E0781CA84200DD7D1CB81B0F
:100DB00000F1010A4FF000472078000703D4AA454C
:100DC00001DB4FF0FF3A0021B7F1004F0DF143086E
:100DD0008DF8431024D002202B23002F01DA7F420C
:100DE0002D230A21021EA0F1010000DC5FB197FB58
:100DF000F1FC97FBF1F201FB1C7C17460CF1300C67
:100E000008F801CDEEE7A8F101000370218809057B
:100E100001D5452100E06521A0F1010800F8011C81
:100E200009980FA9A1EB0807FF1D00B10120411986
:100E300001EBEA70A1693844081A401EA0612078CD
:100E4000C00602D42046FFF70FFB099828B1D4E969
:100E500001219047206A401C20622078C00622D5DC
:100E60002046FFF701FB1EE0002E04DBB34502DD48
:100E700001A8805D00E03020D4E901219047206A7C
:100E8000401C2062761CAAF101005FEA000A0AD128
:100E900000F0D2F9C0680168405CD4E901219047B4
:100EA000206A401C2062281EA5F10105DCDC07E059
:100EB000D4E9012118F8010B9047206A401C2062F8
:100EC000381EA7F10107F3DC2046FFF7E3FA032001
:100ED00011B043E601694A1C02610878704700B509
:100EE0008FB0CDE901310021059105497944CDE963
:100EF000031011466846FFF78DFB0FB000BD0000E0
:100F0000E5FFFFFF0A6802F8010B0A60704710B5A1
:100F1000436913B1AFF3008001E0FFF7CCFA012081
:100F200010BD127800F124010A7000224A700122DB
:100F3000EDE711684FF0FF32E9E70000074B70B5AD
:100F40000D467B44FFF7CBFF0446284600F0D2FA5B
:100F500010B14FF0FF3070BD204670BDA76F00008C
:100F60002DE9FF5F15468A460446DFF8AC80F84459
:100F70000027D8E900103E46CDE9001010E03AF80D
:100F800016106A4602A800F0B9FA411C07D0217871
:100F9000890603D5E269391891420DD80744761CB9
:100FA0002078800602D5E069B84205DDAE42E6DB76
:100FB0003AF816000028E2D1A069C01BA0612046C3
:100FC000FFF752FAD8E90010CDE90010002017E031
:100FD0003AF818106A4602A800F090FAB0F1FF3F04
:100FE00081460BD000250DF1080B05E0D4E9012165
:100FF0001BF8050090476D1C4D45F7D308F1010023
:10100000B0428046E4DB206A384420622046FFF785
:1010100041FABDE8FF9F00008ECC00002DE9F041B1
:101020008046D21D22F007020025D2E90002F529F0
:1010300015A614D0011E72F1000106DA0023D0EBD0
:10104000030063EB020211A608E0D8F800108B073A
:1010500001D50FA602E0490701D50EA601251146CC
:10106000002408F1240704E000F0EAF830323A5591
:10107000641C50EA0102F7D12B4632462146404615
:10108000BDE8F041FFF7ACBC000000002D000000FF
:101090002B0000002000000030B4002100F12404E7
:1010A00008E002F00705D208303542EA4372DB0857
:1010B0006554491C52EA0305F3D10468002310A2C9
:1010C000250708D504F020040C4304D0C46901238B
:1010D0000CA2641EC46130BCFFF782BC10B504468C
:1010E00021461068FFF773FC02462046BDE8104019
:1010F0000023D1E7D21D22F00701D1E90023CBE77D
:1011000000000000300000002DE9F04791460F4636
:1011100080460446002614F8015B2DB100F084F8E7
:101120000068405DC007F6D12B2D02D02D2D18D0C0
:10113000641E4A463946204600F01EF927B1396838
:10114000A14201D1C7F800804FF0020471050BD510
:101150004042002803DDFFF72DFC0460A007BDE836
:10116000F08746F48066E4E70028F8DAFFF722FC0F
:1011700004606FF00040F2E72DE9F04115460E469D
:10118000040002D12C6804B90BA4204600F0E6F953
:101190000444207870B127463146384600F0CEF935
:1011A0000444207810B1002004F8010B38462C606C
:1011B000BDE8F0810027F9E70000000010B5203AF3
:1011C000C0F00B80B1E81850203AA0E81850B1E800
:1011D0001850A0E81850BFF4F5AF5FEA027C24BFB6
:1011E000B1E81850A0E8185044BF18C918C0BDE8AD
:1011F00010405FEA827C24BF51F8043B40F8043B76
:1012000008BF7047D20728BF31F8023B48BF11F82A
:10121000012B28BF20F8023B48BF00F8012B704784
:10122000004870473038012010B500F005F8001D67
:1012300010BD00BF35AB000000487047503801209A
:1012400030B5B0F10A024FEA900E71F100034EEA98
:10125000817EB0EB0E0061EB91014FEA101E4EEA69
:10126000017E10EB0E0041EB11114FEA102E4EEAF9
:10127000016E10EB0E0041EB11214FEA104E4EEAC9
:10128000014E10EB0E0041EB1141401841F10001FD
:101290004FEAD00040EA41704FEAD10110EB8005DF
:1012A0004FEA810444EA907444EB01046D1944EB65
:1012B0000404521BA3414FF0000348BF0A3200D57B
:1012C00030BD401C41F1000130BD00002DE9F0416E
:1012D0001F46044603260168072A01F4006004DB68
:1012E00008B116A505E016A503E008B115A500E0B4
:1012F00015A521F010002060A069C01EA0610FB1EB
:10130000401EA0612046FFF7AFF84FB1D4E901219C
:1013100038469047206A401C2062C01C206206E0CC
:10132000206AFAE7D4E9012115F8010B9047761EEF
:10133000F8D22046FFF7AEF8BDE8F0814E414E00EE
:101340006E616E00494E4600696E660010B54369D5
:1013500013B1AFF3008001E0FFF702FE012010BDE2
:10136000128800F1240182840022C2840122EDE768
:1013700011684FF0FF32E9E72DE9F05F824615462C
:101380008B4600270AF10104B9460078302801D0C5
:101390009DB113E014F8010B0127782803D05828D9
:1013A00001D045B10AE00DB1102D07D1002714F886
:1013B000010B102502E0082500E00A250026B046B2
:1013C0000EE005FB080005FB06F101271FFA80F877
:1013D00001EB1046B6F5803F00D3B94614F8010B77
:1013E000294600F0EEF80028EBDABBF1000F05D03B
:1013F0000FB1641E00E05446CBF80040B9F1000F75
:1014000006D0FFF7D7FA02210160C81EBDE8F09FA1
:1014100048EA0640FAE700002DE9F0478146164603
:101420008AB0334878440DC88DE80D0030487844C0
:10143000801C03AC0DC884E80D0041F69B300844C5
:10144000372190FBF1F290FBF1F5A5F1800501FB4E
:1014500012041B3C02D56442012000E00020DFF8AA
:1014600090A080460027FA44AAF1BE0A0DE0E007EA
:1014700009D03246684607EB47010AEB810100F0CC
:101480007AFB8DE8070064107F1C002CEFD1184F09
:101490007F44AC3F18E0E80714D007EB04100DF1CF
:1014A000180A90E80E008AE80E00C068F04201D1E8
:1014B00098190890324606A903A800F05CFB03AB1C
:1014C00083E807006D10641C002DE4D132466946A4
:1014D000B8F1000F03A802D000F039FB01E000F0E2
:1014E0004AFBC9E90001C9F808200AB0BDE8F08745
:1014F0005CC80000007B00F08000704770B51646A5
:101500000C460546FFF790FE036893F80101012899
:1015100006D0FF2C0FD8185D68B101202C7070BD6B
:10152000D3F807013246214603F207130344284645
:10153000BDE8704018474FF0FF3070BD30B503462E
:101540001D781DB10A4603E0AC4201D1181A30BD26
:1015500012F8014B002CF7D15B1CF1E730B50346C4
:101560001D783DB10A4612F8014B1CB1AC42FAD1CC
:101570005B1CF5E7181A30BD7546FFF751FEAE4605
:1015800005006946534620F00700854618B020B58F
:10159000FEF72EFFBDE820404FF000064FF0000799
:1015A0004FF000084FF0000B21F00701AC46ACE80B
:1015B000C009ACE8C009ACE8C009ACE8C0098D4678
:1015C00070473A2800D2303820F02002412A01D357
:1015D000A2F13700884201D34FF0FF307047044634
:1015E000AFF300802046FEF78EFE00004FF0013C76
:1015F00050F8042B51F8043B9A4221D1A2EB0C0382
:10160000934313EACC1317D150F8042B51F8043B41
:101610009A4215D1A2EB0C03934313EACC130BD1DE
:1016200050F8042B51F8043B9A4209D1A2EB0C0369
:10163000934313EACC13DBD04FF00000704700BF98
:10164000D01A01BAB1FA81F101F0180122FA01F0C1
:10165000CB40C1F12001DBB2C0B2C01A2CFA01F3B9
:10166000D11A914311EAC311E6D170475FEA400CE9
:1016700008BF91F0000F4FEA8C234FEAC12243EAE2
:1016800051514FEA1C5018BF00F5F0404FEA3000AE
:1016900018BF41F000415FEA6C5C00F02980BCF1AA
:1016A000FF3F08BF40F080407047130C06BF120494
:1016B0004FF0100C4FF0000C130E04BF12020CF18F
:1016C000080C130F04BF12010CF1040C930F04BF9C
:1016D00092000CF1020CD30F04BF52000CF1010C6C
:1016E00011464FF00002A0F11F00A0EB0C00704764
:1016F00011F0004F08BF704731F000413FF4D5AF03
:101700000B0C06BF09044FF0100C4FF0000C0B0E31
:1017100004BF09020CF1080C0B0F04BF09010CF106
:10172000040C8B0F04BF89000CF1020CCB0F04BF1B
:1017300049000CF1010CCCF12003A0EB0C0022FAC3
:1017400003F302FA0CF241EA030100F101007047D1
:1017500020F07F4C80EA030023F07F47ACEB0703C7
:1017600003F57C5300F0004003F1FF032DE98049AD
:101770004FEA154B09B44FEA144325EA0B4E24EA0D
:1017800003480FF2042606EB132749083E785FEA68
:10179000320203FB0667C7F5000707FB06F64FEAB0
:1017A00054374FEAD64606F1020607FB066CCCF129
:1017B000005C4FEA1C472CEA074C07FB06F40CFBC5
:1017C00006F504EB15464FEA961634BF00204FF09D
:1017D00000404FEAD13706FB07FC4FEA1C4C0CFBDC
:1017E0000BF7D21B03FB0CF761EB07010CFB0EF7A9
:1017F000B0EB074072EB17420CFB08F734BFA2EBCB
:101800000742B2EB074261EB17414FEA0C444FEA43
:10181000910706FB07FC4FEA1C4C0CFB0BF7B0EBE7
:10182000C74072EB573203FB0CF734BFA2EBC74241
:10183000B2EBC74261EB57310CFB0EF7B0EBC700C0
:1018400072EB57720CFB08F734BFA2EBC702B2EB86
:10185000C70261EB5771039F4FEA816141EA921120
:1018600004EBCC044FEAD1374FEA826206FB07FC57
:1018700042EA90124FEA80604FEA1C4C0CFB0BF7D7
:10188000D21B03FB0CF761EB07010CFB0EF7B0EB6F
:10189000074072EB17420CFB08F734BFA2EB07427C
:1018A000B2EB074261EB17414FEA8C554FEA9107C3
:1018B00004EB9C2406FB07FC4FEA1C4C0CFB0BF7CB
:1018C000B0EBC74072EB573203FB0CF734BFA2EB0F
:1018D000C742B2EBC74261EB57310CFB0EF7B0EBDE
:1018E000C70072EB57720CFB08F734BFA2EBC702BC
:1018F000B2EBC70261EB577115EB4C254FEA8161E2
:1019000041EA92114FEA82624FEAD13742EA9012DD
:1019100006FB07FC44F100044FEA80604FEA1C4CD0
:101920000CFB0BF7D21B03FB0CF761EB07010CFB65
:101930000EF7B0EB074072EB17420CFB08F734BF11
:10194000A2EB0742B2EB074261EB174115EB1C1506
:101950004FEA813141EA92414FEA823242EA9042B3
:101960004FEA80304FEA0C7644F1000448EA034322
:101970004EEA0B484FF0000EB2EB080C71EB030778
:1019800024BF624639464EEB0E0E4FF0000B001896
:10199000524149414BEB0B0BB2EB080C71EB0307C7
:1019A0007BF1000B24BF624639464EEB0E0E4FF022
:1019B000000B0018524149414BEB0B0BB2EB080CEA
:1019C00071EB03077BF1000B24BF624639464EEBF7
:1019D0000E0E51EA020718BF46F0010616EB0E760E
:1019E00055F1000254F1000103D5BDE88901BDE8BD
:1019F0000088BDE88901BDE80048B619524141EBB5
:101A00000101A3F10103704780807F7E7D7C7B7A9A
:101A10007978777676757473727171706F6E6E6D9A
:101A20006C6C6B6A6A696868676666656464636340
:101A300062616160605F5F5E5E5D5D5C5C5B5B5AC6
:101A40005A59595858575756565555555454535333
:101A500052525251515050504F4F4F4E4E4D4D4D8E
:101A60004C4C4C4B4B4B4A4A4A49494948484847D9
:101A70004747474646464545454444444443434317
:101A80004342424242414141002B26D4770021D0BB
:101A90001CB54FEA370703B44FF010004FF01001A8
:101AA0004FF000000FBCBDE810400BF1010BBBF183
:101AB000010F08BF5FEA170722BF12F1010211F1FF
:101AC00001014FF0004143F1000300F0004043EA00
:101AD00000007047F9D35708DAE746EA064613F1E3
:101AE000400F4FEA16461FDD13F1200FDFBF1643EC
:101AF0000A46002120335B42C8D0C3F1200746EAE2
:101B0000064602FA07F74FEA164646EA0706C3F109
:101B1000200722FA03F201FA07F721FA03F14FF046
:101B2000000342EA0702B1E746EA020646EA064631
:101B30004FEA164646EA0106BCBF46EA0646360CA0
:101B40004FF000034FF000024FF000019EE72DE937
:101B5000C048934630B491E8380007C831EA400CD9
:101B600048BF34EA430C03D5FFF7F2FDFFF78CFFC3
:101B7000F0BCBDE800882DE9C048934630B491E838
:101B8000380007C810F0804F08BF13F0804F03D112
:101B900000F005F8FFF778FFF0BCBDE8008820F002
:101BA0007F4780EA030023F07F4C07EB0C03A3F58B
:101BB0007C5300F00040A3F1FE0392F0000F00F010
:101BC000B38095F0000F00F077802DE901494FEACE
:101BD00011404FEA144621EA004800FB06FC24EAC3
:101BE000064708FB06F607FB08F800FB07F718EBAB
:101BF00006484CEB164C4FEA124B18EB07484FEADD
:101C000015464CEB174022EA0B4E0BFB06FC25EA6F
:101C100006470EFB06F607FB0EFE0BFB07F71EEB57
:101C2000064E4CEB164C4FF000061EEB074E4CEBED
:101C3000174B18EB0B0840F1000018EB0E0B58EB9C
:101C4000000840F100008F1A4FF000013CBFC9436B
:101C5000661B14BFB5EB040C00213CBFC943F61B47
:101C60004FEA17444EEA8E0E27EA04454FEA1C4716
:101C700004FB07622CEA074C05FB07F70CFB05F693
:101C800004FB0CFC16EB074642EB174216EB0C4626
:101C900042EB1C421BEB060658EB0202414146EAAE
:101CA0009E0601D5BDE80189B619524141EB0101FB
:101CB000A3F10103BDE801894FEA14454FEA11473A
:101CC00024EA054621EA074C05FB07F406FB07F763
:101CD0000CFB06F105FB0CFC11EB074144EB174430
:101CE0004FEA124711EB0C4144EB1C4422EA074C2B
:101CF00005FB07F206FB07F70CFB06F605FB0CFCE1
:101D000016EB074642EB174216EB0C4642EB1C451E
:101D10006A1854F1000148BF7047B619524141EBAF
:101D20000101A3F10103704795F0000F37D04FEA8E
:101D300011424FEA144721EA024624EA074C02FB0B
:101D400007F106FB07F70CFB06F402FB0CFC14EB97
:101D5000074441EB17414FEA154714EB0C4441EBA4
:101D60001C4125EA074C02FB07F506FB07F70CFBB5
:101D700006F602FB0CFC16EB074645EB174516EB87
:101D80000C4645EB1C42121951F1000148BF704747
:101D9000B619524141EB0101A3F1010370474FEA2B
:101DA00014454FEA114724EA054621EA074C05FB92
:101DB00007F106FB07F70CFB06F24FF0000605FBE8
:101DC0000CFC12EB074241EB174112EB0C4251EBBA
:101DD0001C4148BF7047921841EB0101A3F1010378
:101DE0007047FEE77047000010B55020EFF31184F4
:101DF00080F31188BFF34F8FBFF36F8F012000F086
:101E000083F8012808D1064800220121006809F062
:101E1000E9F8012000F072F884F3118810BD000089
:101E20006000002010B55020EFF3118480F311887A
:101E3000BFF34F8FBFF36F8F042000F065F80128C8
:101E400008D1064800220221006809F0CBF80420DE
:101E500000F054F884F3118810BD000060000020E9
:101E600010B55020EFF3118480F31188BFF34F8F2A
:101E7000BFF36F8F082000F047F8012808D106480B
:101E800000220421006809F0ADF8082000F036F8BF
:101E900084F3118810BD00006000002010B55020B0
:101EA000EFF3118480F31188BFF34F8FBFF36F8F6F
:101EB000102000F029F8012808D106480022082146
:101EC000006809F08FF8102000F018F884F31188EA
:101ED00010BD00006000002010B5402000F014F894
:101EE000002807D0044901204860BDE81040402088
:101EF00000F004B810BD0000F000002001490860A7
:101F000070470000143C0140034A0146002012685B
:101F10000A4200D001207047143C014030B51A4AF3
:101F20008379016853B313688B431360111D0B68E9
:101F30000468A3430B60017911440B6804682343D0
:101F40000B60114B083319680468A14319601C1D0C
:101F500021680568A94321604179102905D0114401
:101F60000A68006802430A6030BD196802681143BC
:101F70001960216800680143216030BD0079104478
:101F800002688A43026030BD003C0140014908609C
:101F9000704700000C3C024070B50646002529B190
:101FA000012927D0022928D04FF4407500F080F88D
:101FB00009281ED1124C206820F44070206020684F
:101FC00028432060206820F0F8002060206846F058
:101FD000020108432060206840F48030206000F057
:101FE00067F8216821F002012160216821F0F801E1
:101FF000216070BD4FF48075D8E74FF40075D5E7C8
:10200000103C02400D4909200A68D20301D5012085
:1020100070470A68D20601D5062070470A68D205C3
:1020200001D5022070470A6812F0EF0F01D0072097
:10203000704709688907FBD5082070470C3C0240AF
:102040000248016841F0004101607047103C0240C5
:1020500070B50D46064600F02BF8092813D10A4C3E
:10206000206820F440702060206840F400702060F8
:10207000206840F001002060356000F019F8216808
:1020800021F00101216070BD103C0240054800684C
:10209000002805DA034804490C380160034901604F
:1020A00070470000103C024023016745AB89EFCD2B
:1020B00008B509208DF80000FFF7A4FF8DF8000097
:1020C0009DF800000128F7D09DF8000008BDF0B58C
:1020D000002201274FF0030C0B6807FA02F52B4092
:1020E000AB422CD1066853000CFA03F4A6430660F9
:1020F0000E79D0F800E09E4046EA0E0606600E79A2
:10210000012E01D0022E12D18668A64386604E7938
:10211000D0F808E09E4046EA0E0686604668AE4368
:10212000466045688E799640B6B235434560C568CD
:10213000A543C560CC799C40C3681C43C460521C55
:10214000102AC9D3F0BD4B07DB0E9A40C90810B561
:1021500000EB8100016A0F249C40A1430162016AE7
:102160001143016210BD0246002052690A4200D0AC
:102170000120704701837047FEE7000002494CF6DA
:10218000CC400860704700000030004002494AF629
:10219000AA200860704700000030004001494860F4
:1021A000704700000030004001498860704700001F
:1021B00000300040014908607047000000300040D6
:1021C000FEE7704700F01F020121914040098000A6
:1021D00000F1E020C0F88011704700F01F020121DB
:1021E00091404009800000F1E020C0F800117047E4
:1021F00030B50F23C27801780125FAB1144A12686C
:1022000001F1E02102F4E062C2F5E062C2F30722CC
:10221000C2F10404D3404278A24084781C401443A5
:10222000220181F80024007800F01F018D40400950
:10223000800000F1E020C0F8005130BD01F01F0027
:1022400085404809800000F1E020C0F8805130BD91
:102250000CED00E0024908430249086070470000A5
:102260000000FA050CED00E070B50025002105F135
:10227000B00000F08CF90021084600F088F9002138
:10228000102000F084F900240121002000F07FF9E3
:10229000641CE4B2802CF7D36D1CEDB2082DE5D39D
:1022A00070BD10B500218D2000F071F900211020C3
:1022B00000F06DF90021BDE81040AE2000F067B9D4
:1022C00010B500218D2000F062F90021142000F0EB
:1022D0005EF90021BDE81040AF2000F058B92DE9AB
:1022E000F0471F4690460E4682460025DDF82090B6
:1022F00011E03146504600F0ADF8544607E019F8B9
:10230000050001216D1C00F042F9641CE4B2444553
:10231000F5D3761CF6B2BE42EBD3BDE8F0870000E1
:102320002DE9FC410121022000F03EF901248DF845
:102330000440002504208DF806500326444F0090E9
:102340008DF805608DF8074069463846FFF7BFFEF7
:102350008DF8044002208DF8065000908DF805603D
:102360008DF8074069463846FFF7B1FEC82004F0F3
:102370009FFC0021AE2000F00AF90021084600F081
:1023800006F90021102000F002F90021402000F0A1
:10239000FEF80021B02000F0FAF80021812000F0C2
:1023A000F6F80021FF2000F0F2F80021A12000F053
:1023B000EEF80021A62000F0EAF80021A82000F0A5
:1023C000E6F800213F2000F0E2F80021C82000F0EC
:1023D000DEF80021D32000F0DAF80021084600F0F2
:1023E000D6F80021D52000F0D2F80021802000F09E
:1023F000CEF80021D82000F0CAF80021052000F016
:10240000C6F80021D92000F0C2F80021F12000F028
:10241000BEF80021DA2000F0BAF80021122000F006
:10242000B6F80021DB2000F0B2F80021302000F0E7
:10243000AEF800218D2000F0AAF80021142000F051
:10244000A6F80021AF2000F0A2F8BDE8FC81000052
:102450000004024010B50A460446002102F1B00013
:1024600000F095F8102040EA1410002100F08FF8D9
:1024700004F00F00BDE81040002100F088B8000013
:102480002DE9F04115460E460746FFF7E3FF0F48DA
:10249000002400EB85150121285D00F078F8641C0C
:1024A000E4B2102CF7D3761CF1B23846FFF7D2FF16
:1024B00000242819012190F8200000F068F8641C1D
:1024C000E4B2102CF5D3BDE8F081000090C80008FC
:1024D0002DE9F041203A00240F468046D5B27F28EE
:1024E00003D900208F1C8046FFB2102B394610D034
:1024F000FFF7B0FF164905EB450001EB4005012150
:10250000285D00F044F8641CE4B2062CF7D3BDE863
:10251000F081FFF79FFF0F4E04EB05100121305CA7
:1025200000F035F8641CE4B2082CF5D37F1CF9B236
:102530004046FFF78FFF002404EB051030440121D3
:10254000007A00F024F8641CE4B2082CF4D3DEE72F
:1025500078C00008A0C200082DE9F041984617464F
:102560000E46044600250DE0434631462046FFF75F
:10257000AFFF0834E4B2782C02D90024B61CF6B2BE
:102580006D1CEDB27A5D002AEED1BDE8F081C0B2DB
:1025900009B100F02EBF00F015BF0000014908622C
:1025A0007047000000000E42044A0029116801D063
:1025B000014300E081431160704700003038024061
:1025C000044A0029116801D0014300E081431160F1
:1025D0007047000040380240044A0029116801D0C9
:1025E000014300E08143116070470000443802401D
:1025F00070B5204B1968204C11F00C0104D0661006
:10260000042903D0082903D004601BE0066019E008
:10261000184A121F1168C1F38055116801F03F017B
:1026200015B1B6FBF1F101E0B4FBF1F114681268E9
:10263000C4F388146143C2F30142521C5200B1FB3F
:10264000F2F1016019680F2202EA11110B4A545C81
:102650000168E14041601C68072505EA9424145D87
:1026600021FA04F484601B6805EA5333D25CD1403C
:10267000C16070BD083802400024F400340100201D
:1026800002460020510901290BD002290CD008492B
:10269000096802F01F02012393400B4200D0012081
:1026A000704703497439F3E70149091FF0E7000057
:1026B000743802400149086070470000800E4742AC
:1026C00001490860704700003C0E4742C0F30121F9
:1026D000032907D1074B1968074A21F4F811024072
:1026E0000A431A60034968310A68C0F30B000243C9
:1026F0000A60704708380240FFFCFF0F38B500221F
:10270000124C0092CA222260532222600F4A1C3AC5
:102710000029116802D00143116012E08143116069
:102720000A4A183A95131168009B01EA10215B1CB4
:102730000093AB4201D00029F5D0116811EA1020B6
:1027400000D00120FF21216038BD00002428004076
:1027500010B54FF48054204600F092F800280DD0B8
:10276000074800222021006808F03CFC204600F0C9
:102770002DF86001BDE81040FFF7C0BB10BD0000A0
:1027800060000020010901EB810100F00F0000EB67
:102790004100C0B27047002103E0491C0A38C9B2A9
:1027A000C0B20A28F9D2090740EA11607047000058
:1027B00080B240F08000C1430348026802F080020A
:1027C00011430160704700000C280040C0F30F1057
:1027D00040F08000C1430348026802F080021143C8
:1027E000016070470C28004008B50D49002000909A
:1027F0000868400612D44FF0FF3008608B13086859
:10280000009A00F04000521C00929A4201D0002829
:10281000F5D00868400601D4002008BD012008BD9D
:102820000C2800400248016821F0800101607047D7
:102830000C280040020010B50F480C4601680F48F4
:1028400001EA00014FEA1140E070C1F30423637014
:1028500001F03F03A370C1F3423121700AD1FFF7A9
:1028600091FFE0706078FFF78DFF6070A078FFF750
:1028700089FFA07010BD0000042800403FFFFF004A
:102880000B4A0021126802F00403094A383A126820
:1028900003EAD03302401A43064B1B6803EA1010C8
:1028A00003D00004000C00D001210846704700004E
:1028B000402800400C280040020010B510480C468B
:1028C0000168104801EA0001C1F305402070C1F31E
:1028D0000623637001F07F03A3704FF0400303EA07
:1028E0001141E1700AD1FFF74DFF20706078FFF7CA
:1028F00049FF6070A078FFF745FFA07010BD000091
:10290000002800407F7F7F0030B50E4DCA222A602C
:1029100053222A600B4C0B4B1C3C1C33002920F02B
:102920000402216800F0040004D0114321601968FA
:10293000014303E091432160196881431960FF203E
:10294000286030BD2428004070B5124D0446002692
:10295000CA20286053202860FFF746FFA8B10D4821
:102960001C38016821F040010160016822681143B0
:1029700001600848A168143801600168A28841EA32
:1029800002410160FFF74EFF0126FF20286030461C
:1029900070BD00002428004008B5034901EB800009
:1029A0000090006808BD00005028004070B5144633
:1029B0000D46264A0021002810684FEA406005D0E5
:1029C00000281CDA2078FFF7DDFE19E0002800DB84
:1029D000E1702078FFF7DFFE06046078FFF7DBFE8A
:1029E00046EA0026A078FFF7D6FE0643E07846EADE
:1029F0000046207BFFF7CFFE46EA006010E0E17062
:102A0000207BFFF7BFFEA0782178E27840EA014002
:102A10006178090241EA02410843217B40EA0160F2
:102A2000A168CA2208436168084308491C310A604A
:102A300053220A60B5F5807F04D00A1F1060FF2082
:102A4000086070BD014A1432F8E700000828004011
:102A500070B50C460026010060780FD0FFF792FE9B
:102A6000A078FFF78FFEA078E17840EA0145607812
:102A70002178000240EA4130054315E0C10603D544
:102A800020F010000A306070E078FFF784FE050443
:102A90006078FFF780FE45EA0025A078FFF77BFE0F
:102AA0000543207845EA40350D4CCA20206053206C
:102AB0002060FFF799FE78B10A48054008482038A1
:102AC0000560FFF7AFFE06481C380068800602D498
:102AD00000F08AF800B10126FF202060304670BD6A
:102AE000242800403FFFFF002DE9F0410C4600265E
:102AF000234F01002078396832464FEA416104D003
:102B0000002930DAFFF73EFE2EE0002900DBE270FC
:102B1000FFF741FE05046078FFF73DFE45EA00251A
:102B2000A078FFF738FE0543E07845EA0045144CED
:102B3000CA201C34206053202060FFF755FE68B186
:102B4000104805400E4808380560FFF76BFE3868EE
:102B5000800602D400F048F800B10126FF20206072
:102B60003046BDE8F081E270A078217840EA014566
:102B70006078E178000240EA01400543D7E70000B1
:102B8000082800407F7F7F000549CA220A6053223F
:102B90000A60034A103A1060FF2008607047000086
:102BA0002428004070B55020EFF3118480F3118881
:102BB000BFF34F8FBFF36F8F4FF480452846FFF769
:102BC0005FFE01280BD1074800221021006808F0A1
:102BD00009FA2846FFF7FAFD2802FFF78FF984F378
:102BE000118870BD6000002018B50020104B0090C7
:102BF000CA201860532018600D491839086820F061
:102C0000A00008604FF400340868009A00F020002B
:102C1000521C0092A24201D00028F5D0086880061C
:102C200001D5012000E00020FF21196018BD00003F
:102C300024280040084ACA21116053211160064926
:102C40001C390B6823F007030B600B6803430B6010
:102C5000FF201060704700002428004018B50021B4
:102C6000134B0091CA2119605321196010491C3976
:102C70000028086803D040F48060086014E020F465
:102C8000806008600A4918398C130868009A00F0BF
:102C90000400521C0092A24201D00028F5D008681E
:102CA000400701D4002000E00120FF21196018BD79
:102CB0002428004008B5034A02EB80000090016020
:102CC00008BD00005028004010B58A0721F0030419
:102CD0000849120F21440F23D1F8084893409C4320
:102CE000C1F80848D1F8083890400343C1F80838C3
:102CF00010BD0000003001400CB5002227490092B1
:102D00000192086840F4803008604FF4A0430868DE
:102D100000F4003001900098401C0090019810B918
:102D200000989842F3D10868800334D501200190BF
:102D30001A484030026842F0805202601848026827
:102D400042F440420260154808300268026002689E
:102D500042F400420260026842F4A0520260031F83
:102D6000104A1A600A6842F080720A600A6892018A
:102D7000FCD50D4940F205720A60016821F003019B
:102D80000160016841F0020101600168C1F3810145
:102D90000229FAD10CBD01920CBD0000003802409E
:102DA0000070004008544007003C024010B550201D
:102DB00080F31188BFF34F8FBFF36F8F08F096FD3C
:102DC00018B104494FF080500860002080F311884A
:102DD00010BD000004ED00E0124810B5016841F498
:102DE000700101601048016841F0010101600E4A64
:102DF00000210832116002680C4B1A400260031D6A
:102E00000B4A1A60026822F48022026006480C30E5
:102E10000160FFF771FF03494FF0006080390860DF
:102E200010BD000088ED00E000380240FFFFF6FE14
:102E300010300024F8B55020EFF3118480F311888E
:102E4000BFF34F8FBFF36F8F01218E07304600F025
:102E500069F8012823D1124D286860B11248012376
:102E60006A461049006808F011FB40210D48FDF743
:102E700053FD002028600021304600F03EF801217B
:102E8000304600F037F8009838B108494FF08050CC
:102E90000860BFF34F8FBFF36F8F84F31188F8BDC5
:102EA00028010020A30800207C00002004ED00E0A1
:102EB00010B50E4C0121204600F034F8012814D141
:102EC0000B4A11699068814201D0906806E031B1E7
:102ED0009068814203D10120D0600020106120461B
:102EE000BDE81040012100F005B810BD000400400D
:102EF000F0000020C943018270470029018802D0F8
:102F000041F0010101E021F0010101807047002939
:102F100030F8441F02D041F4004101E0C1F30E013A
:102F20000180704702460020138A92890B4202EA10
:102F3000010202D0002A00D001207047002A8289B5
:102F400001D00A4300E08A438281704770B5028C49
:102F500022F480520284058C8288838B0C8823F4AF
:102F6000E6464FF6FF7303EA0424344325F4005683
:102F70008D8903EA053535434E8803EA06362E432C
:102F8000084DA84202D0084DA84205D122F4804540
:102F90000A8A03EA82122A43828084838968016450
:102FA000068470BD000001400004014001647047C8
:102FB0004162704730B50288164C174DA0420DD0C3
:102FC000A8420BD0B0F1804F08D0144B984205D0E6
:102FD000134B984202D0134B984203D122F0700356
:102FE0004A881A43104B984206D0104B984203D09F
:102FF00022F440730A891A4302804A68C2620A882E
:103000000285A04201D0A84201D1897A018601211E
:10301000818230BD000001400004014000040040F6
:1030200000080040000C0040001000400014004068
:103030002DE9F0415020EFF3118480F31188BFF3A4
:103040004F8FBFF36F8F184D40F2255631462846FB
:1030500000F0EEF8012822D1284600F077F9134954
:10306000C0B20A68402A05D20A68114B1344521CA8
:103070000A60187001218F073846FFF73BFF0021D7
:103080003846FFF73AFF00213846FFF791FF01214C
:103090003846FFF732FF3146284600F0B2F884F395
:1030A0001188BDE8F08100000010014028010020D7
:1030B000A308002070B50F4C40F225552946204644
:1030C00000F0B6F8012814D1204600F03FF9C3B251
:1030D000094843708168402905D282680749114434
:1030E000521C82600B7029462046BDE8704000F0FB
:1030F00088B870BD00440040F0000020BC010020F2
:1031000070B55020EFF3118480F31188BFF34F8F17
:10311000BFF36F8F0F4D40F225563146284600F021
:1031200087F8012812D1284600F010F90A49C0B2E8
:103130000A68B2F5FF7F05D80A68084B1344521C91
:103140000A6018703146284600F05BF884F3118855
:1031500070BD0000004800402401002062060020ED
:103160002DE9F84300255020EFF31184009580F3FA
:103170001188BFF34F8FBFF36F8F1B4F40F225585D
:103180004146384600F054F8F8B1384600F0DEF811
:10319000174EC1B2154A70681154401C7060232943
:1031A00001D040280DD382F84000124800236A461F
:1031B0000E49006808F06AF941210C48FDF7ACFBA4
:1031C00075604146384600F01CF8009838B10A494D
:1031D0004FF080500860BFF34F8FBFF36F8F84F3C1
:1031E0001188BDE8F8830000001401406208002047
:1031F000280100206400002004ED00E0C9430180A4
:1032000070470A0A01219140C94301807047002993
:10321000818902D041F4005101E021F40051818103
:1032200070470246002012880A4200D001207047F1
:1032300070B501F01F0501260024C1F3421306FA00
:1032400005F2012B0FD0022B0FD0838A4FEA1121F8
:103250000088134206FA01F600EA060001D000B128
:103260000124204670BD8389F0E7038AEEE710B59C
:10327000C1F3421301F01F040121A140012B07D02B
:10328000022B07D01430002A026805D00A4304E05C
:103290000C30F8E71030F6E78A43026010BD0000FA
:1032A0007FB50446008A0D46C98820F4405001438A
:1032B0002182A08941F20C618843A9882A8911439F
:1032C0006A8902431143A181A08A20F44071A88930
:1032D0000843A0826846FFF78BF91A48844202D05F
:1032E0001948844201D1039800E00298A189090499
:1032F00000EBC00101EB0010296801D5490000E096
:103300008900B0FBF1F06422B0FBF2F109010B0976
:103310006FF018056B4300EB8300A3891D044FF089
:10332000320306D503EBC000B0FBF2F000F007005B
:1033300005E003EB0010B0FBF2F000F00F000843D3
:1033400020817FBD00100140001401408088C0F33F
:1033500008007047C1F3080181807047FEE7000054
:103360002DE9F04180460024012005F0E9FB144ED0
:103370000027C6F88872C6F88472012003F09AFC10
:103380000125C4F1070105FA01F010EA080F02D087
:10339000C6F8845201E0C6F88472012003F08AFC6A
:1033A000C6F88852012003F085FCC6F88872012017
:1033B00003F080FC641C082CE3D3BDE8F08100001E
:1033C0000080404210B5044605F0CCFB7820FFF7A2
:1033D000C7FF05F0FFFB0020FFF7C2FF05F0FAFB77
:1033E0002046FFF7BDFF05F0F5FBBDE8104005F0F6
:1033F000D5BB10B5044605F0B5FB7820FFF7B0FF4C
:1034000005F0E8FB4020FFF7ABFF05F0E3FB2046AB
:10341000FFF7A6FF05F0DEFBBDE8104005F0BEBBE0
:1034200003B401984100009850EAC12018BF04205D
:103430004A0D18BF40F0010040F2FF72B2EB515F3D
:1034400008BF40F00200012808BF052002B0704705
:1034500030380A2801D20120704700207047000050
:103460002DE9F0474C4F0026C7F8B0624B4C0125C0
:10347000C4F89452C4F8BC52C4F88452022003F039
:1034800017FCDFF81C81D8F83002E8B3D4F810023A
:10349000D8B3D4F83802C8B3DFF80891D9F81C02C1
:1034A000A8B3C7F8B052B246C4F89462C4F8BC528C
:1034B000C4F88452022003F0FBFBD8F830024646E1
:1034C00030B3D4F81002E8B3D4F83802D8B3D9F83E
:1034D0001C02C846C0B3B946C7F8B052C4F89452EB
:1034E0005746C4F8BCA2C4F88452022003F0E0FBA3
:1034F000D6F8300248B3D4F8100238B3D4F8380202
:1035000080B3D8F81C0204E024E025E026E027E0A0
:103510002AE040B3C9F8B052C4F89452C4F8BC527F
:10352000C4F88472022003F0C3FBD6F8300258B30B
:10353000D4F8100250B3D4F8380248B3D8F81C02BB
:1035400040B304E012E013E014E015E016E04E2072
:10355000BDE8F0873120FBE73220F9E73320F7E7B9
:103560004120F5E70CE00DE03420F1E73520EFE7EE
:103570003620EDE74220EBE73720E9E73820E7E7A0
:103580003920E5E74320E3E72A20E1E73020DFE7C1
:103590002320DDE74420DBE7000043420080414276
:1035A0000080424200004242704700001CB517A054
:1035B000FCF738FF1E4C1F4D4FF0FF373A46694667
:1035C000E06E07F0C1FF06461BA003F09BFB012E37
:1035D000F4D10198002800980ED0C5F8A00202E0AE
:1035E000012007F019FA0198401E0190401CF7D104
:1035F000009880F001000090C5F8A00200231A4650
:103600001946606D07F090FED8E700005B617070AE
:103610005F7461736B5F626565705D206372656185
:10362000746520737563636573730D0A0000000091
:1036300000000020008042425B6170705F74617323
:103640006B5F626565705D2069732072756E6E696F
:103650006E67202E2E2E0D0A000000002DED028B2D
:1036600092B05FA003F04EFB654E4FF0000B0DF1E2
:103670001C0905274FF0200A4FF010084FF0FF30CB
:103680000090002301224021306E07F0B3FC044675
:1036900007F0F0F8C6F83CB007F00CF96006EDD57D
:1036A00058A003F02FFB306B01287AD1F06A012873
:1036B000FBD1306907F098FB052003F0F9FA0FA859
:1036C00003F056FB010001D056A083E0142102A8AC
:1036D000FDF744F99DF83F0000EE100A9DF83E000A
:1036E000F8EE400AB2EE040A80EE801A00EE900A6C
:1036F000F8EE600A31EE208A86ED088A9DF83D00DA
:1037000000EE900A9DF83C00B8EE601AC1EE000A87
:1037100000EE100AB8EE400A30EE800A86ED090A83
:1037200010EE100A08F03CFB04460D4618EE100A95
:1037300008F036FB41EC100B46A053EC102BCDE902
:10374000004503F0DFFA9DF83F309DF83E204AA186
:1037500007A8FCF773FE8DF808708DF809A0022009
:103760008DF80A00CDF80C908DF8108054464D4627
:103770000023642202A9306F07F0D6FD014601281C
:1037800002D040A003F0BEFA4FF4FA7007F044F9FB
:10379000142102A8FDF7E2F89DF83D309DF83C2089
:1037A00000E019E046A107A8FCF748FE8DF8087074
:1037B0008DF8094006208DF80A0003958DF81080D9
:1037C0000023642202A9306F07F0AEFD01460128F4
:1037D00002D02CA003F096FA306907F08FFA4DE77B
:1037E0005B6170705F7461736B5F6468745D2063AC
:1037F000726561746520737563636573730D0A0088
:10380000000000205B6170705F7461736B5F6468BF
:10381000745D2069732072756E6E696E67202E2E3E
:103820002E0D0A005B6170705F7461736B5F64687A
:10383000745D206468743131207265616420657242
:10384000726F7220636F64652069732025640D0AAE
:103850000000000054656D70657261747572653D9D
:10386000252E31662048756D69646974793D252E71
:1038700031660D0A0000000054656D703D25642E10
:10388000256400005B6170705F7461736B5F6468D6
:10389000745D2078517565756553656E64206F6C35
:1038A000656420737472696E67206572726F72202E
:1038B000636F64652069732025640D0A00000000B1
:1038C00048756D693D25642E25640000ADF58E6D4B
:1038D00000278DF814744FF400716846FDF73EF828
:1038E000B5A003F00FFA4FF47A7405E0BBA003F023
:1038F00009FA204603F0DCF903F014FC0028F5D1A6
:103900000DF2644101243226BF4D81E850000023AE
:103910006422E86E07F008FD0146012802D0BBA032
:1039200003F0F0F94FF0FF384146686D07F0A8FE4C
:103930000146012802D0C3A003F0E4F9642003F09B
:10394000B7F90DF26441002381E850006422E86E6B
:1039500007F0EAFC0146012802D0ACA003F0D2F93E
:103960004146686D07F08CFE0146012802D0B5A0E3
:1039700003F0C8F9C3A003F0C5F9686907F0BEF900
:103980000120E861A04CE8468034B9464FF0200B96
:103990004FF0400A4FF0FF3280A9606807F0D4FD75
:1039A000064606F067FFC5F83C9006F083FF012E3F
:1039B00002D03146C3A017E3002680A84FF400715F
:1039C00002E0761C8E4202D2825D7B2AF9D100276A
:1039D00008E080A8C8A1825D08EB0700FCF72EFD77
:1039E000761C7F1CB6F5007FF3D34E4608F807908F
:1039F000C2A16846FCF7E6FE90B1C5A003F082F9CB
:103A000010208DF81404002364220DF21441A86ED6
:103A100007F08AFC0146012802D0C6A003F072F923
:103A2000D2A16846FCF7CEFE90B1D5A003F06AF9AA
:103A300011208DF81404002364220DF21441A86EA5
:103A400007F072FC0146012802D0BAA003F05AF92F
:103A5000D4A16846FCF7B6FE88B1D7A003F052F9AE
:103A60008DF814B4002364220DF21441A86E07F0FF
:103A70005BFC0146012802D0AEA003F043F9D7A1B8
:103A80006846FCF79FFE90B1D9A003F03BF92120D6
:103A90008DF81404002364220DF21441A86E07F07F
:103AA00043FC0146012802D0A2A003F02BF9D9A1C2
:103AB0006846FCF787FE88B1DBA003F023F98DF898
:103AC00014A4002364220DF21441A86E07F02CFC0C
:103AD0000146012802D097A003F014F9DBA1684643
:103AE000FCF770FE90B1DEA003F00CF941208DF8D8
:103AF0001404002364220DF21441A86E07F014FC94
:103B00000146012802D08BA003F0FCF8286B0128A5
:103B100050D1DCA16846FCF755FE00284AD0DCA055
:103B200003F0F0F801276F632E6304208DF8000482
:103B3000002364220DF58061286F07F0F5FB014634
:103B4000012802D0DAA003F0DDF802208DF86C0421
:103B5000002364220DF26C41206807F0E5FB01466A
:103B6000012802D0E2A003F0CDF84FF0FF31A86D9C
:103B700007F086FD0146012802D0EB4803F0C2F8A9
:103B800007208DF800048DF810A408208DF811048A
:103B90008DF801B4E5488DF80264CDF80C040023DB
:103BA00064220DF58061286F07F0BEFB01460128F5
:103BB00001D0BDE1C0E1BEE15B6170705F74617313
:103BC0006B5F657370383236365D20637265617481
:103BD0006520737563636573730D0A005B617070B4
:103BE0005F7461736B5F657370383236365D206564
:103BF0007370383236365F6D7174745F696E6974D4
:103C0000202E2E2E00000000000000205B6170704E
:103C10005F7461736B5F657370383236365D207820
:103C2000517565756553656E6420626565702065C4
:103C300072726F7220636F64652069732025640D52
:103C40000A0000005B6170705F7461736B5F657385
:103C500070383236365D207853656D6170686F72EA
:103C60006554616B6520675F73656D5F6265657044
:103C7000206572726F7220636F64652069732025FE
:103C8000640D0A005B6170705F7461736B5F6573D4
:103C900070383236365D20657370383236362063C0
:103CA0006F6E6E65637420616C6979756E207769DB
:103CB0007468206D71747420737563636573730D1C
:103CC0000A0000005B6170705F7461736B5F657305
:103CD00070383236365D207851756575655265638A
:103CE00065697665206572726F7220636F64652006
:103CF00069732025640D0A0025630000227377692B
:103D00007463685F6C65645F31223A3000000000C4
:103D10005B6170705F7461736B5F657370383236AE
:103D2000365D207377697463685F6C65645F313AF0
:103D3000300D0A005B6170705F7461736B5F657357
:103D400070383236365D2078517565756553656E0D
:103D500064206C6564206572726F7220636F6465A5
:103D60002069732025640D0A000000002273776922
:103D70007463685F6C65645F31223A310000000053
:103D80005B6170705F7461736B5F6573703832363E
:103D9000365D207377697463685F6C65645F313A80
:103DA000310D0A00227377697463685F6C65645F24
:103DB00032223A30000000005B6170705F74617302
:103DC0006B5F657370383236365D20737769746364
:103DD000685F6C65645F323A300D0A002273776960
:103DE0007463685F6C65645F32223A3100000000E2
:103DF0005B6170705F7461736B5F657370383236CE
:103E0000365D207377697463685F6C65645F323A0E
:103E1000310D0A00227377697463685F6C65645FB3
:103E200033223A30000000005B6170705F74617390
:103E30006B5F657370383236365D207377697463F3
:103E4000685F6C65645F333A300D0A0022737769EE
:103E50007463685F6C65645F33223A310000000070
:103E60005B6170705F7461736B5F6573703832365D
:103E7000365D207377697463685F6C65645F333A9D
:103E8000310D0A00226C6F636B5F31223A30000003
:103E90005B6170705F7461736B5F6573703832362D
:103EA000365D206C6F636B5F313A300D0A000000A5
:103EB0005B6170705F7461736B5F6573703832360D
:103EC000365D2078517565756553656E64206F6C3D
:103ED000656420737472696E67206572726F7220F8
:103EE000636F64652069732025640D0A000000007B
:103EF0005B6170705F7461736B5F657370383236CD
:103F0000365D2078517565756553656E64206D6FFB
:103F1000746F72206572726F7220636F64652069BE
:103F2000732025640D0A000004DE000890D5000807
:103F30002FA002F0E7FEAF63286B00287FF42AADC4
:103F40003BA16846FCF73EFC00283FF423AD3BA0B4
:103F500002F0D8FE012028636E635746C5F838A0EA
:103F60008DF86C04002364220DF26C41206807F088
:103F7000DBF90146012802D038A002F0C3FE4FF061
:103F8000FF31A86D07F07CFB0146012802D041A05B
:103F900002F0B8FE8DF8107408208DF801B48DF889
:103FA00011048DF8026407208DF800044948CDF80B
:103FB0000C04002364220DF58061286F07F0B4F92A
:103FC0000146012802D044A002F09CFEA86B8DF8A7
:103FD0001C04002364220DF58361686F07F0A4F9C7
:103FE00001460128B1D04CA002F08CFED2E40000C2
:103FF0005B6170705F7461736B5F657370383236CC
:10400000365D2078517565756553656E64206F6CFB
:1040100065642070696374757265206572726F7271
:1040200020636F64652069732025640D0A00000019
:10403000226C6F636B5F31223A3100005B617070FC
:104040005F7461736B5F657370383236365D206CF8
:104050006F636B5F313A310D0A0000005B61707075
:104060005F7461736B5F66706D3338335D207851B8
:104070007565756553656E64206D6F746F7220652C
:1040800072726F7220636F64652069732025640DFE
:104090000A0000005B6170705F7461736B5F667033
:1040A0006D3338335D207853656D6170686F72656C
:1040B00054616B6520675F73656D5F6D6F746F72C0
:1040C000206572726F7220636F64652069732025AA
:1040D000640D0A0090D700085B6170705F746173B3
:1040E0006B5F66706D3338335D207851756575652B
:1040F00053656E64206F6C656420706963747572BB
:1041000065206572726F7220636F64652069732029
:1041100025640D0A000000005B6170705F746173BC
:104120006B5F66706D3338335D20785175657565EA
:1041300053656E6420666C617368206572726F727D
:1041400020636F64652069732025640D0A000000F8
:104150009AB02AA002F0D6FD314C4FF0FF352A4626
:1041600007A9606F07F0F0F90128F8D12DA002F03F
:10417000C9FD354803F0BAFB0790142803D303F0B8
:10418000FFF90020079005A90120FEF753FB04A9C1
:104190000120FEF791FB9DF810009DF820309DF85E
:1041A00012209DF811108DE80F009DF816309DF833
:1041B00015209DF8171025A002F0A4FD9DF817000A
:1041C0008DF861009DF815008DF862009DF81600CD
:1041D0008DF863009DF810008DF864009DF81100C3
:1041E0008DF865009DF812008DF8660006F042FB20
:1041F00007A803F08BFB06F05DFBB0E75B61707016
:104200005F7461736B5F666C6173685D2063726578
:1042100061746520737563636573730D0A00000034
:10422000000000205B6170705F7461736B5F666C8F
:104230006173685D207761697420676574206461CB
:1042400074610D0A00000000000001085B617070DD
:104250005F7461736B5F666C6173685D20B5B1C735
:10426000B0CAB1BCE43A3230253032782F25303232
:10427000782F2530327820253032783A2530327840
:104280003A253032782025640A0000009EB0CDA087
:1042900002F038FD0027D44D4FF0200B4FF0400ABC
:1042A0004FF008084FF0070901264FF0FF3000904B
:1042B000002301224FF47031286E06F09BFE044665
:1042C00006F0D8FAEF6306F0F5FA286906F08CFDDF
:1042D000E86806F089FD286B002871D1E0036FD5EE
:1042E000032003F02DFBC14802F00CFD4FF6FF70D8
:1042F000ADF870001CA803F0B7FC10F0FF0F63D0FE
:10430000012003F01DFBBAA002F0FCFC8DF805B003
:104310008DF806708DF814A0BF488DF815808DF8C3
:10432000049004900023642201A9286F06F0FCFF8A
:104330000146012802D0B9A002F0E4FC4FF47A70E3
:10434000CDE906600023642206A9E86E06F0ECFFC2
:104350000146012802D0C1A002F0D4FC4FF0FF3189
:10436000686D07F08DF90146012802D0C9A002F05E
:10437000C9FC4FF4FA6006F04FFB8DF804908DF8FD
:1043800005B08DF814A0D3488DF806708DF815800F
:1043900004900023642201A9286F06F0C5FF01469E
:1043A000012802D0CCA002F0ADFC6F63AE636420A4
:1043B00002F07EFC03F056FD4FF47A7002F078FCB8
:1043C000286B012837D091E0022003F0B9FABDF83C
:1043D0007010D04802F096FC2E636F631020A86323
:1043E00081488DF874608030002364221DA9006824
:1043F00006F09AFF0146012802D0C7A002F082FC15
:104400004FF0FF31A86D07F03BF90146012802D0BB
:10441000CFA002F077FCA86B8DF824000023642263
:1044200008A9686F06F080FF01460128BED0D8A019
:1044300002F068FCBAE7600425D5032003F080FA97
:10444000E14802F05FFC1BA803F09AFB10F0FF0F9D
:1044500019D1BDF86C10DDA002F054FCBDF86C0061
:10446000401C80B203F0E6FA10F0FF0F45D00120A7
:1044700003F066FA642002F01BFC03F0F3FC4FF437
:104480007A7002F015FC200419D5032003F058FAC5
:1044900003F06CFA10F0FF0F50D0012003F050FA37
:1044A000642002F005FC03F0DDFC4FF47A7002F0AA
:1044B000FFFB286906F022FCE86806F01FFCA00359
:1044C00014D5032003F03CFA1BA803F059FB10F0AD
:1044D000FF0F54D0012003F033FA642002F0E8FB10
:1044E00003F0C0FC4FF47A7002F0E2FB286906F09A
:1044F00005FCE86806F002FCD7E6022003F020FA8B
:10450000BCA002F0FFFB3220CDE90660002364224C
:1045100006A9E86E06F008FF0146012802D0BFA0F8
:1045200002F0F0FB4FF0FF31686D07F0A9F801468B
:1045300001289FD057A002F0E5FB9BE7022003F083
:10454000FFF9C4A002F0DEFB3220CDE906600023B3
:10455000642206A9E86E06F0E7FE0146012802D0B3
:104560003EA002F0CFFB4FF0FF31686D07F088F8F6
:104570000146012894D047A002F0C4FB90E7022036
:1045800003F0DEF9BDF86C1090A002F0BBFB322006
:10459000CDE906600023642206A9E86E06F0C4FE99
:1045A0000146012802D02DA002F0ACFB4FF0FF31F4
:1045B000686D07F065F8014601288ED035A002F03D
:1045C000A1FB8AE75B6170705F7461736B5F6670FB
:1045D0006D3338335D206372656174652073756374
:1045E000636573730D0A000000000020D0DE000830
:1045F0005B6170705F7461736B5F66706D333833CD
:104600005D2070617373776F7264206175746820C8
:104610006661696C0D0A000090D900085B617070DA
:104620005F7461736B5F66706D3338335D207851F2
:104630007565756553656E64206F6C65642070697F
:104640006374757265206572726F7220636F646542
:104650002069732025640D0A000000005B61707002
:104660005F7461736B5F66706D3338335D207851B2
:104670007565756553656E64206265657020657249
:10468000726F7220636F64652069732025640D0A60
:10469000000000005B6170705F7461736B5F667037
:1046A0006D3338335D207853656D6170686F726566
:1046B00054616B6520675F73656D5F62656570202F
:1046C0006572726F7220636F646520697320256460
:1046D0000D0A000090D500085B6170705F74617313
:1046E0006B5F66706D3338335D2078517565756525
:1046F00053656E64206F6C656420737472696E67B5
:10470000206572726F7220636F6465206973202563
:10471000640D0A008CDE00085B6170705F74617369
:104720006B5F66706D3338335D20785175657565E4
:1047300053656E64206D6F746F72206572726F7254
:1047400020636F64652069732025640D0A000000F2
:104750005B6170705F7461736B5F66706D3338336B
:104760005D207853656D6170686F726554616B652B
:1047700020675F73656D5F6D6F746F722065727215
:104780006F7220636F64652069732025640D0A00D1
:104790005B6170705F7461736B5F66706D3338332B
:1047A0005D2078517565756553656E6420666C6132
:1047B0007368206572726F7220636F64652069731D
:1047C0002025640D0A00000014DF00085B61707092
:1047D0005F7461736B5F66706D3338335D20BBF15E
:1047E000C8A1D6B8CEC6D7DCCAFDA3BA253034647A
:1047F0000D0A00005B6170705F7461736B5F6670BF
:104800006D3338335D20D7D4B6AFD7A2B2E1D6B876
:10481000CEC6B3C9B9A60D0A000000005B61707076
:104820005F7461736B5F66706D3338335D207851F0
:104830007565756553656E642020626565702065D9
:1048400072726F7220636F64652069732025640D36
:104850000A0000005B6170705F7461736B5F66706B
:104860006D3338335D20C7E5BFD5D6B8CEC6B3C9E2
:10487000B9A60D0A00000000ACB0402106A8FCF764
:104880006DF8CDA002F03EFA4FF4E13406E04FF4AB
:104890007A7002F00DFAD1A002F034FA204603F04B
:1048A0000FFC0028F3D1D9A002F02CFA4FF0400BF6
:1048B0004FF0070A01264FF0FF384FF4FA79DE4D2A
:1048C000CDF80080002301224FF47011286E06F00D
:1048D00091FB0446D9A002F015FA05F0CBFF0027A2
:1048E000EF6305F0E7FF286B00287DD1E0027BD560
:1048F000DBA002F007FA402106A8FCF72FF806A873
:1049000003F0EEFB30B1DFA002F0FCF9286B0028C9
:1049100070D0C7E0E4A002F0F5F9286B0028F8D1C8
:104920004FF48001286E06F016FB2E632020A8634A
:104930008DF805008DF814B008208DF815008DF85D
:104940000670E2488DF804A004900023642201A9B7
:10495000286F06F0E9FC0146012802D0DCA002F035
:10496000D1F93227CDE916670023642216A9E86E33
:1049700006F0DAFC0146012802D0E5A002F0C2F9F7
:104980004146686D06F07CFE0146012802D0EEA08B
:1049900002F0B8F9642006F03FF8CDE9166700236D
:1049A000642216A9E86E06F0BFFC0146012802D079
:1049B000D7A002F0A7F94146686D06F061FE0146F6
:1049C000012802D0E0A002F09DF94FF4FA6006F051
:1049D00023F8A86B8DF864000023642218A9686F7F
:1049E00006F0A2FC014601E066E003E0012859D090
:1049F000E5A055E04FF40001286E06F0ACFA202047
:104A00008DF8050000208DF806008DF814B00827F9
:104A1000EB488DF815708DF804A0049000236422F3
:104A200001A9286F06F080FC0146012802D0A8A049
:104A300002F068F94FF47A70CDE916600023642221
:104A400016A9E86E06F070FC0146012802D0B0A05D
:104A500002F058F94146686D06F012FE0146012841
:104A600002D0B9A002F04EF94FF4FA6005F0D4FF7D
:104A70008DF804A020208DF8050000208DF8060098
:104A80008DF814B0CF488DF815700490002364227F
:104A900001A9286F06F048FC0146012802D0CAA0EF
:104AA00002F030F94F46484602F002F903F028FDC3
:104AB000384602F0FDF8AE63286B01287FF4FFAEA4
:104AC00060034DD5CFA002F01DF9D7A003F0A2FDE1
:104AD00048B1D7A002F016F93220CDE916600023C4
:104AE000642216A920E0DBA002F00CF93227CDE900
:104AF00016670023642216A9E86E06F015FC01462D
:104B0000012802D082A002F0FDF84146686D06F04F
:104B1000B7FD0146012802D08BA002F0F3F8002374
:104B2000642216A9CDE91667E86E06F0FDFB014682
:104B3000012802D076A002F0E5F84146686D06F043
:104B40009FFD0146012802D07FA002F0DBF84D4610
:104B5000484602F0ADF803F0D3FC284602F0A8F86E
:104B6000A00213D503F042FA010003D5C2A002F05F
:104B7000C9F802E0CCA002F0C5F84D46484602F064
:104B800097F803F0BDFC284602F092F820037FF569
:104B900096AE03F0B7F960B1CEA002F0B3F84C4680
:104BA000484602F085F803F0ABFC204602F080F89E
:104BB00085E6D2A0F1E700005B6170705F746173FD
:104BC0006B5F6672313030325D206372656174658F
:104BD00020737563636573730D0A00005B61707009
:104BE0005F7461736B5F6672313030325D203344C5
:104BF000C8CBC1B3CAB6B1F0C4A3BFE9C1ACBDD381
:104C0000D6D0202E2E2E0D0A000000005B617070A1
:104C10005F7461736B5F6672313030325D20334494
:104C2000C8CBC1B3CAB6B1F0C4A3BFE9D2D1C1AC3D
:104C3000BDD3C9CF0D0A0000000000205B61707079
:104C40005F7461736B5F6672313030325D206973FF
:104C50002072756E6E696E672E2E2E0D0A00000092
:104C60005B61705F7461736B5F6672313030325DAF
:104C700020D6B4D0D0D1E9D6A4C8CBC1B3B2D9D74D
:104C8000F70D0A005B6170705F7461736B5F667231
:104C9000313030325D20C8CBC1B3C6A5C5E4CAA748
:104CA000B0DC210D0A0000005B6170705F746173FD
:104CB0006B5F6672313030325D20C8CBC1B3C6A5A0
:104CC000C5E4B3C9B9A6210D0A00000090D70008B9
:104CD0005B6170705F7461736B5F6672313030322C
:104CE0005D2078517565756553656E64206F6C65E0
:104CF000642070696374757265206572726F7220CA
:104D0000636F64652069732025640D0A000000004C
:104D10005B6170705F7461736B5F667231303032EB
:104D20005D2078517565756553656E6420626565B3
:104D300070206572726F7220636F646520697320E2
:104D400025640D0A000000005B6170705F74617380
:104D50006B5F6672313030325D207853656D617003
:104D6000686F726554616B6520675F73656D5F6224
:104D7000656570206572726F7220636F646520696B
:104D8000732025640D0A00005B6170705F746173AD
:104D90006B5F6672313030325D20785175657565B4
:104DA00053656E6420666C617368206572726F7201
:104DB00020636F64652069732025640D0A0000007C
:104DC00090D9000890D500085B6170705F746173C2
:104DD0006B5F6672313030325D2078517565756574
:104DE00053656E64206F6C656420737472696E67BE
:104DF000206572726F7220636F646520697320256D
:104E0000640D0A005B61705F7461736B5F66723181
:104E10003030325D20D6B4D0D0CCEDBCD3C8CBC1BD
:104E2000B3B2D9D7F70D0A007477656E00000000A1
:104E30005B6170705F7461736B5F667231303032CA
:104E40005D20D7A2B2E1D3C3BBA7CAA7B0DC210DB6
:104E50000A0000005B6170705F7461736B5F667263
:104E6000313030325D20D7A2B2E1D3C3BBA7B3C982
:104E7000B9A6210D0A0000005B6170705F74617358
:104E80006B5F6672313030325D20BBF1C8A1D2D188
:104E9000D7A2B2E1B5C4D3C3BBA7D7DCCAFDCAA7AA
:104EA000B0DC210D0A0000005B6170705F746173FB
:104EB0006B5F6672313030325D20BBF1C8A1D2D158
:104EC000D7A2B2E1B5C4D3C3BBA7D7DCCAFD3A258C
:104ED000640D0A005B6170705F7461736B5F667272
:104EE000313030325D20C9BEB3FDCBF9D3D0D3C34E
:104EF000BBA7CAA7B0DC210D0A0000005B6170707F
:104F00005F7461736B5F6672313030325D20C9BE91
:104F1000B3FDCBF9D3D0D3C3BBA7B3C9B9A6210D79
:104F20000A0000002DE9FC410024012006F07DF973
:104F3000634D0021E865142006F05AF92865002128
:104F4000142006F055F9686500210A2006F050F992
:104F5000A86505F0F3FF286600220121042006F071
:104F600076F9A86600220821042006F070F9E866A8
:104F700000221421102006F06AF92867002241213E
:104F8000042006F064F9686600224C21102006F027
:104F90005EF9686700220121042006F058F9A8672D
:104FA00000224021102006F052F90121E86700227A
:104FB000084606F04CF905F18006002230604FF4F7
:104FC0000071032006F043F9706003F0A5FE03F0C2
:104FD00095FF03F023FF01F041FE03F029FE05F0E9
:104FE00097F90020FDF7D8FC41F26716B04208D0CF
:104FF00004F0A6FF02F0C4FA31460020FDF75AFE85
:1050000001E005F013F803F001FE502080F3118851
:10501000BFF34F8FBFF36F8F2A4E0CE006EBC0003B
:10502000D0E90412CDE900120289C368416838460C
:1050300006F01CFC641C04EB440056F83070002F92
:10504000ECD1002080F311881F48012300901A46FC
:105050004FF47A711DA006F0DDFDA86106F040FC5A
:1050600002460020034600900121A86906F020FEB8
:1050700001F060FEFDF754F902F0C8FE04F052F8AA
:10508000FDF7F2F815480021009008238022084619
:10509000FDF725F940F6B83005F0BEFCFDF7E4F861
:1050A0000F4800900823602200212020FDF717F907
:1050B000002005F0D7FCBDE8FC410AA001F022BEAB
:1050C0000000002098BE0008DDA000084175746F44
:1050D00052656C6F616454696D65720090D100080F
:1050E00090D500085B6170705F7461736B5F696E6F
:1050F00069745D206E65727665722072756E2068C7
:105100006572650D0A00000086B0002778A001F0E6
:10511000F9FDDFF8FC917F4EDFF8FC814FF0FF3A9C
:10512000CDF800A0002301220F21306E05F062FFB0
:10513000054605F09FFBF76305F0BCFB142101A8B1
:10514000FBF70CFCE80722D00620FDF73BF83220E5
:1051500005F062FCD9F800024C4688B96FA001F056
:10516000D1FDB06805F040FEB762306B012807D171
:105170008103306E05F0EFFE02E0012005F04CFCEB
:10518000D4F800020028F8D00620FDF726F8A8077A
:1051900064D50820FDF716F8322005F03DFCD8F85C
:1051A0000802002853D164A001F0ACFD306B18B1A7
:1051B000306B01280AD04AE0B06805F015FEB762EE
:1051C0004FF48031306E05F0C6FE40E0002406E06A
:1051D000142005F021FC2046641C642803D2D8F872
:1051E00008020028F4D0642C0CD35AA001F08AFDE8
:1051F0004FF48051306E05F0AEFE0146012826D0F6
:10520000634822E004208DF804000023642201A9F1
:10521000306F06F089F80146012802D05DA001F048
:1052200071FDB06805F06AFD706C40B1002166A0A8
:10523000716401F067FD706C18B1012002E001217A
:10524000F5E70220B062B16A63A001F05BFD44465D
:10525000D4F8080278B10820FCF7BFFF680724D50E
:105260000920FCF7AFFF322005F0D6FBD8F80C027E
:10527000444620B112E0012005F0CEFBE8E727A06C
:1052800001F040FDB762306B012807D14104306E58
:1052900005F061FE02E0012005F0BEFBD4F80C022F
:1052A0000028F8D00920FCF798FF28077FF538AFD1
:1052B0000A20FCF787FF322005F0AEFBD8F8100279
:1052C000444668B949A001F01DFD306B012807D1A3
:1052D000C103306E05F03FFE02E0012005F09CFBAB
:1052E000D4F810020028F8D00A20FCF776FF17E760
:1052F0005B6170705F7461736B5F6B65795D206378
:10530000726561746520737563636573730D0A005C
:105310000000404200000020000042425B617070CB
:105320005F7461736B5F6B65795D205331205072E0
:105330006573730D0A0000005B6170705F746173C8
:105340006B5F6B65795D2053322050726573730D0E
:105350000A0000005B6170705F7461736B5F6B6566
:10536000795D20533220507265737320436F6E74E1
:10537000696E75652073797374656D207768696CE3
:10538000652062652072657365742121210D0A0014
:10539000E0DC00085B6170705F7461736B5F6B656C
:1053A000795D2078517565756573656E64206F6CE5
:1053B0006564206572726F7220636F646520697323
:1053C0002025640D0A000000675F6B65795F325F1E
:1053D0007374613A25640000675F7274635F676588
:1053E000745F776861743A25640000005B617070D7
:1053F0005F7461736B5F6B65795D2053342050720D
:105400006573730D0A0000000EB54E208DF808007C
:105410001AA001F077FC01250A26204CAF1E03F0EC
:1054200053FC8DF808004E28F9D001461CA001F06D
:1054300069FC0023642202A9A06F05F075FF0146F4
:10544000012802D01EA001F05DFCCDE9005600232A
:1054500064226946E06E05F067FF0146012802D02C
:1054600024A001F04FFC3946606D06F009F90146B1
:105470000128D4D02CA001F045FCD0E75B6170700E
:105480005F7461736B5F6B62645D206372656174EE
:105490006520737563636573730D0A000000002057
:1054A0005B6170705F7461736B5F6B62645D206BD6
:1054B0006264207072657373202563200D0A0000FA
:1054C0005B6170705F7461736B5F6B62645D2078A9
:1054D000517565756553656E64206B6264206572F5
:1054E000726F7220636F64652069732025640D0AF2
:1054F000000000005B6170705F7461736B5F6B62D2
:10550000645D2078517565756553656E64206265CC
:105510006570206572726F7220636F6465206973B5
:105520002025640D0A0000005B6170705F74617378
:105530006B5F6B65795D207853656D6170686F7224
:105540006554616B6520675F73656D5F626565704B
:10555000206572726F7220636F6465206973202505
:10556000640D0A0008B500258DF800501DA001F05B
:10557000C9FB244CDFF89080244E4FF0FF3A0127FE
:1055800052466946B06E05F0DFFF814620A001F06B
:10559000B9FBB9F1010FF3D19DF80000C10606D5A2
:1055A000C10702D0C4F8A45201E0C4F8A472810675
:1055B00006D5C10702D0C4F8A85201E0C4F8A87209
:1055C000410607D5C007404602D0C0F8B45201E0FA
:1055D000C0F8B47200231A461946306D05F0A4FED7
:1055E000CEE700005B6170705F7461736B5F6C6528
:1055F000645D2063726561746520737563636573B0
:10560000730D0A0000804242000042420000002068
:105610005B6170705F7461736B5F6C65645D206962
:10562000732072756E6E696E67202E2E2E0D0A0025
:105630000FA001F067FB002005F0D6FB1AA001F0D7
:1056400061FB0024E0B203F0E3FB142005F0E4F971
:10565000641C64B2642CF5DD6424E0B203F0D8FB72
:10566000142005F0D9F9641E64B2002CF5DAE8E7DD
:105670005B6170705F7461736B5F6C65645F6272B5
:10568000656174685D20637265617465207375631C
:105690006365737320616E642073757370656E64E7
:1056A0002073656C660D0A005B6170705F746173D6
:1056B0006B5F6C65645F6272656174685D207265C2
:1056C00073756D6520737563636573730D0A0000F0
:1056D00015A001F017FB1E4E1E4D4FF47A7906F10E
:1056E00080074FF000084FF4007A2C680A2001F080
:1056F000DFFAF0690028F8D0002CF6D02868844240
:10570000F3D100234A461449786805F00DFE01469E
:10571000012802D0114801F0F5FAC5F80080514681
:105720000D48FBF7F9F8E0E75B6170705F74617337
:105730006B5F6D6F6E69746F725D2063726561740B
:10574000652073756363657373200D0A00000000A4
:105750000000002024010020620600209CDC0008DC
:105760005D4C88B014264FF000084FF0200A4FF02F
:10577000080B4FF001094FF0FF3757483A46803089
:1057800007A9006805F0E0FE0146012803D053A0F8
:1057900001F0B8FAF1E79DF81C0001284FD1402034
:1057A0008DF810008DF801A08DF8028007208DF88B
:1057B00000005A488DF811B0039000236422694616
:1057C000206F05F0B1FD0146012802D054A001F080
:1057D00099FA03F0FFFBCDE905964D4600236422BC
:1057E00005A9E06E05F0A0FD0146012802D05BA0EE
:1057F00001F088FA3946606D05F042FF0146012844
:1058000002D063A001F07EFA642005F005F9CDE92D
:1058100005560023642205A9E06E05F085FD0146CA
:10582000012802D04DA001F06DFA3946606D05F0F7
:1058300027FF0146012802D055A001F063FA9DF828
:105840001C0002283CD14546C4F82880A06805F019
:10585000CBFAE56207208DF8000040208DF810009B
:105860008DF801A05A488DF802508DF811B00390C0
:10587000002364226946206F05F056FD0146012889
:1058800002D054A001F03EFA03F0F8FB4FF47A7016
:10589000CDE905900023642205A9E06E05F044FDE2
:1058A0000146012802D02DA001F02CFA3946606D86
:1058B00005F0E6FE0146012802D035A001F022FAEB
:1058C00000231A461946A06D05F02EFD41F28830DE
:1058D00001F0EEF951E70000000000205B617070FC
:1058E0005F7461736B5F6D6F746F725D207851755B
:1058F0006575655265636569766520757361727457
:105900005F7061636B6574206572726F7220636F84
:1059100064652069732025640D0A000090D7000893
:105920005B6170705F7461736B5F6D6F746F725DDC
:105930002078517565756553656E64206F6C65647C
:105940002070696374757265206572726F7220636E
:105950006F64652069732025640D0A005B617070B7
:105960005F7461736B5F6D6F746F725D20785175DA
:1059700065756553656E6420626565702065727239
:105980006F7220636F64652069732025640D0A00BF
:105990005B6170705F7461736B5F6D6F746F725D6C
:1059A000207853656D6170686F726554616B652016
:1059B000675F73656D5F62656570206572726F7297
:1059C00020636F64652069732025640D0A00000060
:1059D00090D500085B6170705F7461736B5F6D6F71
:1059E000746F725D2078517565756553656E6420BE
:1059F0006F6C656420737472696E67206572726F74
:105A00007220636F64652069732025640D0A0000AD
:105A1000002412A001F076F919A001F073F900201A
:105A200005F0E2F91DA001F06DF94FF47A763046E9
:105A300004F0F2FF204D03F075FD03F003FD304646
:105A400001F036F9641C062CF5D3E86A002401281D
:105A5000F1D14021286E05F07EFAECE75B617070B1
:105A60005F7461736B5F6D7174745D2063726561E7
:105A7000746520737563636573730D0A000000001D
:105A80005B6170705F7461736B5F6D7174745D20C6
:105A900073757370656E640D0A0000005B61707051
:105AA0005F7461736B5F6D7174745D207265737583
:105AB0006D650D0A000000000000002086B02BA0DC
:105AC00001F020F9142101A8FAF748FF304C4FF0FB
:105AD000FF352A4601A9206F05F036FD0128F8D1CF
