:020000040800F2
:1000000030380120550300087710000873100008ED
:1000100075100008ED0C0008B12100080000000078
:100020000000000000000000000000009502000831
:10003000EF0C000800000000F1020008611C00083D
:100040006F0300086F0300086F030008591A0008C7
:100050006F0300086F030008F10C00086F0300082D
:100060002D0D0008690D0008A50D00086F0300089C
:100070006F0300086F0300086F0300086F03000898
:100080006F0300086F0300086F0300086F03000888
:100090006F0300086F0300086F030008E10D0008FC
:1000A0006F0300086F0300086F0300086F03000868
:1000B000E91C0008651D00086F0300086F030008B5
:1000C0006F0300086F0300086F0300086F03000848
:1000D0006F030008E51E0008691F0008B51F00082F
:1000E0006F030008051600086F0300086F0300087F
:1000F0006F0300086F0300086F0300086F03000818
:100100006F0300086F0300086F0300086F03000807
:100110006F0300086F0300086F0300086F030008F7
:100120006F0300086F0300086F0300086F030008E7
:100130006F0300086F0300086F0300086F030008D7
:100140006F0300086F0300086F0300086F030008C7
:100150006F0300086F0300086F0300086F030008B7
:100160006F0300086F0300086F0300086F030008A7
:100170006F0300086F0300086F0300086F03000897
:100180006F0300086F03000800F002F800F073F836
:100190000AA090E8000C82448344AAF10107DA45E2
:1001A00001D100F068F8AFF2090EBAE80F0013F0C1
:1001B000010F18BFFB1A43F001031847D4A4000035
:1001C000F4A400000A444FF0000C10F8013B13F0B7
:1001D000070408BF10F8014B1D1108BF10F8015BA0
:1001E000641E05D010F8016B641E01F8016BF9D193
:1001F00013F0080F1EBF10F8014BAD1C0C1B09D1EA
:100200006D1E58BF01F801CBFAD505E014F8016B5B
:1002100001F8016B6D1EF9D59142D6D370470000ED
:100220000023002400250026103A28BF78C1FBD8FF
:10023000520728BF30C148BF0B607047642900F0E7
:100240001B81782900F05481632900F0AA83732967
:1002500000F0AF83002070471FB508F075FA00F07A
:10026000EDFC04000020002108F058FA401C6060FA
:100270001FBD10B510BD00F0BCFC1146FFF7ECFF30
:1002800006F028F800F0ECFC03B4FFF7F2FF03BC23
:1002900002F09CF82C4B19680868B0E8F04F80F326
:1002A0000988BFF36F8F4FF0000080F3118870470B
:1002B0000000000008480068006880F308884FF0DC
:1002C000000080F3148862B661B6BFF34F8FBFF3AE
:1002D0006F8F00DF00BF00BF08ED00E0DFF80C000B
:1002E000016841F470010160704700BF88ED00E0D3
:1002F000EFF30980BFF36F8F134B1A681EF0100FD6
:1003000008BF20ED108A20E9F04F106009B44FF0CB
:10031000500080F31188BFF34F8FBFF36F8F07F04A
:10032000F3FA4FF0000080F3118809BC19680868DF
:10033000B0E8F04F1EF0100F08BFB0EC108A80F349
:100340000988BFF36F8F7047F0000020EFF305803E
:10035000704700000948804709480047FEE7FEE76C
:10036000FEE7FEE7FEE7FEE7FEE7FEE7FEE7FEE765
:1003700004480549054A064B704700008D1C0008DB
:10038000890100083032012030380120303401204A
:1003900030340120704700000FB4044910B503AA9F
:1003A000029800F00BFB10BC5DF814FBDC00002091
:1003B0000FB41CB5074B06AA7B446946009005980C
:1003C00000F0CDFA0020694600F0DCFA1CBC5DF8B4
:1003D00014FB0000C905000070B50446856900687B
:1003E000C10601D5302600E02026C00707D070BD29
:1003F000D4E9012130469047206A401C20626D1EDE
:10040000F6D570BD70B5044685690078C00707D180
:1004100070BDD4E9012120209047206A401C206251
:100420006D1EF6D570BD70B50C460546012A05D087
:100430002878800600D5EA69002302E0012305E060
:100440005B1C934202D2E05C0028F9D1A869E6184F
:10045000C01AA861286A184428622846FFF7BCFF22
:1004600004E0D5E9012114F8010B9047B442F8D318
:100470002846FFF7C7FF70BD2DE9F041064600246E
:1004800010687529314616A510D0AFF300800028FA
:1004900002DA404213A507E031688A0701D512A5A8
:1004A00002E0490704D511A5012401E0AFF3008063
:1004B00000210A2206F1240709E0B0FBF2FCB0FBA0
:1004C000F2F302FB1C00303078541846491C002817
:1004D000F3D123462A463046BDE8F04100F0E0B9AA
:1004E000000000002D0000002B0000002000000094
:1004F00070B504460D4621461068AFF30080218890
:10050000090502D50F4A7A4402E00E4A7A440E32B7
:10051000002104F1240305E000F00F060009965DB8
:100520005E54491C0028F7D120780023000704D529
:10053000702D02D009B1022311322046BDE870406F
:1005400000F0AEB9029F00002DE9F05F8946044635
:100550004FF0000ADFF824B1FB44C0F820A0204689
:10056000E168884700287DD0252806D0D4E90121FC
:100570009047206A401C2062F1E700255F46204634
:10058000E16888472028064607DB312E05D2B819D6
:1005900010F8200C08B10543F1E7A80701D525F0B4
:1005A0000405C4F81CA00027C4F818A02A2E09D0FE
:1005B000304601F05FFE38B304EB8708303EC8F8E0
:1005C000186019E059F8041B204604EB870291617A
:1005D000E1688847012F064618D1E069002820DA33
:1005E00025F020051DE0D8F8180000EB800006EB90
:1005F00040003038C8F818002046E16888470646B1
:1006000001F038FE0028EED1012F0AD02E2E08D19D
:100610002046E16888477F1C0646022F45F02005EA
:10062000C4DBA069002803DA404245F00105A0615F
:10063000E80701D025F01005A6B1A6F14100192860
:1006400002D8203645F400654A46314620462560EA
:100650004D46FFF7F3FD60B1012807D0ED1D25F0F1
:10066000070000E007E000F1080978E705F1040958
:1006700075E730467AE7206ABDE8F09FD89E000013
:1006800070B5064600F008F90468054630460A22AF
:10069000002100F0A5F92C6070BD0000014A00F0B7
:1006A000D7B900006401002030B505460B462A4644
:1006B00013F8014B12F8010B08B1A042F8D01CB19D
:1006C000002802D06D1CF1E7284630BD40EA010346
:1006D00010B59B070FD1042A0DD310C808C9121FEB
:1006E0009C42F8D020BA19BA884201D9012010BD25
:1006F0004FF0FF3010BD1AB1D30703D0521C07E0F2
:10070000002010BD10F8013B11F8014B1B1B07D155
:1007100010F8013B11F8014B1B1B01D1921EF1D1C6
:10072000184610BD10B5431C02E010F8011B71B152
:100730008107FAD14FF0013202C88C1A8C4314EAB7
:10074000C211F9D0C01A0A0603D0C01E10BDC01ACB
:1007500010BD0A0401D0801E10BD0902FCD0401E4D
:1007600010BD032A40F2308010F0030C00F0158019
:1007700011F8013BBCF1020F624498BF11F801CBA4
:1007800000F8013B38BF11F8013BA2F1040298BF09
:1007900000F801CB38BF00F8013B11F0030300F073
:1007A0007981083AC0F0088051F8043B083A51F8C2
:1007B00004CBA0E80810F5E7121D5CBF51F8043B1C
:1007C00040F8043BAFF30080D20724BF11F8013B8F
:1007D00011F801CB48BF11F8012B24BF00F8013BF1
:1007E00000F801CB48BF00F8012B704702F0FF036F
:1007F00043EA032242EA024200F002B84FF000024C
:100800000429C0F0128010F0030C00F01B80CCF122
:10081000040CBCF1020F18BF00F8012BA8BF20F890
:10082000022BA1EB0C0100F00DB85FEAC17C24BFE4
:1008300000F8012B00F8012B48BF00F8012B70478E
:100840004FF0000200B5134694469646203922BF69
:10085000A0E80C50A0E80C50B1F12001BFF4F7AFB4
:10086000090728BFA0E80C5048BF0CC05DF804EB96
:10087000890028BF40F8042B08BF704748BF20F804
:10088000022B11F0804F18BF00F8012B7047704702
:10089000704770477047000000487047D031012012
:1008A0002DE9F0470D4699469246044600F124088A
:1008B0000168880604D5E06921F01001216000E09C
:1008C0000120A84201DD471B00E00027A1697A1939
:1008D00002EB0900081AA0612078C00602D4204665
:1008E000FFF77AFD002608E0D4E901211AF8060096
:1008F0009047206A401C761C20624E45F4DB20782D
:10090000C0060AD52046FFF767FD06E0D4E90121BD
:1009100030209047206A401C2062381EA7F1010752
:10092000F4DC07E0D4E9012118F805009047206ABB
:10093000401C2062281EA5F10105F3DC2046FFF7CC
:1009400061FD2078000602D50220BDE8F087012075
:10095000FBE7000001694A1C02610878704700B596
:100960008FB0CDE901310021059105497944CDE9E8
:10097000031011466846FFF7E7FD0FB000BD000009
:10098000E5FFFFFF0A6802F8010B0A60704710B527
:10099000436913B1AFF3008001E0FFF744FD01208C
:1009A00010BD127800F124010A7000224A70012261
:1009B000EDE711684FF0FF32E9E70000074B70B533
:1009C0000D467B44FFF7CBFF0446284600F0EFF8C6
:1009D00010B14FF0FF3070BD204670BDC34800001D
:1009E0002DE9F04791460F4680460446002614F84C
:1009F000015B2DB100F084F80068405DC007F6D1BE
:100A00002B2D02D02D2D18D0641E4A463946204683
:100A100000F07EF827B13968A14201D1C7F8008003
:100A20004FF0020471050BD54042002803DDFFF7AB
:100A300033FF0460A007BDE8F08746F48066E4E772
:100A40000028F8DAFFF728FF04606FF00040F2E7B3
:100A50002DE9F04115460E46040002D12C6804B978
:100A60000BA4204600F0B7F80444207870B1274664
:100A70003146384600F09FF80444207810B1002039
:100A800004F8010B38462C60BDE8F0810027F9E737
:100A90000000000010B5203AC0F00B80B1E81850FB
:100AA000203AA0E81850B1E81850A0E81850BFF458
:100AB000F5AF5FEA027C24BFB1E81850A0E81850F7
:100AC00044BF18C918C0BDE810405FEA827C24BF4B
:100AD00051F8043B40F8043B08BF7047D20728BFD9
:100AE00031F8023B48BF11F8012B28BF20F8023B28
:100AF00048BF00F8012B704700487047D0310120F3
:100B000010B500F09BF8001D10BD00BF117C000067
:100B10002DE9F05F824615468B4600270AF1010455
:100B2000B9460078302801D09DB113E014F8010BCC
:100B30000127782803D0582801D045B10AE00DB12B
:100B4000102D07D1002714F8010B102502E008250D
:100B500000E00A250026B0460EE005FB080005FB74
:100B600006F101271FFA80F801EB1046B6F5803F29
:100B700000D3B94614F8010B294600F063F80028A9
:100B8000EBDABBF1000F05D00FB1641E00E0544654
:100B9000CBF80040B9F1000F06D0FFF77DFE02212F
:100BA0000160C81EBDE8F09F48EA0640FAE7007BF6
:100BB00000F08000704730B503461D781DB10A462D
:100BC00003E0AC4201D1181A30BD12F8014B002CE1
:100BD000F7D15B1CF1E730B503461D783DB10A46FD
:100BE00012F8014B1CB1AC42FAD15B1CF5E7181AA4
:100BF00030BD7546FFF780FFAE4605006946534697
:100C000020F00700854618B020B5FFF7B1FBBDE81E
:100C100020404FF000064FF000074FF000084FF063
:100C2000000B21F00701AC46ACE8C009ACE8C009F4
:100C3000ACE8C009ACE8C0098D4670470048704771
:100C4000F03101203A2800D2303820F02002412A29
:100C500001D3A2F13700884201D34FF0FF30704733
:100C60000446AFF300802046FFF70EFB4FF0013C37
:100C700050F8042B51F8043B9A4221D1A2EB0C030B
:100C8000934313EACC1317D150F8042B51F8043BCB
:100C90009A4215D1A2EB0C03934313EACC130BD168
:100CA00050F8042B51F8043B9A4209D1A2EB0C03F3
:100CB000934313EACC13DBD04FF00000704700BF22
:100CC000D01A01BAB1FA81F101F0180122FA01F04B
:100CD000CB40C1F12001DBB2C0B2C01A2CFA01F343
:100CE000D11A914311EAC311E6D17047FEE770476C
:100CF00010B55020EFF3118480F31188BFF34F8FAC
:100D0000BFF36F8F012000F083F8012808D1064857
:100D100000220121006806F08FFE012000F072F829
:100D200084F3118810BD00002800002010B5502069
:100D3000EFF3118480F31188BFF34F8FBFF36F8FF0
:100D4000042000F065F8012808D10648002202219D
:100D5000006806F071FE042000F054F884F3118856
:100D600010BD00002800002010B55020EFF31184C2
:100D700080F31188BFF34F8FBFF36F8F082000F00F
:100D800047F8012808D1064800220421006806F02F
:100D900053FE082000F036F884F3118810BD0000DF
:100DA0002800002010B55020EFF3118480F3118843
:100DB000BFF34F8FBFF36F8F102000F029F8012889
:100DC00008D1064800220821006806F035FE1020F0
:100DD00000F018F884F3118810BD000028000020EE
:100DE00010B5402000F014F8002807D00449012075
:100DF0004860BDE81040402000F004B810BD00007D
:100E0000A80000200149086070470000143C014020
:100E1000034A0146002012680A4200D001207047B0
:100E2000143C014030B51A4A8379016853B3136802
:100E30008B431360111D0B680468A3430B60017999
:100E400011440B68046823430B60114B0833196885
:100E50000468A14319601C1D21680568A94321602D
:100E60004179102905D011440A68006802430A60DC
:100E700030BD196802681143196021680068014398
:100E8000216030BD0079104402688A43026030BDA1
:100E9000003C014001490860704700000C3C0240E2
:100EA00070B50646002529B1012927D0022928D08E
:100EB0004FF4407500F080F809281ED1124C2068CC
:100EC00020F440702060206828432060206820F0D3
:100ED000F8002060206846F0020108432060206886
:100EE00040F48030206000F067F8216821F00201B2
:100EF0002160216821F0F801216070BD4FF48075F8
:100F0000D8E74FF40075D5E7103C02400D490920A1
:100F10000A68D20301D5012070470A68D20601D5BC
:100F2000062070470A68D20501D5022070470A687A
:100F300012F0EF0F01D00720704709688907FBD531
:100F4000082070470C3C02400248016841F0004113
:100F500001607047103C024070B50D46064600F037
:100F60002BF8092813D10A4C206820F44070206027
:100F7000206840F400702060206840F0010020608C
:100F8000356000F019F8216821F00101216070BD81
:100F9000103C024005480068002805DA034804496F
:100FA0000C3801600349016070470000103C0240AA
:100FB00023016745AB89EFCD08B509208DF8000006
:100FC000FFF7A4FF8DF800009DF800000128F7D07E
:100FD0009DF8000008BDF0B5002201274FF0030C7A
:100FE0000B6807FA02F52B40AB422CD10668530080
:100FF0000CFA03F4A64306600E79D0F800E09E4098
:1010000046EA0E0606600E79012E01D0022E12D19C
:101010008668A64386604E79D0F808E09E4046EA8E
:101020000E0686604668AE43466045688E799640F7
:10103000B6B235434560C568A543C560CC799C40D0
:10104000C3681C43C460521C102AC9D3F0BD4B07AF
:10105000DB0E9A40C90810B500EB8100016A0F242D
:101060009C40A1430162016A1143016210BD0183EA
:101070007047FEE7FEE7704700F01F020121914034
:101080004009800000F1E020C0F88011704700F0B6
:101090001F02012191404009800000F1E020C0F8CA
:1010A0000011704730B50F23C27801780125FAB1DD
:1010B000144A126801F1E02102F4E062C2F5E06234
:1010C000C2F30722C2F10404D3404278A2408478DC
:1010D0001C401443220181F80024007800F01F0115
:1010E0008D404009800000F1E020C0F8005130BD83
:1010F00001F01F0085404809800000F1E020C0F8A1
:10110000805130BD0CED00E00249084302490860FF
:10111000704700000000FA050CED00E070B50025F6
:10112000002105F1B00000F08CF90021084600F024
:1011300088F90021102000F084F90024012100200A
:1011400000F07FF9641CE4B2802CF7D36D1CEDB283
:10115000082DE5D370BD10B500218D2000F071F988
:101160000021102000F06DF90021BDE81040AE20F4
:1011700000F067B910B500218D2000F062F9002160
:10118000142000F05EF90021BDE81040AF2000F00F
:1011900058B92DE9F0471F4690460E468246002575
:1011A000DDF8209011E03146504600F0ADF854468D
:1011B00007E019F8050001216D1C00F042F9641CDC
:1011C000E4B24445F5D3761CF6B2BE42EBD3BDE89B
:1011D000F08700002DE9FC410121022000F03EF9DA
:1011E00001248DF80440002504208DF806500326C4
:1011F000444F00908DF805608DF8074069463846E9
:10120000FFF7E9FE8DF8044002208DF806500090AB
:101210008DF805608DF8074069463846FFF7DBFE1C
:10122000C82003F099FA0021AE2000F00AF900214D
:10123000084600F006F90021102000F002F9002114
:10124000402000F0FEF80021B02000F0FAF8002164
:10125000812000F0F6F80021FF2000F0F2F80021D4
:10126000A12000F0EEF80021A62000F0EAF800210D
:10127000A82000F0E6F800213F2000F0E2F800216D
:10128000C82000F0DEF80021D32000F0DAF80021B9
:10129000084600F0D6F80021D52000F0D2F8002151
:1012A000802000F0CEF80021D82000F0CAF80021FC
:1012B000052000F0C6F80021D92000F0C2F8002176
:1012C000F12000F0BEF80021DA2000F0BAF8002189
:1012D000122000F0B6F80021DB2000F0B2F8002167
:1012E000302000F0AEF800218D2000F0AAF8002197
:1012F000142000F0A6F80021AF2000F0A2F8BDE80D
:10130000FC8100000004024010B50A46044600219A
:1013100002F1B00000F095F8102040EA141000210E
:1013200000F08FF804F00F00BDE81040002100F03D
:1013300088B800002DE9F04115460E460746FFF734
:10134000E3FF0F48002400EB85150121285D00F024
:1013500078F8641CE4B2102CF7D3761CF1B238464E
:10136000FFF7D2FF00242819012190F8200000F097
:1013700068F8641CE4B2102CF5D3BDE8F0810000DD
:10138000DC9000082DE9F041203A00240F46804609
:10139000D5B27F2803D900208F1C8046FFB2102BC6
:1013A000394610D0FFF7B0FF164905EB450001EBB9
:1013B00040050121285D00F044F8641CE4B2062CCD
:1013C000F7D3BDE8F081FFF79FFF0F4E04EB051048
:1013D0000121305C00F035F8641CE4B2082CF5D330
:1013E0007F1CF9B24046FFF78FFF002404EB051085
:1013F00030440121007A00F024F8641CE4B2082C87
:10140000F4D3DEE7C4880008EC8A00082DE9F04137
:10141000984617460E46044600250DE043463146E1
:101420002046FFF7AFFF0834E4B2782C02D900243D
:10143000B61CF6B26D1CEDB27A5D002AEED1BDE8A5
:10144000F081C0B209B100F0FEBE00F0E5BE0000C0
:10145000014908627047000000000E42044A00295A
:10146000116801D0014300E0814311607047000022
:1014700030380240044A0029116801D0014300E0DD
:10148000814311607047000040380240044A00293F
:10149000116801D0014300E08143116070470000F2
:1014A0004438024070B5204B1968204C11F00C01F3
:1014B00004D06610042903D0082903D004601BE07F
:1014C000066019E0184A121F1168C1F380551168AF
:1014D00001F03F0115B1B6FBF1F101E0B4FBF1F110
:1014E00014681268C4F388146143C2F30142521CA9
:1014F0005200B1FBF2F1016019680F2202EA1111EA
:101500000B4A545C0168E14041601C68072505EA0C
:101510009424145D21FA04F484601B6805EA5333B3
:10152000D25CD140C16070BD083802400024F40094
:10153000E000002002460020510901290BD00229B9
:101540000CD00849096802F01F02012393400B42A6
:1015500000D00120704703497439F3E70149091F9E
:10156000F0E700007438024001490860704700004D
:10157000800E474201490860704700003C0E474218
:10158000C0F30121032907D1074B1968074A21F449
:10159000F81102400A431A60034968310A68C0F32F
:1015A0000B0002430A60704708380240FFFCFF0F3F
:1015B00038B50022124C0092CA22226053222260C7
:1015C0000F4A1C3A0029116802D00143116012E051
:1015D000814311600A4A183A95131168009B01EA89
:1015E00010215B1C0093AB4201D00029F5D011689B
:1015F00011EA102000D00120FF21216038BD000039
:101600002428004010B54FF48054204600F092F892
:1016100000280DD0074800222021006806F00CFAAF
:10162000204600F02DF86001BDE81040FFF7EABB4E
:1016300010BD000028000020010901EB810100F02D
:101640000F0000EB4100C0B27047002103E0491CCD
:101650000A38C9B2C0B20A28F9D2090740EA1160B3
:101660007047000080B240F08000C1430348026828
:1016700002F0800211430160704700000C28004016
:10168000C0F30F1040F08000C1430348026802F02D
:1016900080021143016070470C28004008B50D49D5
:1016A000002000900868400612D44FF0FF30086018
:1016B0008B130868009A00F04000521C00929A4276
:1016C00001D00028F5D00868400601D4002008BDEC
:1016D000012008BD0C2800400248016821F080016B
:1016E000016070470C280040020010B50F480C46FE
:1016F00001680F4801EA00014FEA1140E070C1F3B0
:101700000423637001F03F03A370C1F342312170E1
:101710000AD1FFF791FFE0706078FFF78DFF6070EE
:10172000A078FFF789FFA07010BD000004280040DA
:101730003FFFFF000B4A0021126802F00403094A30
:10174000383A126803EAD03302401A43064B1B684A
:1017500003EA101003D00004000C00D00121084659
:1017600070470000402800400C280040020010B5DF
:1017700010480C460168104801EA0001C1F3054019
:101780002070C1F30623637001F07F03A3704FF054
:10179000400303EA1141E1700AD1FFF74DFF2070C9
:1017A0006078FFF749FF6070A078FFF745FFA070F1
:1017B00010BD0000002800407F7F7F0030B50E4D37
:1017C000CA222A6053222A600B4C0B4B1C3C1C3350
:1017D000002920F00402216800F0040004D0114325
:1017E00021601968014303E0914321601968814336
:1017F0001960FF20286030BD2428004070B5124DCC
:1018000004460026CA20286053202860FFF746FFC0
:10181000A8B10D481C38016821F040010160016841
:101820002268114301600848A1681438016001680A
:10183000A28841EA02410160FFF74EFF0126FF2026
:101840002860304670BD00002428004008B50349D8
:1018500001EB80000090006808BD000050280040A7
:1018600070B514460D46264A0021002810684FEA3C
:10187000406005D000281CDA2078FFF7DDFE19E073
:10188000002800DBE1702078FFF7DFFE06046078B7
:10189000FFF7DBFE46EA0026A078FFF7D6FE0643F8
:1018A000E07846EA0046207BFFF7CFFE46EA00607C
:1018B00010E0E170207BFFF7BFFEA0782178E2788E
:1018C00040EA01406178090241EA02410843217B74
:1018D00040EA0160A168CA220843616808430849D8
:1018E0001C310A6053220A60B5F5807F04D00A1FBC
:1018F0001060FF20086070BD014A1432F8E7000054
:101900000828004070B50C460026010060780FD012
:10191000FFF792FEA078FFF78FFEA078E17840EA0B
:10192000014560782178000240EA4130054315E026
:10193000C10603D520F010000A306070E078FFF790
:1019400084FE05046078FFF780FE45EA0025A07854
:10195000FFF77BFE0543207845EA40350D4CCA2051
:10196000206053202060FFF799FE78B10A480540B7
:10197000084820380560FFF7AFFE06481C380068AD
:10198000800602D400F08AF800B10126FF20206012
:10199000304670BD242800403FFFFF002DE9F04194
:1019A0000C460026234F01002078396832464FEA62
:1019B000416104D0002930DAFFF73EFE2EE0002915
:1019C00000DBE270FFF741FE05046078FFF73DFEA3
:1019D00045EA0025A078FFF738FE0543E07845EAA0
:1019E0000045144CCA201C34206053202060FFF7AF
:1019F00055FE68B1104805400E4808380560FFF7ED
:101A00006BFE3868800602D400F048F800B1012669
:101A1000FF2020603046BDE8F081E270A078217898
:101A200040EA01456078E178000240EA0140054360
:101A3000D7E70000082800407F7F7F000549CA22C1
:101A40000A6053220A60034A103A1060FF200860BF
:101A5000704700002428004070B55020EFF3118437
:101A600080F31188BFF34F8FBFF36F8F4FF4804522
:101A70002846FFF75FFE01280BD1074800221021FE
:101A8000006805F0D9FF2846FFF7FAFD2802FFF7A6
:101A9000B9F984F3118870BD2800002018B5002022
:101AA000104B0090CA201860532018600D49183957
:101AB000086820F0A00008604FF400340868009A1D
:101AC00000F02000521C0092A24201D00028F5D064
:101AD0000868800601D5012000E00020FF21196080
:101AE00018BD000024280040084ACA211160532173
:101AF000116006491C390B6823F007030B600B6863
:101B000003430B60FF201060704700002428004052
:101B100018B50021134B0091CA2119605321196097
:101B200010491C390028086803D040F48060086020
:101B300014E020F4806008600A4918398C130868A2
:101B4000009A00F00400521C0092A24201D000282A
:101B5000F5D00868400701D4002000E00120FF21F3
:101B6000196018BD2428004008B5034A02EB800024
:101B70000090016008BD00005028004010B58A07A1
:101B800021F003040849120F21440F23D1F808481B
:101B900093409C43C1F80848D1F80838904003436B
:101BA000C1F8083810BD0000003001400CB500221B
:101BB000274900920192086840F4803008604FF491
:101BC000A043086800F4003001900098401C009089
:101BD000019810B900989842F3D10868800334D571
:101BE000012001901A484030026842F080520260A1
:101BF0001848026842F44042026015480830026802
:101C00000260026842F400420260026842F4A0529C
:101C10000260031F104A1A600A6842F080720A606C
:101C20000A689201FCD50D4940F205720A6001680C
:101C300021F003010160016841F0020101600168C7
:101C4000C1F381010229FAD10CBD01920CBD000043
:101C5000003802400070004008544007003C024039
:101C600010B5502080F31188BFF34F8FBFF36F8FF3
:101C700006F054FB18B104494FF080500860002072
:101C800080F3118810BD000004ED00E0124810B58B
:101C9000016841F4700101601048016841F00101E0
:101CA00001600E4A00210832116002680C4B1A4094
:101CB0000260031D0B4A1A60026822F4802202604F
:101CC00006480C300160FFF771FF03494FF00060D8
:101CD0008039086010BD000088ED00E00038024047
:101CE000FFFFF6FE10300024F8B55020EFF311840A
:101CF00080F31188BFF34F8FBFF36F8F01218E07E1
:101D0000304600F069F8012823D1124D286860B1EF
:101D1000124801236A461049006806F0CFF84021B6
:101D20000D48FEF76BFD002028600021304600F0D2
:101D30003EF80121304600F037F8009838B10849E4
:101D40004FF080500860BFF34F8FBFF36F8F84F365
:101D50001188F8BDD400002041020020440000207A
:101D600004ED00E010B50E4C0121204600F034F8DF
:101D7000012814D10B4A11699068814201D0906802
:101D800006E031B19068814203D10120D06000208B
:101D900010612046BDE81040012100F005B810BDDB
:101DA00000040040A8000020C943018270470029B8
:101DB000018802D041F0010101E021F00101018020
:101DC0007047002930F8441F02D041F4004101E07F
:101DD000C1F30E010180704702460020138A9289E8
:101DE0000B4202EA010202D0002A00D00120704713
:101DF000002A828901D00A4300E08A438281704729
:101E000070B5028C22F480520284058C8288838B08
:101E10000C8823F4E6464FF6FF7303EA04243443A8
:101E200025F400568D8903EA053535434E8803EACB
:101E300006362E43084DA84202D0084DA84205D1CF
:101E400022F480450A8A03EA82122A43828084832C
:101E500089680164068470BD0000014000040140EF
:101E6000016470474162704730B50288164C174DC7
:101E7000A0420DD0A8420BD0B0F1804F08D0144B37
:101E8000984205D0134B984202D0134B984203D18D
:101E900022F070034A881A43104B984206D0104B28
:101EA000984203D022F440730A891A4302804A6898
:101EB000C2620A880285A04201D0A84201D1897A73
:101EC00001860121818230BD0000014000040140F3
:101ED0000004004000080040000C004000100040DA
:101EE000001400402DE9F0415020EFF3118480F3FD
:101EF0001188BFF34F8FBFF36F8F184D40F22556F7
:101F00003146284600F0BEF8012822D1284600F0CC
:101F100047F91349C0B20A68402A05D20A68114B32
:101F20001344521C0A60187001218F073846FFF7CE
:101F30003BFF00213846FFF73AFF00213846FFF704
:101F400091FF01213846FFF732FF3146284600F065
:101F500082F884F31188BDE8F08100000010014090
:101F6000D40000204102002070B50F4C40F22555EE
:101F70002946204600F086F8012814D1204600F0BA
:101F80000FF9C3B2094843708168402905D28268BD
:101F900007491144521C82600B7029462046BDE857
:101FA000704000F058B870BD00440040A800002008
:101FB000680100202DE9F84300255020EFF311843B
:101FC000009580F31188BFF34F8FBFF36F8F1B4FC6
:101FD00040F225584146384600F054F8F8B13846EA
:101FE00000F0DEF8174EC1B2154A70681154401C5B
:101FF0007060232901D040280DD382F84000124898
:1020000000236A460E49006805F058FF41210C483C
:10201000FEF7F4FB75604146384600F01CF8009866
:1020200038B10A494FF080500860BFF34F8FBFF3BB
:102030006F8F84F31188BDE8F883000000480040EA
:1020400000020020D40000202C00002004ED00E05D
:10205000C943018070470A0A01219140C9430180A8
:1020600070470029818902D041F4005101E021F438
:102070000051818170470246002012880A4200D038
:102080000120704770B501F01F0501260024C1F33F
:10209000421306FA05F2012B0FD0022B0FD0838AD0
:1020A0004FEA11210088134206FA01F600EA060001
:1020B00001D000B10124204670BD8389F0E7038A76
:1020C000EEE710B5C1F3421301F01F040121A14056
:1020D000012B07D0022B07D01430002A026805D04C
:1020E0000A4304E00C30F8E71030F6E78A43026058
:1020F00010BD00007FB50446008A0D46C98820F453
:10210000405001432182A08941F20C618843A98893
:102110002A8911436A8902431143A181A08A20F4CC
:102120004071A8890843A0826846FFF7BBF91A48A6
:10213000844202D01948844201D1039800E00298F9
:10214000A189090400EBC00101EB0010296801D549
:10215000490000E08900B0FBF1F06422B0FBF2F12D
:1021600009010B096FF018056B4300EB8300A3898D
:102170001D044FF0320306D503EBC000B0FBF2F0B4
:1021800000F0070005E003EB0010B0FBF2F000F0F8
:102190000F00084320817FBD001001400014014062
:1021A0008088C0F308007047C1F308018180704740
:1021B000FEE700002DE9F04180460024012003F0F5
:1021C0008DFE144E0027C6F88872C6F8847201206E
:1021D00002F0C4FA0125C4F1070105FA01F010EA82
:1021E000080F02D0C6F8845201E0C6F884720120BC
:1021F00002F0B4FAC6F88852012002F0AFFAC6F82D
:102200008872012002F0AAFA641C082CE3D3BDE80E
:10221000F08100000080404210B5044603F070FEDB
:102220007820FFF7C7FF03F0A3FE0020FFF7C2FFEF
:1022300003F09EFE2046FFF7BDFF03F099FEBDE8C8
:10224000104003F079BE10B5044603F059FE782023
:10225000FFF7B0FF03F08CFE4020FFF7ABFF03F069
:1022600087FE2046FFF7A6FF03F082FEBDE8104080
:1022700003F062BE30380A2801D2012070470020E6
:10228000704700002DE9F0474C4F0026C7F8B062B8
:102290004B4C0125C4F89452C4F8BC52C4F8845283
:1022A000022002F059FADFF81C81D8F83002E8B3B6
:1022B000D4F81002D8B3D4F83802C8B3DFF80891C4
:1022C000D9F81C02A8B3C7F8B052B246C4F8946259
:1022D000C4F8BC52C4F88452022002F03DFAD8F887
:1022E0003002464630B3D4F81002E8B3D4F83802CE
:1022F000D8B3D9F81C02C846C0B3B946C7F8B05223
:10230000C4F894525746C4F8BCA2C4F884520220C0
:1023100002F022FAD6F8300248B3D4F8100238B3EB
:10232000D4F8380280B3D8F81C0204E024E025E099
:1023300026E027E02AE040B3C9F8B052C4F894522E
:10234000C4F8BC52C4F88472022002F005FAD6F830
:10235000300258B3D4F8100250B3D4F8380248B35E
:10236000D8F81C0240B304E012E013E014E015E0DA
:1023700016E04E20BDE8F0873120FBE73220F9E778
:102380003320F7E74120F5E70CE00DE03420F1E7DA
:102390003520EFE73620EDE74220EBE73720E9E78D
:1023A0003820E7E73920E5E74320E3E72A20E1E7A3
:1023B0003020DFE72320DDE74420DBE70000434255
:1023C00000804142008042420000424270470000CB
:1023D0001CB515A0FDF7E0FF1B4C1C4D4FF0FF3660
:1023E00032466946606B05F0C7FD0128F8D10198B7
:1023F000002800980ED0C5F8A00202E0012005F0E8
:1024000035F80198401E0190401CF7D1009880F0EB
:1024100001000090C5F8A00200231A461946606A20
:1024200005F09AFCDCE700006170705F7461736B0B
:102430005F626565702069732072756E6E696E6784
:10244000202E2E2E0D0A00000000002000804242A7
:10245000A4B00525444C4FF0FF391AAF20264FF0A9
:102460001008CDF80090002301224021A06A05F059
:10247000EBFA400673D53DA0FDF78EFF22A802F0CF
:10248000B3F9010001D041A067E0142115A8FEF7BF
:10249000D7F94C2102A8FEF7D3F904208DF80C00DF
:1024A0009DF889109DF88800CDE900019DF88B30DA
:1024B0009DF88A203DA10DF10D00FDF779FF002365
:1024C000642202A9E06B05F047FC0146012802D016
:1024D0003CA0FDF761FF9DF88B309DF88A2048A154
:1024E0001AA8FDF765FF8DF854508DF8556002204D
:1024F0008DF8560016978DF85C800023642215A98C
:10250000A06B05F029FC0146012802D03FA0FDF791
:1025100043FF4FF4FA7004F0A9FF142115A8FEF749
:102520008FF99DF889309DF8882047A11AA8FDF7FA
:102530003FFF8DF854508DF8556006208DF85600F9
:1025400016978DF85C800023642215A9A06B05F016
:1025500003FC0146012802D02CA0FDF71DFFE06816
:1025600005F0F6F87DE70000000000206170705F64
:102570007461736B5F6468742069732072756E6E2A
:10258000696E67202E2E2E0D0A00000064687431DB
:10259000312072656164206572726F7220636F64AE
:1025A000652069732025640D0A00000054656D7074
:1025B0003D25642E25642048756D693D25642E25D2
:1025C000640000005B6170705F7461736B5F6468CE
:1025D000745D2078517565756553656E6420666C11
:1025E00061736820737472696E67206572726F72AE
:1025F00020636F64652069732025640D0A00000064
:1026000054656D703D25642E256400005B6170701B
:102610005F7461736B5F6468745D20785175657574
:102620006553656E64206F6C656420737472696EA7
:1026300067206572726F7220636F64652069732012
:1026400025640D0A0000000048756D693D25642E63
:10265000256400009AB02AA0FDF79EFE314C4FF091
:10266000FF352A4607A9E06B05F086FC0128F8D162
:102670002DA0FDF791FE354802F006FB07900A28D1
:1026800003D302F055F90020079005A90120FFF7B8
:102690002BF804A90120FFF769F89DF810009DF8B8
:1026A00020309DF812209DF811108DE80F009DF844
:1026B00016309DF815209DF8171025A0FDF76CFE2B
:1026C0009DF817008DF861009DF815008DF86200E7
:1026D0009DF816008DF863009DF810008DF86400D9
:1026E0009DF811008DF865009DF812008DF86600C8
:1026F00004F0EAFD07A802F0D7FA04F005FEB0E7FF
:102700005B6170705F7461736B5F666C6173685D51
:102710002063726561746520737563636573730DFF
:102720000A000000000000205B6170705F7461733C
:102730006B5F666C6173685D2077616974206765A3
:102740007420646174610D0A00000000000001083B
:10275000B5B1C7B0CAB1BCE43A3230253032782FB7
:10276000253032782F2530327820253032783A25BE
:102770003032783A253032782025640A0000000093
:102780009EB0D2A0FDF708FE0126D94D4FF0200BD8
:102790004FF008094FF0000A32274FF0FF30009049
:1027A000002301224FF47031A86A05F04DF9044668
:1027B0006869002879D1E00377D5032002F08EFA0A
:1027C000CC48FDF7E9FD4FF6FF70ADF870001CA88E
:1027D00002F018FC10F0FF0F6BD0012002F07EFA1F
:1027E000C5A0FDF7D9FD40208DF814008DF805B087
:1027F0008DF806A04FF00708CA488DF815908DF89F
:10280000048004900023642201A9A86B05F0A4FAB7
:102810000146012802D0C4A0FDF7BEFD4FF47A7036
:10282000CDE906600023642206A9686B05F094FADE
:102830000146012802D0CCA0FDF7AEFD4FF0FF31DC
:10284000686A05F035FC0146012802D0D448FDF73E
:10285000A3FD4FF4FA6004F009FE40208DF80480D7
:102860008DF814008DF805B0CE488DF806A08DF8CF
:1028700015900490D0460023642201A9A86B05F0AE
:102880006BFA0146012804D000E00EE0C6A0FDF777
:1028900083FDC5F81880EE61642001F05DFF02F051
:1028A000AFFC4FF47A7001F057FF6869012851D0EE
:1028B000A5E0022002F012FABDF87010CA48FDF738
:1028C0006BFD6E61D046C5F818A01020E861CDE917
:1028D00006670023642206A9686B05F03DFA0146ED
:1028E000012802D0C1A0FDF757FD4FF0FF31686A03
:1028F00005F0DEFB0146012802D0CAA0FDF74CFD21
:1029000040208DF814008DF805B08DF80680072062
:102910008DF80400D3488DF81590049000236422AC
:1029200001A9A86B05F018FA0146012802D0CEA033
:10293000FDF732FDE8698DF824000023642208A920
:10294000E86B05F009FA01460128A4D0D6A0FDF7EE
:1029500023FDA0E7600425D5032002F0BFF9E0487D
:10296000FDF71AFD1BA802F0D9FA10F0FF0F19D1DC
:10297000BDF86C10DBA0FDF70FFDBDF86C00401C2E
:1029800080B202F025FA10F0FF0F3CD0012002F0D7
:10299000A5F9642001F0E0FE02F032FC4FF47A70F9
:1029A00001F0DAFE200413D5032002F097F902F0BB
:1029B000ABF910F0FF0F46D0012002F08FF9642030
:1029C00001F0CAFE02F01CFC4FF47A7001F0C4FE64
:1029D000A00314D5032002F081F91BA802F09EFA8F
:1029E00010F0FF0F4FD0012002F078F9642001F0C1
:1029F000B3FE02F005FC4FF47A7001F0ADFEE8681A
:102A000004F0A6FEC9E6022002F068F9BFA0FDF7B7
:102A1000C3FCCDE906670023642206A9686B05F0B4
:102A20009BF90146012802D0C2A0FDF7B5FC4FF08A
:102A3000FF31686A05F03CFB01460128A9D079A066
:102A4000FDF7AAFCA5E7022002F048F9C7A0FDF7B0
:102A5000A3FCCDE906670023642206A9686B05F094
:102A60007BF90146012802D060A0FDF795FC4FF0EC
:102A7000FF31686A05F01CFB014601289FD069A060
:102A8000FDF78AFC9BE7022002F028F9BDF86C10E4
:102A900094A0FDF781FCCDE906670023642206A916
:102AA000686B05F059F90146012802D04FA0FDF7E7
:102AB00073FC4FF0FF31686A05F0FAFA014601280D
:102AC00094D058A0FDF768FC90E700005B6170703F
:102AD0005F7461736B5F66706D3338335D20637252
:102AE0006561746520737563636573730D0A000017
:102AF0000000002018A500085B6170705F746173AE
:102B00006B5F706173735F6D616E5D207061737375
:102B1000776F72642061757468206661696C0D0A54
:102B200000000000DCA100085B6170705F746173DD
:102B30006B5F706173735F6D616E5D207851756559
:102B4000756553656E64206F6C656420706963748D
:102B5000757265206572726F7220636F646520699B
:102B6000732025640D0A00005B6170705F746173EF
:102B70006B5F706173735F6D616E5D207851756519
:102B8000756553656E642062656570206572726F4D
:102B90007220636F64652069732025640D0A00004C
:102BA00048A40008DC9D00085B6170705F7461736D
:102BB0006B5F706173735F6D616E5D2078517565D9
:102BC000756553656E64206F6C65642073747269FB
:102BD0006E67206572726F7220636F64652069731F
:102BE0002025640D0A000000D4A400085B61707009
:102BF0005F7461736B5F66706D3338335D2078513D
:102C00007565756553656E642062656570206572D3
:102C1000726F7220636F64652069732025640D0AEA
:102C2000000000005B6170705F7461736B5F6670C1
:102C30006D3338335D207853656D6170686F7265F0
:102C400054616B6520675F73656D5F6265657020B9
:102C50006572726F7220636F6465206973202564EA
:102C60000D0A0000DC9F00085B6170705F74617387
:102C70006B5F66706D3338335D20785175657565AF
:102C800053656E64206F6C6564207069637475723F
:102C900065206572726F7220636F646520697320AE
:102CA00025640D0A000000005B6170705F74617341
:102CB0006B5F706173735F6D616E5D2078517565D8
:102CC000756553656E6420666C6173682065727209
:102CD0006F7220636F64652069732025640D0A009C
:102CE0005CA500085B6170705F7461736B5F6670F8
:102CF0006D3338335D20BBF1C8A1D6B8CEC6D7DC62
:102D0000CAFDA3BA253034640D0A00005B617070FF
:102D10005F7461736B5F66706D3338335D20D7D439
:102D2000B6AFD7A2B2E1D6B8CEC6B3C9B9A60D0A1E
:102D3000000000005B6170705F7461736B5F6670B0
:102D40006D3338335D2078517565756553656E64F4
:102D5000202062656570206572726F7220636F64F7
:102D6000652069732025640D0A0000005B617070A6
:102D70005F7461736B5F66706D3338335D20C7E5D8
:102D8000BFD5D6B8CEC6B3C9B9A60D0A000000009B
:102D9000ACB0402106A8FDF753FDCBA0FDF7FCFA2F
:102DA0004FF4E13406E04FF47A7001F0D5FCCFA087
:102DB000FDF7F2FA204602F051FB0028F3D1D6A02D
:102DC000FDF7EAFADF4D4FF0000B4FF0070A01263E
:102DD0004FF4FA784FF0FF370097002301224FF4A9
:102DE0007011A86A04F030FE0446D7A0FDF7D4FAAB
:102DF000686900287ED1E0027CD5DCA0FDF7CCFA22
:102E0000402106A8FDF71CFD06A802F037FB30B1F3
:102E1000DFA0FDF7C1FA6869002872D0CAE0E5A01A
:102E2000FDF7BAFA68690028F8D14FF48001A86A62
:102E300004F0BBFD6E612020E8618DF805004020A4
:102E40008DF8140008208DF815008DF806B0E248C2
:102E50008DF804A004900023642201A9A86B04F05B
:102E60007BFF0146012802D0DCA0FDF795FA4FF068
:102E70003209CDE916690023642216A9686B04F0B3
:102E80006BFF0146012802D0E4A0FDF785FA394620
:102E9000686A05F00DF90146012802D0ED48FDF7FA
:102EA0007BFA642004F0E2FACDE91669002364227B
:102EB00016A9686B04F050FF0146012802D0D7A084
:102EC000FDF76AFA3946686A05F0F2F8014601280A
:102ED00002D0E048FDF760FA4FF4FA6004F0C6FA59
:102EE000E8698DF864000023642218A9E86B04F0F7
:102EF00033FF01E067E004E0014601285AD0D6A084
:102F000056E04FF40001A86A04F04FFD40208DF810
:102F100014004FF0200908208DF805908DF8150059
:102F20008DF806B0DA488DF804A0049000236422DE
:102F300001A9A86B04F010FF0146012802D0A7A048
:102F4000FDF72AFA4FF47A70CDE916600023642267
:102F500016A9686B04F000FF0146012802D0AFA05B
:102F6000FDF71AFA3946686A05F0A2F80146012809
:102F700002D0B848FDF710FA4FF4FA6004F076FA80
:102F800040208DF8140008208DF804A08DF815005D
:102F90008DF80590BF488DF806B004900023642298
:102FA00001A9A86B04F0D8FE0146012802D0BAA0FE
:102FB000FDF7F2F9404601F0CFFB02F06FFC40460E
:102FC00001F0CAFBEE61686901287FF403AF60037A
:102FD0004ED5C1A0FDF7E0F9C8A002F0E9FC48B168
:102FE000C8A0FDF7D9F93220CDE91660002364228C
:102FF00016A921E0CCA0FDF7CFF94FF03209CDE9B9
:1030000016690023642216A9686B04F0A5FE014628
:10301000012802D081A0FDF7BFF93946686A05F0A2
:1030200047F80146012802D08A48FDF7B5F9CDE9F5
:1030300016690023642216A9686B04F08DFE014610
:10304000012802D075A0FDF7A7F93946686A05F096
:103050002FF80146012802D07E48FDF79DF947462A
:10306000404601F079FB02F019FC384601F074FB90
:10307000A00213D502F088F9010003D5B3A0FDF733
:103080008BF902E0BDA0FDF787F94746404601F005
:1030900063FB02F003FC384601F05EFB20037FF582
:1030A00099AE02F0FDF860B1BFA0FDF775F9444696
:1030B000404601F051FB02F0F1FB204601F04CFBD1
:1030C00088E6C3A0F1E700005B6170705F74617314
:1030D0006B5F6672313030325D206372656174659A
:1030E00020737563636573730D0A00005B61707014
:1030F0005F7461736B5F696E69745D203344C8CB24
:10310000C1B3CAB6B1F0C4A3BFE9C1ACBDD3D6D078
:10311000202E2E2E0D0A00005B6170705F746173AB
:103120006B5F696E69745D203344C8CBC1B3CAB6A6
:10313000B1F0C4A3BFE9D2D1C1ACBDD3C9CF0D0A90
:1031400000000000000000205B6170705F7461731C
:103150006B5F6672313030325D2069732072756E3C
:103160006E696E672E2E2E0D0A0000005B61705F87
:103170007461736B5F6672313030325D20D6B4D0CB
:10318000D0D1E9D6A4C8CBC1B3B2D9D7F70D0A00C4
:103190005B6170705F7461736B5F66723130303287
:1031A0005D20C8CBC1B3C6A5C5E4CAA7B0DC210D5C
:1031B0000A0000005B6170705F7461736B5F667220
:1031C000313030325D20C8CBC1B3C6A5C5E4B3C928
:1031D000B9A6210D0A000000DC9F00085B61707039
:1031E0005F7461736B5F706173735F6D616E5D209F
:1031F00078517565756553656E64206F6C656420E4
:1032000070696374757265206572726F7220636F86
:1032100064652069732025640D0A00005B6170708D
:103220005F7461736B5F706173735F6D616E5D205E
:1032300078517565756553656E64206265657020AB
:103240006572726F7220636F6465206973202564F4
:103250000D0A000048A400085B6170705F74617320
:103260006B5F706173735F6D616E5D207851756522
:10327000756553656E6420666C6173682065727253
:103280006F7220636F64652069732025640D0A00E6
:10329000DCA10008DC9D00085B6170705F746173E5
:1032A0006B5F706173735F6D616E5D2078517565E2
:1032B000756553656E64206F6C6564207374726904
:1032C0006E67206572726F7220636F646520697328
:1032D0002025640D0A0000005B61705F7461736BF0
:1032E0005F6672313030325D20D6B4D0D0CCEDBCC8
:1032F000D3C8CBC1B3B2D9D7F70D0A007477656EC6
:10330000000000005B6170705F7461736B5F6672D8
:10331000313030325D20D7A2B2E1D3C3BBA7CAA7F8
:10332000B0DC210D0A0000005B6170705F74617396
:103330006B5F6672313030325D20D7A2B2E1D3C309
:10334000BBA7B3C9B9A6210D0A0000005B6170706C
:103350005F7461736B5F6672313030325D20BBF138
:10336000C8A1D2D1D7A2B2E1B5C4D3C3BBA7D7DC21
:10337000CAFDCAA7B0DC210D0A0000005B617070B5
:103380005F7461736B5F6672313030325D20BBF108
:10339000C8A1D2D1D7A2B2E1B5C4D3C3BBA7D7DCF1
:1033A000CAFD3A25640D0A005B6170705F74617339
:1033B0006B5F6672313030325D20C9BEB3FDCBF930
:1033C000D3D0D3C3BBA7CAA7B0DC210D0A0000002D
:1033D0005B6170705F7461736B5F66723130303245
:1033E0005D20C9BEB3FDCBF9D3D0D3C3BBA7B3C94E
:1033F000B9A6210D0A0000007CB500244DA0FCF701
:10340000CBFF502080F31188BFF34F8FBFF36F8F36
:10341000504D0BE005EBC101D1E90423CDE90023B8
:103420000A89CB68496804F039FF641C04EB440145
:1034300055F831000028EDD180F3118801460A20AB
:1034400004F000FC444C002120620A2004F0FAFB46
:10345000606204F09DFAA06200220121042004F0C1
:103460000EFC206300220821042004F008FC6063A5
:1034700000221421102004F002FCA063002241214C
:10348000042004F0FCFBE06200224C21102004F038
:10349000F6FBE06300220121042004F0F0FB20642D
:1034A00000224021102004F0EAFB60640020FEF7B7
:1034B000CDF941F26714A04208D003F0C3FB01F03C
:1034C00037FA21460020FEF74FFB01E003F030FC05
:1034D00002F0D0FE02F05EFE01F028F903F0C8FC15
:1034E00001F064F902F0D4FD02F05EFDFDF772FE1A
:1034F00001F05AFEFDF712FE184800210090082343
:1035000080220846FDF745FE40F6B83003F0AEFFD6
:10351000FDF704FE124800900823602200212020BD
:10352000FDF737FE002003F0C7FFBDE87C400DA08B
:10353000FCF732BF6170705F7461736B5F696E69B5
:10354000742069732072756E6E696E67202E2E2E40
:103550000D0A00005C87000800000020DC990008CC
:10356000DC9D00085B6170705F7461736B5F696EF6
:1035700069745D206E65727665722072756E206862
:103580006572650D0A00000086B04FF000085BA070
:10359000FCF702FF614E624D624F4FF0FF39CDF8EC
:1035A0000090002301220F21A86A04F04DFA04467E
:1035B000142101A8FDF744F9E00726D00620FDF705
:1035C0005BFD322003F052FFD6F80002B0B956A0DE
:1035D000FCF7E2FEA86804F031F9E86804F02EF97F
:1035E000C5F810800A2001F0B1F94FF48041A86AB3
:1035F00004F0DBF902E0012003F038FFD6F8000206
:103600000028F8D00620FDF742FDA00723D50820AA
:10361000FDF732FD322003F029FFD7F8080298B9F0
:1036200048A0FCF7B9FEA86804F008F9E86804F0BF
:1036300005F9C5F810804FF48031A86A04F0B5F997
:1036400002E0012003F012FFD7F808020028F8D0AA
:103650000820FDF71CFD60071DD50920FDF70CFDB6
:10366000322003F003FFD7F80C0268B92EA0FCF754
:1036700093FEC5F810804FF40031A86A04F095F964
:1036800002E0012003F0F2FED7F80C020028F8D087
:103690000920FDF7FCFC200781D50A20FDF7ECFC92
:1036A000322003F0E3FED7F81002F8B92CA0FCF7A3
:1036B00073FE4FF40041A86A04F077F9A86804F09B
:1036C00047F80220286104208DF8040000236422BA
:1036D00001A9A86B04F040FB0146012806D027A0F1
:1036E000FCF75AFE02E0012003F0C0FED7F81002FA
:1036F0000028F8D00A20FDF7CAFC50E75B61707023
:103700005F7461736B5F6B65795D20637265617473
:103710006520737563636573730D0A000000404292
:1037200000000020000042425B6170705F746173B2
:103730006B5F6B65795D2053312050726573730D3B
:103740000A0000005B6170705F7461736B5F6B6592
:10375000795D2053322050726573730D0A000000AA
:103760005B6170705F7461736B5F6B65795D205333
:10377000342050726573730D0A0000005B61707035
:103780005F7461736B5F7274635D207851756575EA
:103790006553656E64206F6C656420737472696E26
:1037A00067206572726F7220636F64652069732091
:1037B00025640D0A000000000EB54E208DF80800AB
:1037C0001AA0FCF7E9FD01250A26204CAF1E02F0E5
:1037D00037FC8DF808004E28F9D001461CA0FCF7F4
:1037E000DBFD0023642202A9206C04F0B5FA014637
:1037F000012802D01EA0FCF7CFFDCDE90056002322
:1038000064226946606B04F0A7FA0146012802D0E1
:1038100024A0FCF7C1FD3946606A04F049FC01466A
:103820000128D4D02C48FCF7B7FDD0E75B6170705D
:103830005F7461736B5F6B62645D2063726561745A
:103840006520737563636573730D0A0000000020C3
:103850005B6170705F7461736B5F6B62645D206B42
:103860006264207072657373202563200D0A000066
:103870005B6170705F7461736B5F6B62645D207815
:10388000517565756553656E64206B626420657261
:10389000726F7220636F64652069732025640D0A5E
:1038A000000000005B6170705F7461736B5F6B623E
:1038B000645D2078517565756553656E6420626539
:1038C0006570206572726F7220636F646520697322
:1038D0002025640D0A0000008CA4000808B500240F
:1038E0008DF800401FA0FCF757FD264D264FDFF84E
:1038F0009C804FF0FF3901264A466946D8F83000CF
:1039000004F03AFB0128F7D19DF80000C10606D566
:10391000C10702D0C5F8A44201E0C5F8A46281063F
:1039200006D5C10702D0C5F8A84201E0C5F8A862D3
:10393000410606D5C10702D0C7F8B44201E0C7F876
:10394000B462010606D5C00702D0C7F8B84201E04C
:10395000C7F8B86200231A461946D8F8200004F0C8
:10396000FBF9C9E76170705F7461736B5F6C6564CC
:103970002069732072756E6E696E67202E2E2E0D73
:103980000A00000000804242000042420000002085
:103990000FA0FCF701FD002003F050FF1AA0FCF778
:1039A000FBFC0024E0B202F0EFFB142003F05EFD0C
:1039B000641C64B2642CF5DD6424E0B202F0E4FB24
:1039C000142003F053FD641E64B2002CF5DAE8E71E
:1039D0005B6170705F7461736B5F6C65645F627272
:1039E000656174685D2063726561746520737563D9
:1039F0006365737320616E642073757370656E64A4
:103A00002073656C660D0A005B6170705F74617392
:103A10006B5F6C65645F6272656174685D2072657E
:103A200073756D6520737563636573730D0A0000AC
:103A300086B02BA0FCF7B0FC142101A8FCF700FF16
:103A4000304C4FF0FF352A4601A9A06B04F094FAE0
:103A50000128F8D19DF8040008283CD2DFE800F0E6
:103A60003B040C3B1417212AFDF784FB606803F02C
:103A7000E5FE02F0EDFBE6E7FDF76DFB02F0D6FB9D
:103A8000606803F065FEDEE7FDF748FBDBE79DF8C5
:103A90000C309DF806109DF80500029AFDF7B6FC63
:103AA000D1E79DF80D209DF806109DF80500FDF763
:103AB00041FCC8E7049800909DF806109DF8150099
:103AC0009DF814200844C3B29DF805000244D2B208
:103AD000FDF75FFBB7E70CA0FCF75EFCB3E7000067
:103AE0005B6170705F7461736B5F6F6C65645D20A8
:103AF00063726561746520737563636573730D0A22
:103B000000000000000000205B6170705F74617352
:103B10006B5F6F6C65645D206F6C656420637472AD
:103B20006C20636F646520697320696E76616C69CF
:103B3000640D0A009EB04FF000082425CC4F8DF88C
:103B40001480CDF81880444604264FF0200B4FF027
:103B5000070A4FF00109CDF81C804FF0FF3205A98C
:103B6000386C04F009FA0128F7D19DF814004128B7
:103B700004D14FF48021B86A03F017FF9DF81400B8
:103B8000422804D14FF40011B86A03F00EFF9DF8EB
:103B90001400442804D14FF40021B86A03F005FF53
:103BA0009DF81400432835D0B9690129D5D12A28B8
:103BB0005DD0062C7DD206A90023085505208DF87E
:103BC000000010208DF8080008198DF801508DF8BC
:103BD0000260019064226946B86B04F0BDF80146AA
:103BE000012802D0A3A0FCF7D7FB642003F03EFC21
:103BF000B0A00190002364226946B86B04F0ACF8D1
:103C00000146012802D09BA0FCF7C6FB0835EDB2A7
:103C1000641CA2E7A8A0FCF7BFFBC7F81480C7F894
:103C200018904FF40001B86A03F0BFFE0426002488
:103C3000CDF81880CDF81C808DF80060242523462F
:103C400064226946B86B04F087F80146012802D067
:103C500088A0FCF7A1FB05208DF8000010208DF84E
:103C600001508DF808008DF8026098A012E0002C39
:103C7000CFD0641E06A8083D00F8048005208DF80A
:103C80000000EDB210208DF801508DF808008DF87D
:103C9000026090A00190002364226946B86B04F092
:103CA0005BF801460128B4D072A0FCF775FB54E71D
:103CB000FFE72328ADD106A987A0FCF76DFB0622FC
:103CC00006A99048FCF702FD002860D08EA0FCF702
:103CD00063FBC7F8188040208DF8100008208DF88D
:103CE00001B08DF811008DF8028092488DF800A087
:103CF0000390002364226946B86B04F02DF8014656
:103D0000012802D08CA0FCF747FB4FF47A70CDE974
:103D10001B90002364221BA9786B04F01DF8014658
:103D2000012802D094A0FCF737FB4FF0FF31786AEE
:103D300004F0BEF90146012802D09D48FCF72CFB97
:103D40004FF4FA6003F092FB40208DF81000082039
:103D50008DF800A08DF811008DF801B09548002471
:103D6000CDF81880CDF81C808DF8028003902425B2
:103D7000234664226946B86B03F0EEFF0146012832
:103D800002D03CA0FCF708FBC7F81C90E5E68AA02F
:103D9000FCF702FB4C46C7F81490C7F81880402087
:103DA0008DF8100008208DF801B08DF811008DF805
:103DB00002808C488DF800A003900023642269469D
:103DC000B86B03F0C9FF0146012802D05AA0FCF7E6
:103DD000E3FA1425CDE91B45002364221BA9786B67
:103DE00003F0BAFF0146012802D063A0FCF7D4FA21
:103DF0004FF0FF31786A04F05BF90146012802D0E8
:103E00006B48FCF7C9FA642003F030FBCDE91B4591
:103E1000002364221BA9786B03F09EFF0146012852
:103E200002D055A0FCF7B8FA4FF0FF31786A04F0E1
:103E30003FF90146012802D05D48FCF7ADFA4FF486
:103E4000FA6003F013FBCDF81880CDF81C80242510
:103E5000F86900248DF824002346642208A9F86B31
:103E600003F07AFF014601288ED05FA08AE70000A8
:103E7000000000205B6170705F7461736B5F706144
:103E800073735F6D616E5D207851756575655365FF
:103E90006E64206F6C656420737472696E67206550
:103EA00072726F7220636F64652069732025640DE0
:103EB0000A0000002A00000070617373776F72645B
:103EC0002072657365740D0A000000002D2D2D2DE4
:103ED0002D2D00002D0000005B6170705F74617318
:103EE0006B5F706173735F6D616E5D206175746887
:103EF000206B657920627566206973202536730D05
:103F00000A000000548700085B6170705F74617381
:103F10006B5F706173735F6D616E5D207061737351
:103F2000776F72642061757468206661696C0D0A30
:103F300000000000DCA100085B6170705F746173B9
:103F40006B5F706173735F6D616E5D207851756535
:103F5000756553656E64206F6C6564207069637469
:103F6000757265206572726F7220636F6465206977
:103F7000732025640D0A00005B6170705F746173CB
:103F80006B5F706173735F6D616E5D2078517565F5
:103F9000756553656E642062656570206572726F29
:103FA0007220636F64652069732025640D0A000028
:103FB00048A40008DC9D00085B6170705F74617349
:103FC0006B5F706173735F6D616E5D2070617373A1
:103FD000776F7264206175746820737563636573AD
:103FE000730D0A00DC9F00085B6170705F74617381
:103FF0006B5F706173735F6D616E5D207851756585
:10400000756553656E6420666C61736820657272B5
:104010006F7220636F64652069732025640D0A0048
:104020008EB0002502950395049535A00595FCF703
:10403000B3F9404EB06803F001FC3FA0FCF7ACF9C7
:104040006F1E0097002301223021B06A03F0FCFCB0
:104050000446C0064ED50295039504950595306932
:10406000022815D10CA90120FDF780FB02950595CA
:104070009DF832000090039504959DF831309DF82D
:10408000302035A102A8FCF793F920208DF8190003
:104090003069012817D10BA9FDF726FB9DF82C10DC
:1040A00005959DF82E00CDE9000102950395049534
:1040B0009DF82D309DF82F202BA102A8FCF778F950
:1040C0000F208DF8190005208DF8180004208DF8B8
:1040D0001A0002A8079010208DF820000023642207
:1040E00006A9B06B03F038FE0146012802D023A0D8
:1040F000FCF752F9A006A4D52FA0FCF74DF9A0E7D4
:104100005B6170705F7461736B5F7274635D206379
:104110007265617465207375636365737320616E86
:10412000642073757370656E642073656C660D0A28
:1041300000000000000000205B6170705F7461731C
:104140006B5F7274635D20726573756D6520737546
:1041500063636573730D0A00253032783A25303277
:10416000783A2530327800003230253032782D25EB
:104170003032782D253032782D2564005B617070E7
:104180005F7461736B5F7274635D207851756575E0
:104190006553656E64206F6C656420737472696E1C
:1041A00067206572726F7220636F64652069732087
:1041B00025640D0A00000000C4D6D6D3BBBDD0D103
:1041C000C1CB0D0A0000000086B0324F4FF4BE761E
:1041D0004FF4C8754FF4FA782FA0FCF7DDF802F021
:1041E000FFFD0446A8420EDD02208DF804000023E6
:1041F000642201A9B86B03F0AFFD0146012802D08B
:104200002EA0FCF7C9F8143CB4423ED801208DF82A
:1042100004000023642201A9B86B03F09DFD014650
:10422000012802D025A0FCF7B7F8786900282CD126
:104230004FF48011B86A03F0B8FB2FA0FCF7ACF87C
:104240004FF0FF300090002301224FF44001B86A84
:1042500003F0FAFB044640020FD502F0C1FDA0F1C5
:104260001401B14203D830A0FCF796F801E0A8424F
:1042700003DC404600F070FAEFE7200205D535A0D8
:10428000FCF78AF8404600F067FA404600F064FA0E
:10429000A2E70000000000205B6170705F74617332
:1042A0006B5F737230345D2069732072756E6E6956
:1042B0006E67202E2E2E0D0A000000005B617070CC
:1042C0005F7461736B5F737230345D207851756514
:1042D000756553656E64206F6C65642073747269D4
:1042E0006E67206572726F7220636F6465206973F8
:1042F0002025640D0A0000005B6170705F746173BB
:104300006B5F737230345D20784576656E744772EA
:104310006F75705365744269747320776169742E88
:104320002E2E0D0A000000005B6170705F746173D7
:104330006B5F737230345D20C8CBC1B3CAB6B1F0C5
:10434000B3C9B9A6C1CB2CC7EBBFAAC3C52E2E2EAD
:104350000D0A00005B6170705F7461736B5F737254
:1043600030345D20C8CBC1B3CAB6B1F0CAA7B0DC47
:10437000D4D9B4CEB4A5B7A2C8CBC1B3CAB6B1F034
:104380002E2E2E0D0A00000094B04FF000088DF87C
:104390004C807BA0FCF700F8824F4FF0FF394A4673
:1043A0006946F86A03F0E8FD0146012803D07EA0C3
:1043B000FBF7F2FFF3E769468BA0FBF7EDFF92A155
:1043C0006846FCF771F918B991A16846FCF76CF9D9
:1043D00091A16846FCF768F900282FD091A16846A2
:1043E000FCF75CF98FA10020FCF758F9FCF748F9BD
:1043F00002F0CAFD04468BA10020FCF74FF9FCF740
:104400003FF902F0C1FD064686A10020FCF746F9FF
:10441000FCF736F902F0B8FD054683A10020FCF751
:104420003DF9FCF72DF902F0AFFD0246234629467F
:10443000304602F0C3FB7DA0FBF7AEFF84A16846C7
:10444000FCF732F9002833D076A16846FCF726F94C
:1044500074A10020FCF722F9FCF712F9A0F5FA602C
:1044600002F092FD8DF84B006EA10020FCF716F9CA
:10447000FCF706F902F088FD8DF8490069A10020DB
:10448000FCF70CF9FCF7FCF802F07EFD8DF84A0011
:1044900064A10020FCF702F9FCF7F2F802F074FDC9
:1044A0008DF8480012A90120FDF72CFA6BA03BE023
:1044B00073A16846FCF7F8F8002838D059A168467F
:1044C000FCF7ECF857A10020FCF7E8F8FCF7D8F867
:1044D0000C2802D28DF8478002E040218DF8471069
:1044E0000A21B0FBF1F201FB1202B0FBF1F002EB8A
:1044F00000108DF844004BA10020FCF7CFF8FCF72A
:10450000BFF802F041FD8DF8450047A10020FCF7FF
:10451000C5F8FCF7B5F802F037FD8DF8460011A993
:104520000120FDF73BFA59A0FBF736FF37E760A102
:104530006846FCF7B9F80028F8D0B8690128F5D129
:104540005BA16846FCF7AAF8054601465BA0FBF7AD
:1045500023FF0220F86100240023285D8DF84C0021
:10456000642213A9386C03F0F7FB0146012802D03E
:104570005BA0FBF711FF641C082CEDD30FE70000D4
:104580005B6170705F7461736B5F75736172745D92
:104590002063726561746520737563636573730D61
:1045A0000A000000000000205B6170705F7461739E
:1045B0006B5F75736172745D2078517565756552B6
:1045C0006563656976652075736172745F70616398
:1045D0006B6574206572726F7220636F6465206909
:1045E000732025640D0A00005B6170705F74617355
:1045F0006B5F75736172745D2072656376206461B0
:1046000074613A25730D0A0074656D703F230000D4
:104610007374617274000000414C41524D20534547
:10462000540000002D000000230000005B6170704A
:104630005F7461736B5F75736172745D2072746314
:104640002073657420616C61726D206F6B0D0A00C0
:104650004441544520534554000000005B61707094
:104660005F7461736B5F75736172745D20727463E4
:10467000207365742064617465206F6B0D0A0000FF
:1046800054494D4520534554000000005B61707053
:104690005F7461736B5F75736172745D20727463B4
:1046A000207365742074696D65206F6B0D0A0000BE
:1046B0005041535320554E4C4F434B005B6170703B
:1046C0005F7461736B5F75736172745D2072656393
:1046D000762070617373203A25730D0A0000000084
:1046E0005B6170705F7461736B5F6B62645D207897
:1046F000517565756553656E64206B6264206572E3
:10470000726F7220636F64652069732025640D0ADF
:1047100000000000034610B50020024603E09C5C48
:104720006040521CD2B28A42F9D310BD10B50121AB
:104730002020FCF793FE02490020C1F8A00210BD22
:1047400000804242002203E010F8013B1A4492B27A
:10475000491EF9D21046704702F088BE2DE9F0419B
:104760004FF0E0280024D8F814700E4A0E4BD8F809
:1047700018501268B2FBF3F6464303F0BDF8414609
:104780008869A842FCD002D2A5EB000202E0A7EBA8
:1047900000022A4414440546B442F1D3BDE8F04176
:1047A00003F0EEBE7400002040420F0010B501215E
:1047B0004020FCF753FE09484FF4007101240160CA
:1047C0000471847100214171C17101460448FCF7F4
:1047D00002FC0448C0F8A44210BD00008C00002078
:1047E00000180240000043422DE9F05F4A4D4FF4AB
:1047F000007B4FF0010AC5F800B0002485F804A042
:1048000085F806A080466C7157462646EC7129460D
:104810004248FCF7E0FBDFF80891C9F8A4621420D5
:10482000FFF79AFFC9F8A4721E20FFF797FFC5F89B
:1048300000B02E71AF716E71EE7129463748FCF7EA
:10484000CAFB4FF47A664D4603E00120641CFFF773
:1048500085FFD5F824020028F7D1002403E00120C9
:10486000641CFFF77BFFD5F824020028F7D0002452
:1048700003E00120641CFFF771FFD5F82402002833
:10488000F7D10027A94600260725002403E00120D0
:10489000641CFFF763FFD9F824020028F7D0282012
:1048A000FFF75CFFD9F8240268B10AFA05F030433B
:1048B000C6B2002403E00120641CFFF74FFFD9F8C3
:1048C00024020028F7D16D1EDFD508F807607F1C91
:1048D000052FD8DB3220FFF741FF98F8001098F839
:1048E000010098F80220014498F80300104408449D
:1048F00098F80410C0B2814201D1002401E06FF0A9
:104900000504054A121F1168481C106005A0FBF73A
:1049100043FD2046BDE8F09F8C00002000180240B7
:1049200000004342636E743D25640D0A00000000E0
:1049300010B5FCF72FFBF320FCF7ACFA0221202086
:10494000FCF7AEFABDE81040FCF7FEBA30B5B7B0E0
:1049500005460024FCF71EFB41E14C2004FB00F15E
:10496000A548014404C924920A788DF894204A7815
:104970008DF895208A788DF89620CA788DF8972042
:104980000A798DF898204A798DF899208A798DF8DE
:104990009A20CA798DF89B200A7A8DF89C204A7A51
:1049A0008DF89D208A7A8DF89E20CA7A8DF89F20F6
:1049B0000A7B8DF8A0204A7B8DF8A1208A7B8DF898
:1049C000A220CA7B8DF8A3200A7C8DF8A4204A7C03
:1049D0008DF8A5208A7C8DF8A620CA7C8DF8A720AA
:1049E0000A7D8DF8A8204A7D8DF8A9208A7D8DF852
:1049F000AA20CA7D8DF8AB200A7E8DF8AC204A7EB5
:104A00008DF8AD208A7E8DF8AE20CA7E8DF8AF205D
:104A10000A7F8DF8B0204A7F8DF8B1208A7F8DF80B
:104A2000B220CA7F8DF8B32091F820208DF8B420F1
:104A300091F821208DF8B52091F822208DF8B6202C
:104A400091F823208DF8B72091F824208DF8B82014
:104A500091F825208DF8B92091F826208DF8BA20FC
:104A600091F827208DF8BB2091F828208DF8BC20E4
:104A700091F829208DF8BD2091F82A208DF8BE20CC
:104A800091F82B208DF8BF2091F82C208DF8C020B4
:104A900091F82D208DF8C12091F82E208DF8C2209C
:104AA00091F82F208DF8C32091F830208DF8C42084
:104AB00091F831208DF8C52091F832208DF8C6206C
:104AC00091F833208DF8C72091F834208DF8C82054
:104AD00091F835208DF8C92091F836208DF8CA203C
:104AE00091F837208DF8CB2091F838208DF8CC2024
:104AF00091F839208DF8CD2091F83A208DF8CE200C
:104B000091F83B208DF8CF2091F83C208DF8D020F3
:104B100091F83D208DF8D12091F83E208DF8D220DB
:104B200091F83F208DF8D32091F840208DF8D420C3
:104B300091F841208DF8D52091F842208DF8D620AB
:104B400091F843208DF8D72091F844208DF8D82093
:104B500091F845208DF8D92091F846108DF8DA109B
:104B600004EB440101EB041150F82100401C0BD070
:104B70009DF89410082939D00ADC01290DD00229AA
:104B80000DD0042918D110E01CA0FBF705FC25E08E
:104B900010292DD020290FD12CE01AA200E01DA24F
:104BA00021A104A8FBF704FC06E00DF195031FA268
:104BB00021A104A8FBF7FCFB9DF8D80004AB9DF8ED
:104BC000DA209DF8D9108DE80F009DF8D7309DF8B8
:104BD000D6209DF8D5101AA0FBF7DEFB641CAC4272
:104BE000FFF4BBAEFCF7B0F937B030BD1DA2D7E77C
:104BF0001FA2D5E721A2D3E700000108BFD50D0A07
:104C0000000000006B6579626F61726420756E6CE4
:104C10006F636B00626C7565746F6F746820756E7E
:104C20006C6F636B000000002573000064687420E3
:104C3000646174610000000025733A257300000070
:104C40003230253032782F253032782F25303278A7
:104C500020253032783A253032783A2530327820A3
:104C600025730A007266696420756E6C6F636B0051
:104C700073666D20756E6C6F636B000066726D20DD
:104C8000756E6C6F636B000070B504460025FCF711
:104C900081F901E04C346D1C2068401CFAD1FCF70E
:104CA00053F9284670BD000070B505460024FCF796
:104CB00071F9094E28684C21484300EB84003044C8
:104CC00055F82410FCF748F9641C132CF2D3BDE806
:104CD0007040FCF739B900000000010810B5012848
:104CE00004D0022804D0032809D006E0054901E0D9
:104CF00004491031102000F065FA002010BD014970
:104D00001039F7E7ECA300083EB517A04FF47A641A
:104D100007C88DE8070069460C2000F053FA154DCE
:104D200002E00120FFF718FDE86808B9641EF8D119
:104D300002F0E2F9104908784FF0FF35EF2804D06F
:104D40004878012801D00DA008E05CB1487A00281D
:104D500007D0497A0EA0FBF71FFB13A0FBF71CFB43
:104D600028463EBD16A0F9E7EF01FFFFFFFF010057
:104D7000030D0011A800002068010020C7EBBCEC67
:104D8000B2E9D3B2BCFEC1ACBDD30D0A0000000035
:104D9000C7E5BFD5D6B8CEC6A3BACAA7B0DC202512
:104DA0003032580D0A000000C7EBB2BBD2AAB0B433
:104DB000D1B9D6B8CEC6C4A3BFE90D0A0000000021
:104DC000C7E5BFD5D6B8CEC63AB3ACCAB10D0A0056
:104DD00030B585B0EF218DF800100122FF210823A6
:104DE0008DF801208DF804108DF808308DF8021030
:104DF0008DF8051031238DF803108DF8093000214E
:104E0000030A8DF80A308DF80C208DF80B008DF810
:104E10000D108DF806203F208DF807108DF80E003C
:104E20004FF47A6409210DF10600FFF78BFC010AAB
:104E30008DF80F108DF810006946112000F0C2F9AE
:104E4000154D02E00120FFF787FCE86808B9641EF1
:104E5000F8D102F051F9114908784FF0FF35EF28E9
:104E60000AD04878012807D00DA0FBF795FA13A0C7
:104E7000FBF792FA16A00BE04CB1487A002804D058
:104E8000497A1AA0FBF788FA284605B030BD1EA063
:104E9000FBF782FAF8E70000A80000206801002074
:104EA000D7D4B6AFD7A2B2E1D6B8CEC63ACAFDBE05
:104EB000DDB0FCD2ECB3A3A3A10D0A00312EBCECF3
:104EC000B2E9D3B2BCFEC1ACBDD30D0A00000000F4
:104ED000322EBCECB2E9CAC7B7F1D3D0B0B4D1B965
:104EE000D6B8CEC6C4A3BFE90D0A0000D7D4B6AF6A
:104EF000D7A2B2E1D6B8CEC6A3BACAA7B0DC2025E5
:104F00003032580D0A000000D7D4B6AFD7A2B2E1B4
:104F1000D6B8CEC63AB3ACCAB10D0A00FEB5064645
:104F20001AA04FF47A6407C88DE8070069460C2080
:104F300000F048F9184D02E00120FFF70DFCE86889
:104F400008B9641EF8D102F0D7F8144801784FF080
:104F5000FF35EF2904D04178012901D010A007E0E6
:104F600054B1417A51B1417A12A0FBF715FA19A058
:104F7000FBF712FA2846FEBD1CA0F9E7C17A807A39
:104F800041EA002030800020FEBD0000EF01FFFF5D
:104F9000FFFF0100031D0021A80000206801002080
:104FA000C7EBBCECB2E9D3B2BCFEC1ACBDD30D0AB9
:104FB00000000000BBF1C8A1D3D0D0A7D6B8CEC6A0
:104FC000D7DCCAFDA3BACAA7B0DC20253032580D01
:104FD0000A000000C7EBB2BBD2AAB0B4D1B9D6B8B0
:104FE000CEC6C4A3BFE90D0A00000000BBF1C8A1F2
:104FF000D3D0D0A7D6B8CEC6D7DCCAFD3AB3ACCA98
:10500000B10D0A0070B586B00546EF208DF800009E
:10501000FF2001218DF801108DF804008DF80500A6
:105020008DF8061008218DF808108DF80200322145
:105030008DF803008DF80910002050218DF807002D
:105040008DF80A1029884FF47A64090A8DF80B103C
:1050500029788DF80C108DF80D0007208DF80E00C2
:1050600009210DF10600FFF76DFB010A8DF80F1005
:105070008DF810006946112000F0A4F81D4E02E0E2
:105080000120FFF769FBF06808B9641EF8D102F04F
:1050900033F8194801784FF0FF36EF290AD04178EC
:1050A000012907D015A0FBF777F91BA0FBF774F9CE
:1050B0001EA008E034B1417A51B1417A22A0FBF739
:1050C0006BF902E027A0FBF767F9304606B070BD28
:1050D000817B427B41EA0221A1F57F42FF3A06D063
:1050E000017BC07A41EA002028800020EEE722A060
:1050F000E9E70000A800002068010020D7D4B6AF7F
:10510000D1E9D6A4D6B8CEC63ACAFDBEDDB0FCD22F
:10511000ECB3A3A3A10D0A00312EBCECB2E9D3B2CB
:10512000BCFEC1ACBDD30D0A00000000322EBCECA9
:10513000B2E9CAC7B7F1D3D0B0B4D1B9D6B8CEC6E8
:10514000C4A3BFE90D0A0000D7D4B6AFD1E9D6A4F5
:10515000D6B8CEC6A3BACAA7B0DC20253032580DC7
:105160000A000000D7D4B6AFD1E9D6A4D6B8CEC6CF
:105170003AB3ACCAB10D0A00D7D4B6AFD1E9D6A4C0
:10518000D6B8CEC6A3BAB7D6CAFDD6B5D2ECB3A3AD
:10519000A3ACBFC9C4DCC3BBD3D0B4E6D4DAB8C3B4
:1051A000D6B8CEC60D0A000010B501F0BFFE4FF410
:1051B000614001F04BFF00F033F8BDE8104000F013
:1051C0001FB800002DE9F0410D46064600240A4FA5
:1051D0000AE0295D3846FCF7E7FF80213846FCF7F6
:1051E0004AFF0028F9D0641CB442F2DB03490020D6
:1051F000C8608860BDE8F08100440040A80000203D
:105200000EB504A007C88DE8070069460C20FFF71B
:10521000D9FF0EBDEF01FFFFFFFF01000333003791
:1052200070B501211020FCF719F901218803FCF762
:105230002DF91348402500260560067103244471AA
:105240000221C17101460F48FBF7C5FE062104206B
:10525000FCF794FC0A48082108300560067141718A
:1052600001258571FBF7DEFD05481721001F017040
:1052700044708470C570BDE87040FBF713BF000038
:10528000C00000200010024004490A885206FCD5E4
:10529000024AC1B2121D1180704700000048004050
:1052A00030B593B000241094402168461194FBF768
:1052B000C7FAEF208DF84000AA208DF84100212088
:1052C0008DF842008DF844408DF8450042F210758B
:1052D0008DF84340062110A800F0E6FD1C4C00218B
:1052E000206802F0F5FC2A466946206802F044FE78
:1052F00001464FF0FF34012803D016A0FBF74CF80D
:105300000FE04021684600F031FB9DF80000EF28D7
:1053100007D19DF80100AA2803D19DF80500212896
:1053200002D0204613B030BD9DF806000028F9D009
:105330009DF8021009B900F0D9FB9DF80200012880
:1053400003D19DF8060000F021F99DF80600E9E779
:10535000440000205B785175657565526563656929
:1053600076655D2066725F706F7765725F646F77D8
:105370006E206572726F7220636F6465206973209E
:1053800025640D0A0000000030B593B04FF47A6533
:1053900040216846FBF754FA00201090EF218DF869
:1053A0004010AA218DF84110242111908DF842104F
:1053B0008DF844008DF843008DF84510062110A8A3
:1053C00000F072FD174C0021206802F081FC2A4693
:1053D0006946206802F0D0FD01464FF0FF340128F5
:1053E00003D011A0FAF7D8FF15E04021684600F07D
:1053F000BDFA9DF80000EF280DD19DF80100AA2804
:1054000009D19DF8020030B99DF80500242802D189
:105410009DF8060010B1204613B030BD9DF807007E
:10542000FAE70000440000205B785175657565520D
:105430006563656976655D2066725F706F7765721A
:105440005F646F776E206572726F7220636F646540
:105450002069732025640D0A0000000010B5044681
:1054600001F032FD204601F09BFD4FF4FA70FFF78A
:1054700073F9BDE8104000F011BA00002DE9FC41BD
:10548000804600200090EF218DF80010AA218DF8B1
:10549000011012218DF8021001908DF803000220F6
:1054A0008DF804000A208DF805008DF8060042F200
:1054B000107705210DF10200FFF72CF98DF8070098
:1054C0000821684600F0F0FC214C0021206802F021
:1054D000FFFB3A461F49206802F04EFD01464FF09F
:1054E000FF36012803D01CA0FAF756FF20E0402128
:1054F000184800F03BFA174D2878EF2818D1687843
:10550000AA280FD014E00021206802F0E1FB3A46FF
:105510001049206802F030FD01460128E3D1A87946
:1055200000F034F8A8780128EDD010F0FF0F02D079
:105530003046BDE8FC81A87900F0D8FAA8790028A7
:10554000F7D12422E91D4046FBF70BF90020F0E7D4
:1055500044000020B40100205B78517565756552E8
:105560006563656976655D2066725F706F776572E9
:105570005F646F776E206572726F7220636F64650F
:105580002069732025640D0A00000000F0B1012895
:105590001ED002281ED003281ED004281ED00528A5
:1055A0001ED006281ED007281ED008281ED0092885
:1055B0001ED00A281ED00B281ED00C281ED00D2865
:1055C0001ED00E281ED110A0FAF7E6BE1DA0FBE7E4
:1055D00023A0F9E72BA0F7E738A0F5E745A0F3E70C
:1055E00052A0F1E75FA0EFE76AA0EDE775A0EBE757
:1055F0007CA0E9E783A0E7E78AA0E5E793A0E3E7DB
:105600009EA0E1E7704700005BC8CBC1B3CAB6B14A
:10561000F0C4A3BFE9204E4F54455D20D4DAB1D584
:10562000D1DBC4A3CABDBCECB2E2D6D0CEDEB7A8F3
:10563000C5D0B6A8D5F6B1D5D1DBD7B4CCAC0D0A60
:10564000000000005BC8CBC1B3CAB6B1F0C4A3BFB1
:10565000E9204E4F54455D20C8CBC1B30D0A000070
:105660005BC8CBC1B3CAB6B1F0C4A3BFE9204E4FEB
:1056700054455D20CEB4BCECB2E2B5BDC8CBC1B3DD
:105680000D0A00005BC8CBC1B3CAB6B1F0C4A3BF5A
:10569000E9204E4F54455D20C8CBC1B3CCABBFBF52
:1056A000BDFCCDBCC6ACC9CFB1DFD1D8A3ACCEB4A4
:1056B000C4DCC2BCC8EB0D0A000000005BC8CBC153
:1056C000B3CAB6B1F0C4A3BFE9204E4F54455D2024
:1056D000C8CBC1B3CCABBFBFBDFCCDBCC6ACCFC289
:1056E000B1DFD1D8A3ACCEB4C4DCC2BCC8EB0D0AC8
:1056F000000000005BC8CBC1B3CAB6B1F0C4A3BF01
:10570000E9204E4F54455D20C8CBC1B3CCABBFBFE1
:10571000BDFCCDBCC6ACD7F3B1DFD1D8A3ACCEB401
:10572000C4DCC2BCC8EB0D0A000000005BC8CBC1E2
:10573000B3CAB6B1F0C4A3BFE9204E4F54455D20B3
:10574000C8CBC1B3CCABBFBFBDFCCDBCC6ACD3D204
:10575000B1DFD1D8A3ACCEB4C4DCC2BCC8EB0D0A57
:10576000000000005BC8CBC1B3CAB6B1F0C4A3BF90
:10577000E9204E4F54455D20C8CBC1B3BEE0C0EB1D
:10578000CCABD4B6A3ACCEB4C4DCC2BCC8EB0D0A5F
:10579000000000005BC8CBC1B3CAB6B1F0C4A3BF60
:1057A000E9204E4F54455D20C8CBC1B3BEE0C0EBED
:1057B000CCABBDFCA3ACCEB4C4DCC2BCC8EB0D0A00
:1057C000000000005BC8CBC1B3CAB6B1F0C4A3BF30
:1057D000E9204E4F54455D20C3BCC3ABD5DAB5B20A
:1057E0000D0A00005BC8CBC1B3CAB6B1F0C4A3BFF9
:1057F000E9204E4F54455D20D1DBBEA6D5DAB5B2C7
:105800000D0A00005BC8CBC1B3CAB6B1F0C4A3BFD8
:10581000E9204E4F54455D20C1B3B2BFD5DAB5B2D1
:105820000D0A00005BC8CBC1B3CAB6B1F0C4A3BFB8
:10583000E9204E4F54455D20C2BCC8EBC8CBC1B374
:10584000B7BDCFF2B4EDCEF30D0A00005BC8CBC1FB
:10585000B3CAB6B1F0C4A3BFE9204E4F54455D2092
:10586000D4DAB1D5D1DBC4A3CABDBCECB2E2B5BDBC
:10587000D5F6D1DBD7B4CCAC0D0A00005BC8CBC1E8
:10588000B3CAB6B1F0C4A3BFE9204E4F54455D2062
:10589000B1D5D1DBD7B4CCAC0D0A000030B593B094
:1058A00000241094402168461194FAF7C9FFEF20B4
:1058B0008DF84000AA208DF84100ED208DF84200BF
:1058C0008DF844408DF8450042F210758DF8434044
:1058D000062110A800F0E8FA164C0021206802F01A
:1058E000F7F92A466946206802F046FB01464FF068
:1058F000FF34012803D010A0FAF74EFD16E0402136
:10590000684600F033F89DF80000EF280ED19DF8AE
:105910000100AA280AD19DF8020038B99DF80500B7
:10592000ED2803D19DF80600002800D0204613B0D2
:1059300030BD0000440000205B78517565756552EC
:105940006563656976655D2066725F706F77657205
:105950005F646F776E206572726F7220636F64652B
:105960002069732025640D0A0000000070B505460B
:105970000E4608A0FAF710FD002404E0295D09A0F6
:10598000FAF70AFD641CB442F8D3BDE8704007A0E2
:10599000FAF702BD66722072656376206275663A18
:1059A0000000000025303258200000000D0A0000E1
:1059B00070B5A0B00546402110A8FAF741FF40217C
:1059C0006846FAF73DFFEF208DF84000AA208DF8D9
:1059D000410026208DF84200282000248DF8440044
:1059E00042F210768DF843408DF845402846FAF78C
:1059F00099FE2946024610ADA81DFAF7B2FE012015
:105A00008DF866008DF867008DF868000A208DF823
:105A100069008DF86A408DF86B408DF86C402B2141
:105A2000A81CFEF777FE8DF86D002E2110A800F05F
:105A30003BFA204C0021206802F04AF932466946C0
:105A4000206802F099FA01464FF0FF35012803D093
:105A500019A0FAF7A1FC23E040216846FFF786FF72
:105A60009DF80000EF281BD19DF80100AA2810D056
:105A700016E00021206802F02BF9324669462068C2
:105A800002F07AFA01460128E2D19DF80600FFF7FC
:105A90007DFD9DF802000128EBD010F0FF0F02D031
:105AA000284620B070BD9DF8060000F01FF89DF854
:105AB0000600F6E7440000205B7851756575655275
:105AC0006563656976655D2066725F706F77657284
:105AD0005F646F776E206572726F7220636F6465AA
