:020000040800F2
:1000000058360120F10200088F0700082907000870
:100010008D07000889060008810B00080000000019
:100020000000000000000000000000003102000895
:100030008B060008000000008D0200087D09000802
:100040000B0300080B0300080B0300080B03000858
:100050000B0300080B0300080B0300080B03000848
:100060000B0300080B0300080B0300080B03000838
:100070000B0300080B0300080B0300080B03000828
:100080000B0300080B0300080B0300080B03000818
:100090000B0300080B0300080B0300080B03000808
:1000A0000B0300080B0300080B0300080B030008F8
:1000B0000B0300080B0300080B0300080B030008E8
:1000C0000B0300080B0300080B0300080B030008D8
:1000D0000B030008050A00080B0300080B030008C7
:1000E0000B0300080B0300080B0300080B030008B8
:1000F0000B0300080B0300080B0300080B030008A8
:100100000B0300080B0300080B0300080B03000897
:100110000B0300080B0300080B0300080B03000887
:100120000B0300080B0300080B0300080B03000877
:100130000B0300080B0300080B0300080B03000867
:100140000B0300080B0300080B0300080B03000857
:100150000B0300080B0300080B0300080B03000847
:100160000B0300080B0300080B0300080B03000837
:100170000B0300080B0300080B0300080B03000827
:100180000B0300080B03000800F002F800F041F830
:100190000AA090E8000C82448344AAF10107DA45E2
:1001A00001D100F036F8AFF2090EBAE80F0013F0F3
:1001B000010F18BFFB1A43F001031847D4210000B8
:1001C000F4210000103A24BF78C878C1FAD8520749
:1001D00024BF30C830C144BF04680C6070470000C1
:1001E0000023002400250026103A28BF78C1FBD840
:1001F000520728BF30C148BF0B607047632900F029
:100200008481002070471FB502F0BCF81FBD10B5F7
:1002100010BD00F009FA1146FFF7F5FF00F01CFDD4
:1002200000F027FA03B4FFF7F2FF03BC00F0A9FCCB
:100230002C4B19680868B0E8F04F80F30988BFF3C9
:100240006F8F4FF0000080F31188704700000000AE
:1002500008480068006880F308884FF0000080F3C9
:10026000148862B661B6BFF34F8FBFF36F8F00DFA4
:1002700000BF00BF08ED00E0DFF80C00016841F4AA
:1002800070010160704700BF88ED00E0EFF3098066
:10029000BFF36F8F134B1A681EF0100F08BF20EDCD
:1002A000108A20E9F04F106009B44FF0500080F33D
:1002B0001188BFF34F8FBFF36F8F01F073FB4FF0C7
:1002C000000080F3118809BC19680868B0E8F04F95
:1002D0001EF0100F08BFB0EC108A80F30988BFF33E
:1002E0006F8F704738000020EFF3058070470000E3
:1002F0000948804709480047FEE7FEE7FEE7FEE7BA
:10030000FEE7FEE7FEE7FEE7FEE7FEE704480549F5
:10031000054A064B70470000A9090008890100083A
:10032000583001205836012058320120583201201F
:10033000704700000FB4044910B503AA029800F0FA
:10034000F1F810BC5DF814FB240000202DE9F04109
:100350000E460446002020622046E168884730B3FC
:10036000252805D0D4E901219047206A401CF2E7F6
:10037000E168204600278847050018D0A5F1410014
:10038000192802D820354FF4006732462946204606
:100390002760FFF733FF40B1012804D0F61D26F097
:1003A00007060836D8E7361DD6E72846DAE7206A7A
:1003B000BDE8F08170B50C460546012A05D02878C5
:1003C000800600D5EA69002302E0012305E05B1CFA
:1003D000934202D2E05C0028F9D1A869E618C01A5D
:1003E000A861286A184428622846AFF3008004E018
:1003F000D5E9012114F8010B9047B442F8D32846FF
:10040000AFF3008070BD032A40F2308010F0030C7F
:1004100000F0158011F8013BBCF1020F624498BF57
:1004200011F801CB00F8013B38BF11F8013BA2F1F4
:10043000040298BF00F801CB38BF00F8013B11F06F
:10044000030300F08180083AC0F0088051F8043BB3
:10045000083A51F804CBA0E80810F5E7121D5CBF7C
:1004600051F8043B40F8043BAFF30080D20724BFAF
:1004700011F8013B11F801CB48BF11F8012B24BF43
:1004800000F8013B00F801CB48BF00F8012B704792
:1004900002F0FF0343EA032242EA024200F088B876
:1004A0004FF0000200B5134694469646203922BF0D
:1004B000A0E80C50A0E80C50B1F12001BFF4F7AF58
:1004C000090728BFA0E80C5048BF0CC05DF804EB3A
:1004D000890028BF40F8042B08BF704748BF20F8A8
:1004E000022B11F0804F18BF00F8012B70477047A6
:1004F00070477047704710B5436913B1AFF3008080
:1005000001E0FFF757FF012010BD127800F1240130
:100510000A7000224A700122EDE711684FF0FF32A5
:10052000E9E70000074B70B50D467B4400F065F825
:100530000446284600F074F810B14FF0FF3070BD4B
:10054000204670BD1707000010B5203AC0F00B80A0
:10055000B1E81850203AA0E81850B1E81850A0E8C7
:100560001850BFF4F5AF5FEA027C24BFB1E8185021
:10057000A0E8185044BF18C918C0BDE810405FEA91
:10058000827C24BF51F8043B40F8043B08BF70470D
:10059000D20728BF31F8023B48BF11F8012B28BF12
:1005A00020F8023B48BF00F8012B70474FF00002D3
:1005B0000429C0F0128010F0030C3FF473AFCCF1AB
:1005C000040CBCF1020F18BF00F8012BA8BF20F8E3
:1005D000022BA1EB0C01FFF765BF5FEAC17C24BFD2
:1005E00000F8012B00F8012B48BF00F8012B7047E1
:1005F00001694A1C02610878704700B58FB0CDE9E7
:1006000001310021059105497944CDE903101146D6
:100610006846FFF79BFE0FB000BD0000E5FFFFFF3F
:10062000007B00F080007047754600F029F8AE4668
:1006300005006946534620F00700854618B020B5EE
:10064000FFF764FEBDE820404FF000064FF00007C2
:100650004FF000084FF0000B21F00701AC46ACE86A
:10066000C009ACE8C009ACE8C009ACE8C0098D46D7
:1006700070470446AFF300802046FFF7D3FD00002B
:1006800000487047F82F0120FEE77047F0B50022C0
:1006900001274FF0030C0B6807FA02F52B40AB4221
:1006A0002CD1066853000CFA03F4A64306600E79B9
:1006B000D0F800E09E4046EA0E0606600E79012E54
:1006C00001D0022E12D18668A64386604E79D0F8FA
:1006D00008E09E4046EA0E0686604668AE434660E5
:1006E00045688E799640B6B235434560C568A543E6
:1006F000C560CC799C40C3681C43C460521C102A5E
:10070000C9D3F0BD4B07DB0E9A40C90810B500EB0A
:100710008100016A0F249C40A1430162016A1143D8
:10072000016210BD01837047FEE700007CB5012126
:10073000202000F069F80121102000F065F8012068
:100740008DF8040000228DF8062003218DF8051095
:100750000C4D4FF4C0648DF807000094694628469C
:10076000FFF794FF21462846FFF7DCFF064D2401E2
:10077000694628460094FFF789FF21462846FFF77F
:10078000D1FF7CBD0014024000100240FEE770471C
:1007900030B50F23C27801780125FAB1144A1268E6
:1007A00001F1E02102F4E062C2F5E062C2F3072247
:1007B000C2F10404D3404278A24084781C40144320
:1007C000220181F80024007800F01F018D404009CB
:1007D000800000F1E020C0F8005130BD01F01F00A2
:1007E00085404809800000F1E020C0F8805130BD0C
:1007F0000CED00E002490843024908607047000020
:100800000000FA050CED00E0044A0029116801D04F
:10081000014300E08143116070470000303802401E
:10082000044A0029116801D0014300E081431160AE
:10083000704700004438024070B5204B1968204CC6
:1008400011F00C0104D06610042903D0082903D04C
:1008500004601BE0066019E0184A121F1168C1F31A
:100860008055116801F03F0115B1B6FBF1F101E0CF
:10087000B4FBF1F114681268C4F388146143C2F345
:100880000142521C5200B1FBF2F1016019680F22C3
:1008900002EA11110B4A545C0168E14041601C6896
:1008A000072505EA9424145D21FA04F484601B688A
:1008B00005EA5333D25CD140C16070BD08380240B4
:1008C0000024F400280000200CB5002227490092E3
:1008D0000192086840F4803008604FF4A043086833
:1008E00000F4003001900098401C0090019810B96D
:1008F00000989842F3D10868800334D50120019014
:100900001A484030026842F080520260184802687B
:1009100042F44042026015480830026802600268F2
:1009200042F400420260026842F4A0520260031FD7
:10093000104A1A600A6842F080720A600A689201DE
:10094000FCD50D4940F205720A60016821F00301EF
:100950000160016841F0020101600168C1F3810199
:100960000229FAD10CBD01920CBD000000380240F2
:100970000070004008544007003C024010B5502071
:1009800080F31188BFF34F8FBFF36F8F01F05CFBD3
:1009900018B104494FF080500860002080F311889E
:1009A00010BD000004ED00E0124810B5016841F4EC
:1009B000700101601048016841F0010101600E4AB8
:1009C00000210832116002680C4B1A400260031DBE
:1009D0000B4A1A60026822F48022026006480C303A
:1009E0000160FFF771FF03494FF000608039086034
:1009F00010BD000088ED00E000380240FFFFF6FE69
:100A00001030002470B50B4D40F225542146284685
:100A100000F024F800280CD0284600F0ADF8C1B250
:100A200005A0FFF787FC21462846BDE8704000F08E
:100A300005B870BD00100140256300000A0A0121BD
:100A40009140C943018070470029818902D041F457
:100A5000005101E021F400518181704770B501F02F
:100A60001F0501260024C1F3421306FA05F2012BEB
:100A70000FD0022B0FD0838A4FEA11210088134236
:100A800006FA01F600EA060001D000B10124204672
:100A900070BD8389F0E7038AEEE710B5C1F3421316
:100AA00001F01F040121A140012B07D0022B07D028
:100AB0001430002A026805D00A4304E00C30F8E73D
:100AC0001030F6E78A43026010BD00007FB504468F
:100AD000008A0D46C98820F4405001432182A08934
:100AE00041F20C618843A9882A8911436A8902432B
:100AF0001143A181A08A20F44071A8890843A082F3
:100B00006846FFF799FE1A48844202D01948844289
:100B100001D1039800E00298A189090400EBC0010B
:100B200001EB0010296801D5490000E08900B0FB05
:100B3000F1F06422B0FBF2F109010B096FF0180526
:100B40006B4300EB8300A3891D044FF0320306D5ED
:100B500003EBC000B0FBF2F000F0070005E003EB90
:100B60000010B0FBF2F000F00F00084320817FBDC1
:100B700000100140001401408088C0F30800704755
:100B8000FEE7704703A0FFF7D5FB642000F062FE8C
:100B9000F8E700006170705F7461736B5F62656598
:100BA000702069732072756E6E696E67202E2E2E0E
:100BB0000D0A000003A0FFF7BDFB642000F04AFE11
:100BC000F8E700006170705F7461736B5F64687454
:100BD0002069732072756E6E696E67202E2E2E0D41
:100BE0000A00000003A0FFF7A5FB642000F032FE1E
:100BF000F8E700006170705F7461736B5F6C65642F
:100C00002069732072756E6E696E67202E2E2E0D10
:100C10000A00000003A0FFF78DFB642000F01AFE1D
:100C2000F8E700006170705F7461736B5F7372301E
:100C3000342069732072756E6E696E67202E2E2EB9
:100C40000D0A000003490A885206FCD5C2B28A8008
:100C500070470000001001401CB54FF44070FFF7D2
:100C6000C9FD24484FF47A710068B0FBF1F0401ED2
:100C7000B0F1807F0AD24FF0E02148611E4AF02097
:100C800082F8140D00208861072008614FF4165087
:100C900000F060FCFFF74AFD04241848E501CDE9A7
:100CA000004000232A4616A1194801F08DF9134887
:100CB0000023001DCDE900402A4616A1194801F085
:100CC00083F90E48A5010830CDE9004000232A46EB
:100CD00015A1194801F078F9084800230C30CDE936
:100CE00000402A4615A1194801F06EF900F01AFEDD
:100CF000FEE70000100000200FE000E000000020F0
:100D00006170705F7461736B5F6C656400000000FC
:100D1000E50B00086170705F7461736B5F626565FD
:100D200070000000850B00086170705F7461736B68
:100D30005F64687400000000B50B00086170705FAC
:100D40007461736B5F73723034000000150C00081F
:100D50002DE9F041184E0F460446F5683068001D35
:100D600000F04EFC38B9306890F82C100120884013
:100D7000316981433161601C07D137B13168BDE809
:100D8000F0410E48091D00F086BC30682C44AC428E
:100D90004460316805D2B06BBDE8F041091D00F038
:100DA00062BC706B091D00F05EFCB06A844200D228
:100DB000B462BDE8F081000038000020BC030020D0
:100DC0002DE9F041054600F073FC2D4EB068401C43
:100DD000B06030682B4F10B1706930B32BE03560D4
:100DE000B068012827D1002404EB840007EB8000C1
:100DF00000F02BFC641C202CF6D3234800F025FCCB
:100E00002148143000F021FC1F48283000F01DFC60
:100E10001D483C3000F019FC1B48503000F015FC18
:100E2000194870631430B06305E03068E96AC06A3D
:100E3000884200D83560706A0121401C70622864C5
:100E4000E86A326981401143316100EB800007EBB1
:100E50008000291D00F01FFC00F04AFC706900288A
:100E60000CD03068E96AC06A884207D207494FF05F
:100E700080500860BFF34F8FBFF36F8FBDE8F081E4
:100E800038000020EC0000206C03002004ED00E09E
:100E900010B500F00DFC0E4C2068A0B90D4800F014
:100EA000D4FB0C48143000F0D0FB0A48E06014304A
:100EB000206100220C210A2000F032FE206010B1D7
:100EC00005A100F093FCBDE8104000F011BC00004B
:100ED00074000020D0030020546D72510000000007
:100EE00030B4026C0B46002A0BD0C1681144C160BB
:100EF0004468A14201D30168C16030BC1846FFF7C5
:100F000082BA30BC70472DE9F041856B1746044624
:100F10000026026C82B1C7B1E068FFF774FAE1689D
:100F2000206C091AE1602268914202D26168081AB5
:100F3000E060022F16D017E02068A8B9606801F0C1
:100F4000E3F80646002060600EE0A068FFF75BFA59
:100F5000216CA0680844A0606168884204D32068BE
:100F6000A06001E005B16D1E6D1CA5633046BDE8B3
:100F7000F08110B50446006B00F0CEFB2046BDE8C2
:100F8000104000F0C9BB000010484FF496314207F2
:100F900006D0C01D0D4920F00700411AC1F5963159
:100FA0000B4A00230144C2E900030839103A21F03A
:100FB000070111604B600B600B1AC0E900139360CE
:100FC0004FF000405360D06070470000F8030020ED
:100FD00098000020144E154DA6F52F774FF080583D
:100FE000DFF84C9011E000F063FBF068C468201D4E
:100FF00000F006FBA868401EA8606868401E686094
:1010000000F076FB2046FFF7B4FF68680028EAD1BD
:101010003868012805D9C9F80080BFF34F8FBFF3A6
:101020006F8F00F000FBF0E7A803002038000020DD
:1010300004ED00E02DE9F0470E46DDE9098417468E
:10104000824691009946089DA522206BFFF720FA61
:101050006FF00301206B01EB8701084420F00707C4
:10106000780707D0502080F31188BFF34F8FBFF36C
:101070006F8FFEE72218315C82F83410315C11B1B9
:10108000401C0A28F6D3002684F83D60202D00D3AA
:101090001F25E562C4E91256201D00F0E1FA04F1B3
:1010A000180000F0DDFA2461C5F120006462A0613F
:1010B000266584F854604A465146384600F034FAB2
:1010C0002060B8F1000F01D0C8F80040BDE8F087FB
:1010D00030B5114900E011460A688242FBD34B68E3
:1010E0005C18844203D1406818444860084643684D
:1010F0001C18944209D1084C103C2468A24209D023
:1011000052681A4442600A6812680260814200D044
:10111000086030BD0460F9E79800002070B5002435
:1011200041600B4D0061914206D8D11A826991420B
:1011300006D2011D286907E09A4203D2994201D3E1
:10114000012403E0011DE86800F08DFA204670BD1F
:101150007400002010B5044600F0AAFAA06B20B17C
:10116000002400F0C5FA204610BD0124F9E7000074
:1011700030B585B02B4D4BE00198002848DB039C2F
:10118000606910B1201D00F03BFA04A800F0B6F829
:10119000024601980A283BD2DFE800F00505053A2F
:1011A000263705053A260298A169034601442046E0
:1011B000FFF7B4FF00B3616A20468847E069012861
:1011C00026D1002000900298A169002342181946F8
:1011D000204601F0A9F878B9502080F31188BFF3B8
:1011E0004F8FBFF36F8FFEE70298A06128B181187F
:1011F00013462046FFF792FF0AE0502080F3118843
:10120000BFF34F8FBFF36F8FFEE7204600F084FAE5
:10121000002201A9286800F001FE0028ACD105B029
:1012200030BD0000740000202DE9FC410E4605464B
:1012300000F0B0FB01A800F061F80446019818B175
:1012400000F0EAFFBDE8FC81224FAEB138690068CA
:10125000A8B30026291B3246386800F0D9FA00F0FE
:10126000DBFF0028EED11C494FF080500860BFF32F
:101270004F8FBFF36F8FE5E7A542EBD800F0CCFFAF
:10128000F8682646C068C468201D00F0B9F9E06916
:10129000012810D1A0692B46411932462046FFF79C
:1012A0003DFF40B100200346014600902A462046FB
:1012B00001F03AF820B1616A20468847C2E707E0AA
:1012C000502080F31188BFF34F8FBFF36F8FFEE77D
:1012D0000126BFE77400002004ED00E00648416BE2
:1012E000096829B1416BC968C9684968816270475A
:1012F0004FF0FF31FAE700003800002070B50546D6
:1013000000F09CFE064E0446B068844203D200F012
:1013100009F8012000E0002028602046B46070BD7C
:1013200074000020F8B5194E1FE0C068C468056855
:10133000201D00F065F9616A20468847E0690128B0
:1013400013D1A0692844A84206D924616060211DF8
:10135000F06800F088F908E000200346014600909C
:101360002A46204600F0E0FF38B1F0680168002905
:10137000DBD13169C6E90310F8BD502080F3118834
:10138000BFF34F8FBFF36F8FFEE7000074000020A4
:1013900008484068401C4FF0500080F3118804D08A
:1013A000BFF34F8FBFF36F8FFEE7BFF34F8FBFF3D6
:1013B0006F8FFEE7A0000020084CE068016839B19B
:1013C000002139B10020FFF72FFFFFF7D1FEF4E72E
:1013D0000121F6E7C0680068F5E70000740000200E
:1013E0002DE9F041044600F063F994F9455004F109
:1013F000240609E0606A48B1304600F0D1FE08B129
:1014000000F056FA6D1E6DB2002DF3DC4FF0FF3682
:1014100084F8456000F06CF900F04AF994F9445002
:1014200004F1100709E0206948B1384600F0B8FE21
:1014300008B100F03DFA6D1E6DB2002DF3DC84F8AA
:101440004460BDE8F04100F053B900002DE9F041DF
:101450000546002600F09EFA324F386808B9FFF7BB
:1014600093FDF86805424BD1C5B3083568070ED027
:1014700005F00700C0F108000544680707D05020B8
:1014800080F31188BFF34F8FBFF36F8FFEE72DB34B
:101490007868854234D8234910310846046801E051
:1014A000214604466068A84202D220680028F7D18D
:1014B0003868844224D00E68206808606068083666
:1014C000411B10290FD96019420708D0502080F322
:1014D0001188BFF34F8FBFF36F8FFEE710E04160BD
:1014E0006560FFF7F5FD61687868401A7860BA6852
:1014F000904200D2B860F86801430020C4E90001BE
:1015000000F08AFE0EB900F08FF8700707D0502067
:1015100080F31188BFF34F8FBFF36F8FFEE7304624
:10152000BDE8F0818800002010B5031F4FF08074E3
:101530001C601B1F21F001011960191F044B0B6077
:1015400014390A60091F6FF0020244380A6010BDA6
:1015500091130008F0B50646012187B00846FFF751
:1015600053F901211020FFF75BF9234D07220921D0
:101570002846FFF7C7F807220A212846FFF7C2F8D6
:1015800002218DF814108DF815104FF4C06000245E
:1015900004908DF8164001278DF8177004A928468D
:1015A000FFF774F8ADF80440ADF80640ADF8084018
:1015B000ADF80C400C20114CADF80A0000966946BD
:1015C0002046FFF783FA01212046FFF73DFA01226A
:1015D00040F225512046FFF760FA25208DF81800CB
:1015E00003208DF819008DF81A008DF81B7006A8DD
:1015F000FFF7CEF807B0F0BD000002400010014038
:10160000D0E9013201699A60D0E901235A604A6841
:10161000824201D182684A60002202610868401E4D
:101620000860086870477047502080F31188BFF346
:101630004F8FBFF36F8FFEE7502080F31188BFF309
:101640004F8FBFF36F8FFEE7704700F108014FF037
:10165000FF32C0E90112C1600161002101607047E1
:1016600000210161704730B50C68621C02D000F1A6
:10167000080202E0026904E01A4653681D68A542A8
:10168000FAD953684B6099608A60516008610168BB
:10169000491C016030BD42684A6093688B60936862
:1016A0005960916008610168491C01607047000041
:1016B000502080F31188BFF34F8FBFF36F8F0A491B
:1016C0004868401C486001280CD10848006810F0A8
:1016D000FF0F07D0502080F31188BFF34F8FBFF367
:1016E0006F8FFEE770470000A000002004ED00E0CF
:1016F0000849486828B1401E486001D180F311882C
:101700007047502080F31188BFF34F8FBFF36F8F66
:10171000FEE70000A000002070B5002827D0144D7F
:10172000A0F108046068E968084207D1502080F3FE
:101730001188BFF34F8FBFF36F8FFEE722683AB176
:10174000502080F31188BFF34F8FBFF36F8FFEE7F8
:101750008843606000F01EF960686968084468604A
:101760002046FFF7B5FCBDE8704000F055BD70BDE8
:10177000880000204FF0E0200021016181610549CF
:101780004FF47A720968B1FBF2F1491E41610721F9
:10179000016170471000002010B5FEF7A5FD11494A
:1017A00010280ED300F1E02090F8F0030A78904260
:1017B00007D2502080F31188BFF34F8FBFF36F8F94
:1017C000FEE709480068896800F4E060884207D9AC
:1017D000502080F31188BFF34F8FBFF36F8FFEE768
:1017E00010BD0000A00000200CED00E010B5074B7C
:1017F000002253F832401CB1521C082AF9D310BD04
:1018000043F8321003EBC201486010BDAC00002069
:1018100070B515460E460446FFF74AFF94F944108A
:101820000020491C01D184F8440094F94510491C5A
:1018300001D184F84500FFF75BFFA06B28B92A4669
:10184000314604F1240000F051F82046BDE8704014
:10185000FFF7C6BD10B5020014D00F48006B38B1B9
:10186000502080F31188BFF34F8FBFF36F8FFEE7D7
:1018700000F090F800211046FFF76AFA00F0CCFC67
:10188000002807D105494FF080500860BFF34F8F03
:10189000BFF36F8F10BD00003800002004ED00E0A2
:1018A00002490A6A0260C968416070473800002036
:1018B00001490120C86170473800002010B50C466E
:1018C00050B1094909681831FFF7CDFE2046BDE83F
:1018D00010400121FFF73CBA502080F31188BFF37C
:1018E0004F8FBFF36F8FFEE73800002070B51446AE
:1018F0000D4668B10A4909681831FFF7CCFE0CB1F2
:101900004FF0FF3521462846BDE87040FFF720BA6A
:10191000502080F31188BFF34F8FBFF36F8FFEE726
:10192000380000201CB517480024CDE900402346AC
:10193000822215A1164800F047FB012803D100F0D0
:10194000CDFC012809D0401C1AD1502080F3118809
:10195000BFF34F8FBFF36F8FFEE7502080F31188E6
:10196000BFF34F8FBFF36F8F06484FF0FF312C3816
:10197000816201214161C460BDE81C4000F056B89D
:101980001CBD00006400002049444C4500000000DC
:10199000D50F00080248016B491C01637047000025
:1019A0003800002010B51F4C206B10B10120E06101
:1019B00010BD0020E06120684FF0A532006B016887
:1019C000914208D14168914205D18168914202D18A
:1019D000C068904204D0216820683431FFF72CFEA3
:1019E00020691149B0FA80F0C0F11F0000EB8000BF
:1019F00051F820206AB101EB800000F10802416833
:101A000049684160914201D149684160C8682060DD
:101A100010BD502080F31188BFF34F8FBFF36F8F3D
:101A2000FEE7000038000020EC0000201CB537481D
:101A30000168374A914207D1502080F31188BFF3E3
:101A40004F8FBFF36F8FFEE700683149491E884210
:101A500007D1502080F31188BFF34F8FBFF36F8FF2
:101A6000FEE72C4908780190FF20087008788DF86F
:101A700000009DF800009DF8002000F0F00090426A
:101A800007D0502080F31188BFF34F8FBFF36F8FC3
:101A9000FEE79DF80000204B00F050001870072072
:101AA000986006E0401E98609DF8000040008DF8A8
:101AB00000009DF8000000069868F3D4032807D0C2
:101AC000502080F31188BFF34F8FBFF36F8FFEE775
:101AD0004FF440709860019808700C4820300168FD
:101AE00041F470010160016841F070410160FFF74D
:101AF00041FE00205860FEF7BFFB0848016841F036
:101B000040410160FEF7A4FB00201CBD00ED00E099
:101B100071C20F4100E400E0A000002034EF00E0BB
:101B20002DE9F04117460E46050016D0EEB105FB33
:101B300006F05030FFF78AFC04000CD004F150008E
:101B4000AEB12060C4E90F562046012100F012F822
:101B5000204684F84C70BDE8F081502080F3118855
:101B6000BFF34F8FBFF36F8FFEE70020E1E72460E4
:101B7000E8E7000070B50D46040025D0FFF798FD9A
:101B8000D4E90F20216802FB001161600021A163EC
:101B90002168A1600A46D4E90F01401E00FB012123
:101BA000E16021464FF0FF3001F8440F487004F126
:101BB00010008DB1FFF749FD04F12400FFF745FD4A
:101BC000FFF796FD012070BD502080F31188BFF310
:101BD0004F8FBFF36F8FFEE721690029F0D000F02F
:101BE000DFFA0028ECD004494FF080500860BFF3C2
:101BF0004F8FBFF36F8FE3E704ED00E02DE9FF4F58
:101C000083B01F468B4604004FF0000603D0BBF1A3
:101C1000000F08D011E0502080F31188BFF34F8FE0
:101C2000BFF36F8FFEE7206C38B1502080F311882E
:101C3000BFF34F8FBFF36F8FFEE7022F0AD1E06B28
:101C4000012807D0502080F31188BFF34F8FBFF3D6
:101C50006F8FFEE700F0E4F9DFF800914FF0000A23
:101C60004FF0805848B9059838B1502080F311885A
:101C7000BFF34F8FBFF36F8FFEE7FFF719FDA06B28
:101C8000E16B884205D3022F03D00598C8B1DEB1BD
:101C90001EE03A4659462046FFF735F9616A19B108
:101CA00004F1240000F07CFA28B1C9F80080BFF3E9
:101CB0004F8FBFF36F8FFFF71BFD012007B0BDE80B
:101CC000F08FFFF715FD21E06846FFF7E9FD0126DB
:101CD000FFF70EFDFFF75EFEFFF7EAFC94F9440004
:101CE000401C01D184F844A094F94500401C01D166
:101CF00084F845A0FFF7FCFC05A9684600F02AF926
:101D000030B12046FFF76CFB00F086FA0020D5E7E3
:101D1000FFF7CEFCA06BE16B884201D1012500E00A
:101D20000025FFF7E5FC95B104F110000599FFF7D8
:101D3000C5FD2046FFF754FB00F06EFA00289CD149
:101D4000C9F80080BFF34F8FBFF36F8F95E7204630
:101D5000FFF746FB00F060FA8FE7000004ED00E0BB
:101D60002DE9F0471F4690468946040003D0B9F19B
:101D7000000F08D011E0502080F31188BFF34F8F7F
:101D8000BFF36F8FFEE7206C38B1502080F31188CD
:101D9000BFF34F8FBFF36F8FFEE7022F0AD1E06BC7
:101DA000012807D0502080F31188BFF34F8FBFF375
:101DB0006F8FFEE7FFF7F0FC5020EFF3118680F302
:101DC0001188BFF34F8FBFF36F8FA06BE16B884219
:101DD00006D3022F04D0002086F31188BDE8F087D7
:101DE00094F945503A4649462046FFF78CF8681C5E
:101DF00004D06D1C84F845500120EDE7606A00288E
:101E0000FAD004F1240000F0CBF90028F4D0B8F1A6
:101E1000000FF1D00121C8F80010EDE72DE9F747D8
:101E200083B08A4604004FF0000603D0BAF1000FD9
:101E300008D011E0502080F31188BFF34F8FBFF31B
:101E40006F8FFEE7206C38B1502080F31188BFF30C
:101E50004F8FBFF36F8FFEE700F0E2F8DFF8F090EE
:101E600000274FF0805848B9059838B1502080F3CA
:101E70001188BFF34F8FBFF36F8FFEE7FFF718FC9A
:101E8000A56BC5B151462046FFF72AF86D1EA56324
:101E9000206950B104F1100000F082F928B1C9F8AE
:101EA0000080BFF34F8FBFF36F8FFFF721FC01203E
:101EB00006B0BDE8F087059808B11EB106E0FFF74F
:101EC00017FC27E06846FFF7EBFC0126FFF710FC44
:101ED000FFF760FDFFF7ECFB94F94400401C01D1D3
:101EE00084F8447094F94500401C01D184F8457091
:101EF000FFF7FEFB05A9684600F02CF800282046F5
:101F00000AD0FFF76DFA00F087F92046FFF722F9B3
:101F10000028B3D00020CBE7FFF71CF990B104F103
:101F200024000599FFF7CAFC2046FFF759FA00F094
:101F300073F90028A2D1C9F80080BFF34F8FBFF317
:101F40006F8F9BE72046FFF74BFA00F065F995E7A6
:101F500004ED00E02DE9F0410C46050011D0C4B1BC
:101F6000FFF7A6FB174EF1686B682268C81A571C6A
:101F700017D02F68366AB74219D08B4217D8012480
:101F800010E0502080F31188BFF34F8FBFF36F8FA5
:101F9000FEE7502080F31188BFF34F8FBFF36F8FA0
:101FA000FEE70024FFF7A4FB2046BDE8F081824253
:101FB00005D9101A20602846FFF772FCF1E70020CF
:101FC0002060DCE7380000202DE9FF5F8346DDE973
:101FD0000E87994616468A469000FFF737FA0500A5
:101FE0001AD05820FFF732FA040012D025630021DE
:101FF000CDE90241CDE900874B463246514658466D
:10200000FFF718F82046FEF7DBFE012004B0BDE81C
:10201000F09F2846FFF780FB4FF0FF30F6E7000007
:102020000548416919B1006B18B1002070470120C3
:102030007047022070470000380000200148C06847
:1020400070470000380000202DE9F0412C4E002799
:10205000306B18B1B069401CB06148E0F5686D1C88
:10206000F56013D1706B006838B1502080F311888F
:10207000BFF34F8FBFF36F8FFEE7706BB16B716370
:10208000B063306A401C3062FFF728F9B06A8542BD
:1020900009D3706B006848B1706BC068C468606831
:1020A000854206D2B062B06908B322E04FF0FF303B
:1020B000F8E7201DFFF7A4FAA06A18B104F1180090
:1020C000FFF79EFAE06A01213269814011433161D4
:1020D0000C4900EB800001EB8000211DFFF7DBFACB
:1020E000E06A3168C96A8842D3D30127D1E7FFF794
:1020F000ABFAF06900B101273846BDE8F081000075
:1021000038000020EC00002070B504004FF0000003
:1021100041D0214D29688C4207D0502080F311888E
:10212000BFF34F8FBFF36F8FFEE7E16C71B1491EB4
:10213000E164A36CE26A9A422DD000292BD1201DC4
:10214000FFF75EFA1549012240B112E0502080F3FA
:102150001188BFF34F8FBFF36F8FFEE7E06A00EB8C
:10216000800351F8233023B92B6902FA00F083432E
:102170002B61A06CE062C0F12000A061E06A2B69D5
:1021800082401A432A6100EB800001EB8000211D90
:10219000FFF781FA012070BD38000020EC0000201C
:1021A0002DE9F041C068C468ACB104F118000746DD
:1021B000FFF726FA154D286B0126A0B139461448C1
:1021C000FFF769FAE06A2968C96A88421BD90120C9
:1021D000EE61BDE8F081502080F31188BFF34F8F8E
:1021E000BFF36F8FFEE7201DFFF70AFAE06A2A6946
:1021F00006FA00F111432961064900EB800001EB6A
:102200008000211DDCE70020E3E70000380000200B
:1022100094030020EC0000202DE9F0472C4D002411
:102220002746286B38B1FFF743FA286B401E286316
:10223000286B40B146E0502080F31188BFF34F8FE8
:10224000BFF36F8FFEE7A86822490126D0B3A1F53E
:102250002A798846D8F80010E9B1D8F80C00C4688B
:1022600004F11800FFF7CCF9201DFFF7C9F9E06A67
:102270002A6906FA00F11143296100EB800109EB9C
:102280008100211DFFF707FAE06A2968C96A8842C0
:10229000E0D3EE61DEE70CB1FFF720F8AC693CB1AA
:1022A000FFF7D2FE00B1EE61641EF9D10020A861F3
:1022B000E86938B10849012738070860BFF34F8F34
:1022C000BFF36F8FFFF714FA3846BDE8F0870000C0
:1022D000380000209403002004ED00E01CB5FEF758
:1022E000D7FD0D48006868B10B490220091DCDE9F2
:1022F000000100234FF4827208A10A48FFF764FE30
:10230000002807D1502080F31188BFF34F8FBFF30F
:102310006F8FFEE71CBD000074000020546D72201A
:1023200053766300B9130008FEB51F460300089EEC
:102330004FF0000013D0124D2C68002C0ED08DE809
:102340000E00062915DAFFF76BFE02284FF0000396
:102350000DD0002269462868FFF750FCFEBD5020D2
:1023600080F31188BFF34F8FBFF36F8FFEE73246C4
:10237000F0E700233A4669462046FFF7F1FCFEBD30
:10238000740000204FF04070E1EE100A704700002A
:10239000B023000800000020AC000000C4010008C9
:1023A0005C240008AC000020AC350100E00100080E
:1023B000000000000000000000000000000000001D
:1023C000007A030A0000000000000000010203047C
:1023D00006070809000000000000000001020304D5
:1023E00001020304060708090000000000000000C5
:1023F00000000000000000000000000000000000DD
:1024000000000000000000000000000000000000CC
:1024100000000000000000000000000000000000BC
:1024200000000000000000000000000000000000AC
:10243000000000000000000000000000000000009C
:10244000000000000000000000000000000000008C
:0C24500000000000AAAAAAAA00000000D8
:040000050800018965
:00000001FF
